:0200000460009A
:100000004643464200000156000000000101020084
:1000100000000000000000000000000000000000E0
:1000200000000000000000000000000000000000D0
:1000300000000000000000000000000000000000C0
:1000400000000000010403000000000000000000A8
:100050000000200000000000000000000000000080
:100060000000000000000000000000000000000090
:100070000000000000000000000000000000000080
:10008000EB04180A063204260000000000000000FD
:10009000050404240000000000000000000000002F
:1000A0000000000000000000000000000000000050
:1000B0000604000000000000000000000000000036
:1000C0000000000000000000000000000000000030
:1000D00020041808000000000000000000000000DC
:1000E0000000000000000000000000000000000010
:1000F0000000000000000000000000000000000000
:1001000000000000000000000000000000000000EF
:100110000204180804200000000000000000000095
:1001200000000000000000000000000000000000CF
:10013000600400000000000000000000000000005B
:1001400000000000000000000000000000000000AF
:10015000000000000000000000000000000000009F
:10016000000000000000000000000000000000008F
:10017000000000000000000000000000000000007F
:10018000000000000000000000000000000000006F
:10019000000000000000000000000000000000005F
:1001A000000000000000000000000000000000004F
:1001B000000000000000000000000000000000003F
:1001C000000100000010000001000000000000001D
:1001D000000000000000000000000000000000001F
:1001E000000000000000000000000000000000000F
:1001F00000000000000000000000000000000000FF
:10020000D4D4D4D4D4D4D4D4D4D4D4D4D4D4D4D4AE
:10100000D10020400020006000000000000000002F
:1010100020100060001000600000000000000000D0
:101020000000006034BD000000000000EFBEADDE37
:10103000124880F3088812481249016000F036F81F
:10104000114812490022814201D004C0FBE7104838
:101050001049114A814202D008CA08C0FAE70F4875
:101060004FF47001026842EA01020260BFF34F8F41
:10107000BFF36F8F00F014F800DE00000040002086
:1010800008ED00E0004000200050002074810020A6
:10109000B84200205844002034BD006088ED00E0D4
:1010A00040F2556CC0F2000C6047D4D41C4840F2AA
:1010B000924188420CBF1B4A1B4A1C4B5360136869
:1010C00023F0800313601A481A4901BF1A480A0C1A
:1010D0008264C1F30F014164016C41F004010164B9
:1010E0001648174A824205D01649814202D008CAE2
:1010F00008C0FAE71448154A824205D014498142D3
:1011000002D008CA08C0FAE71248134A824205D042
:101110001249814202D008CA08C0FAE770470000AD
:10112000240400000080034000C00B4020C528D9E3
:1011300000C00A40AAAAFAFF00400E4000000000CA
:10114000B8220060388300000040002000200060CA
:10115000B842002000002020F0A5006044172020A5
:10116000D4D4D4D4D4D4D4D4D4D4D4D4D4D4D4D43F
:10117000D4D4D4D4D4D4D4D4D4D4D4D4D4D4D4D42F
:10118000D4D4D4D4D4D4D4D4D4D4D4D4D4D4D4D41F
:10119000D4D4D4D4D4D4D4D4D4D4D4D4D4D4D4D40F
:102000000040002031100060AD2100001F8300005F
:10201000AD210000AD210000AD2100000000000056
:10202000000000000000000000000000AD210000E2
:10203000AD21000000000000AD210000C708000035
:10204000AD210000AD210000AD210000AD21000058
:10205000AD210000AD210000AD210000AD21000048
:10206000AD210000AD210000AD210000AD21000038
:10207000AD210000AD210000AD210000AD21000028
:10208000AD21000000000000000000000000000082
:10209000AD210000AD210000AD210000AD21000008
:1020A000AD210000AD210000AD210000AD210000F8
:1020B000AD210000AD210000AD210000AD210000E8
:1020C000AD210000AD210000AD210000AD210000D8
:1020D000AD210000AD210000AD210000AD210000C8
:1020E000AD210000AD210000AD210000AD210000B8
:1020F000AD210000AD210000AD210000AD210000A8
:10210000AD210000AD210000AD210000AD21000097
:1021100000000000AD21000000000000AD21000023
:10212000AD210000AD210000AD210000AD21000077
:10213000AD210000AD21000000000000AD21000035
:10214000AD210000AD210000AD210000AD21000057
:10215000AD210000AD2100000000000000000000E3
:10216000AD210000AD210000AD210000AD21000037
:10217000AD210000AD210000AD210000AD21000027
:10218000AD210000AD210000AD210000AD21000017
:10219000AD210000AD210000AD210000AD21000007
:1021A000AD210000AD210000AD210000AD210000F7
:1021B000AD210000AD210000AD210000AD210000E7
:1021C000AD210000AD210000AD21000000000000A5
:1021D0007B020000AD210000AD210000AD21000018
:1021E000AD210000AD210000AD210000AD210000B7
:1021F000AD210000AD210000AD210000AD210000A7
:10220000AD2100003D200000AD210000AD21000007
:10221000AD210000AD210000AD210000AD21000086
:10222000AD210000AD210000AD210000AD21000076
:10223000AD210000AD210000AD2100000000000034
:1022400000000000AD210000AD210000AD21000024
:10225000AD210000AD210000AD210000AD21000046
:10226000AD210000AD210000AD210000AD21000036
:10227000AD210000AD210000AD210000AD21000026
:10228000AD210000AD210000AD210000AD21000016
:10229000AD210000AD210000AD210000AD21000006
:1022A000AD210000AD210000AD21000000000000C4
:0822B000AD210000AD2100008A
:1022B800F0B503AF2DE9000B86B0044690F858003E
:1022C8008846E0B1032840F0E98094F8540008B348
:1022D800032840F0EF8094F8511004F10C00002915
:1022E80067D003293FD040F2800040F2A812C2F222
:1022F8002000C2F22002232106F003FEFEDE25683C
:1023080045F2DC060020C2F2000684F85400C4E955
:10231800016501E0D4E9016501F000F80021E664F7
:1023280084F851104119616204F10C00224642F808
:10233800281F002182F828103379002B00F098809C
:10234800234643F8481F1D4643E90D6345F81C1D05
:1023580001211972194641F8045D43F8085C43E904
:102368000F2143E90B63414600F039FF814608B16C
:10237800032072E0206C016849B1007B00281CBF73
:10238800002084F8500094F8500098BB5BE00021CE
:10239800D4E9076084F85010D0F8008006F05EFC9D
:1023A800BFF35F8F326802B31169424504D13160CF
:1023B8001BE0616AE66CB9E7B9B1414513D00B6916
:1023C8009BB143450DD0196979B1414507D00B69D7
:1023D8005BB1434505D0196939B14145EFD11A467A
:1023E80001E00A4619460969116106F042FC94F8B1
:1023F800500040B3D4E90750066806F02FFCBFF33D
:102408005F8F2A68EAB11169B24201D1296018E0E8
:10241800B9B1B14213D00B699BB1B3420DD0196960
:1024280079B1B14207D00B695BB1B34205D01969E4
:1024380039B1B142EFD11A4601E00A461946096995
:10244800116106F016FC002084F85000E06A0028AC
:102458001EBFC168206B8847012084F8580084F8A3
:10246800540084F85100484606B0BDE8000BF0BDA2
:1024780001200491019040F23410C2F2200003912F
:10248800009040F2000040F29811C2F22000029041
:10249800C2F22001684606F01EFDFEDE40F2800012
:1024A80040F26402C2F22000C2F22002232106F0A8
:1024B80028FDFEDE40F2800040F2B812C2F2200091
:1024C800C2F22002232106F01CFDFEDE084640F27F
:1024D800A301C2F22001022207F074B945F20000FC
:1024E8000121C2F20000BFF35F8F80F869104EF23D
:1024F8000C20CEF2000010210160704745F26C00FC
:102508000121C2F20000BFF35F8F80F869104EF21C
:102518000C20CEF200001021016070477047704710
:1025280080B56F4606F0B7FBFCE7F0B503AF2DE9C1
:10253800000B96B045F26C0648F26C19C2F2000620
:10254800C2F2000996F86800002800F0B98006F188
:1025580069000021D0E84F2F012A22D1C0E8421F8C
:10256800002AF7D140F24D20BFF35F8FC0F2000080
:1025780001A9029040F24430C2F220000391019078
:1025880096F8640080B1032816D040F2800040F22B
:102598007822C2F22000C2F22002232106F0B1FC08
:1025A800FEDEBFF32F8F8BE0002047F2305186F814
:1025B80060003068C6E9010106F1080003A9FFF7C9
:1025C80077FE18B1032086F8640075E096F860007D
:1025D800032808D196F85C00032804BF96F8590030
:1025E800032800F09A80D9F80000022817D90020A3
:1025F8000121109040F2B0220F9040F200000D919E
:1026080040F2A821C2F22000C2F220010E900CA8CC
:102618000C91C2F220020321002303F031FC7168FF
:102628000CAC4220A7F15E0227F85E0C204602237C
:1026380000F0EDFA0C98002800F0B0800D99D9F858
:102648000020032A30D30229C0F0A08040F20831CC
:102658000222C2F220010994059114A907910121CF
:102668000A9100230692407807F8410C47F6E35098
:10267800C0F2000008911590A7F1410014900320C2
:102688008DF84C000C20202112900020109104217C
:102698000C9240F22832CDE90E01119005A8C2F241
:1026A8002002032103F0ECFB012086F864000020DF
:1026B800BFF35F8F86F86800DDE90110C9688847B5
:1026C80045F20006C2F2000696F86800002800F0FD
:1026D800018106F169000021D0E84F2F012A19D1A4
:1026E800C0E8421F002AF7D140F22D20BFF35F8FC8
:1026F800C0F2000014A9159040F24430C2F2200044
:102708000191149096F86400002840F0A780306882
:10271800706059E0BFF32F8FDCE0D6E90940D0F8AC
:10272800008006F09BFABFF35F8F2268EAB1116957
:10273800424501D1216018E0B9B1414513D00B6978
:102748009BB143450DD0196979B1414507D00B6953
:102758005BB1434505D0196939B14145EFD11A46F6
:1027680001E00A4619460969116106F082FA706BA0
:10277800002186F8581000281EBFC168B06B884732
:10278800D9F8000002283FF632AF48E740F2183285
:102798000120C2F2200206F0CBFBFEDE9DF83400D9
:1027A80040F2D0038DF8140040F2CC20C2F2200091
:1027B80005AA009040F2A500C2F22000C2F2200350
:1027C8002B2106F0D5FBFEDE06F067FA0446F02062
:1027D80006F067FA41F24470C2F220000168013144
:1027E8000160D9F80020D11E18BF0121032A88BF33
:1027F8004FF0FF314A1C1CBFC9B200291BD1002170
:1028080040F25C22109102210D9140F23421C2F273
:102818002001C2F220020C9101210F9105A90E910D
:1028280047F66361C0F200010023CDE905010CA859
:10283800032103F025FB204606F033FA70680022D6
:10284800D0E9000186F8602047F2305201F01F01FC
:10285800B260012202FA01F1C0F88C1006F10800FA
:1028680001A9FFF725FD70BB96F860000328ABD1DE
:1028780096F85C00032804BF96F859000328A3D1F2
:10288800D6E90950046806F0E9F9BFF35F8F2A68B2
:102898005AB31169A24201D1296026E029B3A142A5
:1028A80021D00B690BB3A3421BD01969E9B1A1422E
:1028B80007D00B69CBB1A34213D01969A9B1A142C2
:1028C800EFD11A460FE0DDE91410032286F86420E0
:1028D800C9688847002006F0E4F916B0BDE8000B87
:1028E800F0BD0A4619460969116106F0C2F9706B14
:1028F800002186F8581000283FF466AFC168B06B15
:10290800884761E780B56F4606F0B8F948F270105D
:102918000121C2F2000001704EF20C10CEF200004C
:10292800F02180F858131021016000F003F8FFF738
:10293800F7FDFEDEF0B503AF2DE9000BADF59F6D99
:10294800CEAC204601F0D9F805A8214600F022FABD
:102958000FAA05AD02ABDDF8308007CA179C07C384
:10296800284601F0A1FC02A9284601F0A2FC4EF27B
:1029780010090126CEF200090522D9F8000020F03E
:102988000100C9F80000D9F8000040F00400C9F8B7
:10299800000048F69F40C9F80400D9F8000040F04C
:1029A8000200C9F80000D9F8000040F00100C9F899
:1029B800000045F2DC00BFF35F8FC2F20000067131
:1029C80048F23C10BFF35F8FC4F21F00016C62F342
:1029D80003010164D8F8041041F48031C8F80410E8
:1029E8008268032161F303028260826842F0100268
:1029F80082600022C0F8EC23436861F3030343605C
:102A0800436843F010034360C0F8E823C36861F3E8
:102A18000303C360C36843F01003C360C0F8E42332
:102A2800036861F303030360036843F01003036062
:102A3800C0F8E023022020612261224661622069F9
:102A4800216921F001012161216E21F040412166B7
:102A5800216960F300014FF00F10216144F2402119
:102A6800A065C0F20F012661206940F44070206122
:102A78002569206920F00100206142F60010C0F2AB
:102A8800DE7003F009FB206945F20001C2F2000183
:102A980065F30000206101F16800D0E84F2F42B9CA
:102AA800BFF35F8FC0E8426F52B1D0E84F2F002AC2
:102AB800F8D040F20820BFF32F8FC2F2200029E09F
:102AC8000020BFF35F8F81F8640041F25070C2F2BA
:102AD800200001220860BFF35F8F81F86920102170
:102AE800C9F8FC1145F26C01C2F2000101F168035A
:102AF800D3E84F6F46B9BFF35F8FC3E8462FBEB127
:102B0800D3E84F6F002EF8D040F2F810BFF32F8FA4
:102B1800C2F2200040F2C813009040F2A50005AAB6
:102B2800C2F22000C2F220032B2106F021FAFEDEB9
:102B380041F248730022C2F22003BFF35F8F81F88D
:102B4800642001260B60BFF35F8F81F8696041F252
:102B580044761021C2F22006C9F8FC113260C3E99C
:102B68000024C0E900810DF59F6DBDE8000BBDE8AC
:102B7800F04006F085B8F0B503AF2DE9000B00F082
:102B8800C8FB804600F003FC00F0E9FB10E0206978
:102B9800C8F80000D4E90010096888470646207B79
:102BA80005F00100894606F064F8716848468847D0
:102BB80006F054F8BFF35F8F0546D8F80040ECB133
:102BC800A66800F0ABFB801B0021B0F1FF3FC8BF37
:102BD800012100282173DAD505F0010006F049F833
:102BE80000F0D5FB304600F0B1FB00F097FB801BEE
:102BF800B0F1FF3FDCDCBDE8000BF0BD284606F075
:102C080038F8BDE8000BBDE8F04000F0C0BBF0B5F7
:102C180003AF2DE9000F85B04D6804466869C0010F
:102C280011D499468BB128690E460821904640F484
:102C38004070286102A803F01CFA0298022806D105
:102C48009DF80C0097E0042095E0052093E09DF89E
:102C580010104FF0000B9DF80C004FF0010A9DF882
:102C68000DC09DF80EE089049DF80F306CF30B2021
:102C7800366840EA8E509DF8122041EAC34101921D
:102C880041EA00034FEAC65E0120002201210BE061
:102C9800CB454FF0000038BF01204A454FF00001F6
:102CA80034BF0121CB456DD2C90750D018F8026056
:102CB8000132B2EB090C08BFE2466969090559D42B
:102CC800E96DC90611D56969090553D4E96DC906C5
:102CD8000BD5696909054DD4E96DC90605D569693A
:102CE800090547D4E96DC906E7D40199F44600936C
:102CF800B6465FFA8AF643EA01512B6E41EA46511D
:102D08004FF20006CFF6037633407646E64643EAAE
:102D18000C0319432966696909052BD4E96DC906AD
:102D280011D56969090525D4E96DC9060BD5696905
:102D380009051FD4E96DC90605D56969090519D4BE
:102D4800E96DC906E7D46E6601210191009BC007B1
:102D58009ED06869C0041BD4286F800798D4686F18
:102D6800B0F5807F28BF4FF0FF3008F80B000BF15B
:102D7800010B8DE7002000212071216005B0BDE81E
:102D8800000FF0BDC4E9008905B0BDE8000FF0BD33
:102D98000120F0E7F0B503AF2DE9000FADF5317D67
:102DA8000D46044601F13400383105F1540201F0B2
:102DB8004EF8D5F8C80003F0B2FAD5F82801016832
:102DC80041F001010160D5F82811086820F00200DF
:102DD80008600020C1F80801C1F81801C1F82801ED
:102DE8001A91C1F83801D5F8C090D9F8000020F040
:102DF8000100C9F80000D9F8000040F40040C9F803
:102E08000000D9F8000000040CD5D9F8000000042F
:102E180044BFD9F800005FEA004003D5D9F80000A4
:102E28000004EED43F20C9F80800D9F8000020F0CB
:102E38000100C9F80000D5F8C4A0DAF8000020F0B5
:102E48000100CAF80000DAF8000040F40040CAF8AF
:102E58000000DAF8000000040CD5DAF800000004DD
:102E680044BFDAF800005FEA004003D5DAF8000052
:102E78000004EED43F20CAF80800DAF8000020F079
:102E88000100CAF80000D5F85C0103F0F6F9D5F89E
:102E98000080CDE9181040F26341D8F8480040F0AE
:102EA8000100C8F84800D8F844000843C8F84400AE
:102EB800D8F84400012161F38300C8F84400D8F829
:102EC800440020F08000C8F84400D8F8480040F0DA
:102ED8002000C8F84800D8F8440040F44040C8F83A
:102EE8004400D8F8440040F44470C8F84400D8F8C6
:102EF800480040F08000C8F84800D8F8580000079B
:102F08000CD0D8F8580000071CBFD8F858005FEA62
:102F1800007003D0D8F858000007EED1D8F8480060
:102F280040F2634140F02000C8F84800D8F8440057
:102F380020F44040C8F84400D8F8440020F4447015
:102F480000F58870C8F84400D5F804B0DBF84800EC
:102F580040F00100CBF84800DBF844000843CBF808
:102F68004400DBF84400012161F38300CBF84400FE
:102F7800DBF8440020F08000CBF84400DBF8480080
:102F880040F02000CBF84800DBF8440040F4404013
:102F9800CBF84400DBF8440040F44470CBF844001C
:102FA800DBF8480040F08000CBF84800DBF8580018
:102FB80000070CD0DBF8580000071CBFDBF85800EE
:102FC8005FEA007003D0DBF858000007EED1DBF8A9
:102FD800480040F02000CBF84800DBF8440020F41B
:102FE8004040CBF84400DBF8440020F4447000F57E
:102FF8008870CBF84400D5F87C01179003F0E9F805
:10300800064603F0E8F8179903469BA8324603F0F2
:10301800E4F8D5F86811ADA84FF4805202F0D7FF54
:10302800D5F89C000A90D5F8A4000990D5F8A80016
:103038000690D5F8AC000590D5F884010490D5F831
:1030480090010390D5F89801D5E9171202901BA8B2
:1030580003F02FF9D5E90D10D5F830211790686DD8
:103068001690D5F880000C90D5F884000890D5F813
:1030780088000790D5F8E0001490D5F8E800139080
:10308800D5F8FC001290D5F814011190D5F8040178
:103098000F90D5F808010E90D5F80C011090D5F8CE
:1030A8001C0115910F210D904FF470400B92A2F85E
:1030B8008C01A2F88E11D5F83461A6F88C01A6F817
:1030C8008E11D5F838210192A2F88C01A2F88E1140
:1030D8004FF40072D5F83C51A5F88C01A5F88E1173
:1030E8001BA906982062059860620498A06203985C
:1030F800E062029820631A98C4E9049AC4E90000BF
:10310800C4E902000A98A0610998E06104F58E708C
:1031180007F05BFADDE9181005F16002C4E9C71091
:1031280004F1B801089805F5907CC4F8B40005F1DD
:10313800C00E0798C4E9285206F1C00281E80109C7
:1031480004F194080199C4E91D6601F5907301F131
:10315800C00088E8290006F1600306F590750C9810
:10316800C4F8B00001F16000C4E91F320B9BC4E948
:10317800231003F59070C4E9215103F1C00103F154
:103188006002C4E91B109BA9159860631798A06397
:103198001698E06314982064139860641298A064E9
:1031A80011980F9EE064109866650E9E206504F1E4
:1031B800C400A6650D9EC4E919324822C4E92AEC68
:1031C800C4E9176307F001FAADAB04F5867C0FCBB1
:1031D8008CE80F000DF5317DBDE8000FF0BDF0B5AE
:1031E80003AF2DE9000F81B080460C6800F096F817
:1031F800D8F800603168451AB5F1FF3F04DDE80FE3
:1032080001B0BDE8000FF0BDD8F80400D0F800B058
:10321800DBF800000028F2D1D4E9001009688847DB
:103228000446DBF800008946366800281EBFC168DE
:10323800DBF8040088470020D8F808A0CBF8100075
:103248008BF80C00CBE90049CBF8086005F006FDC7
:10325800BFF35F8FDAF8001091B38A68DBF808C013
:10326800BCEB02022AD4D1F810E0BEF1000F41D025
:10327800DEF80820BCEB02023AD47346196971B330
:103288008A68BCEB02022CD4D1F810E0BEF1000F22
:1032980030D0DEF80820BCEB020229D4DEF810207A
:1032A80012B39168BCEB010120D413697BB3996810
:1032B800BCEB0101E2D59E46114619E0CBF810108F
:1032C800CAF800B005F0D5FCD8F80C00C0F800B07A
:1032D80000F03DF8E80F01B0BDE8000FF0BD194659
:1032E80008E08E46194603E0714603E071469646AB
:1032F800CBF810E0C1F810B005F0BBFCD8F80C0012
:10330800C0F800B0E80F01B0BDE8000FF0BD1146ED
:10331800F0E745F2DC00C2F2000070474EF2100000
:10332800CEF200000068C00345F2D800C2F20000E7
:103338000AD5BFF35F8F50E8001F013140E8001243
:10334800002AF8D1BFF35F8F0068704770474EF6C8
:1033580004504FF08061CEF20000016070474EF2D9
:103368001000CEF200000068C00358BF704745F255
:10337800D800BFF35F8FC2F2000050E8001F013190
:1033880040E80012002AF8D1BFF35F8F70477047FA
:10339800014640F24430C2F22000704700477047AF
:1033A800006805F0FCBC80B56F468AB0019044F215
:1033B800B820C2F200000021D0E84F2FC0E8431F18
:1033C800002BF9D162B348F26C10C2F20000016818
:1033D800481E18BF0120012988BF4FF0FF30411C4B
:1033E8001CBFC0B200281BD1002040F25431069007
:1033F8000120039040F2C832059008A8049041F2D9
:10340800F100C0F20000C2F22001099001A8089062
:1034180002A80291C2F220020121002302F030FD2D
:1034280000F001F8FEDE80B56F4648F2481005212D
:10343800C4F21F004FF2800301603821C0F8F01178
:103448004CF26C00C4F20A004DF2801E01684AF288
:10345800003CC0F2FA23C0F6F00E21F0080101602A
:103468004CF28400C1F2E11CC4F21B0050F8801C2D
:1034780041F0080140F8801C082101601A46013A11
:10348800FDD141601A46013AFDD101601A46013A60
:10349800FDD141601A46013AFDD101601A46013A50
:1034A800FDD141601A46013AFDD101607246013AE8
:1034B800FDD141607246013AFDD101607246013A80
:1034C800FDD141607246013AFDD101607246013A70
:1034D800FDD141607246013AFDD101601A46013AB8
:1034E800FDD141601A46013AFDD101601A46013A00
:1034F800FDD141601A46013AFDD101601A46013AF0
:10350800FDD141601A46013AFDD16246013AFDD12A
:10351800B3E7F0B503AF4DF8048D82B004682168B5
:1035280079BBD0E901124FF0FF33C0682360096806
:10353800D0F8008004F12000167803F0E0F86D461A
:10354800CDE90001284603F0F4F8284603F039F9DC
:10355800002E18BF01262846314603F03EF92846BA
:10356800012103F0FEF82846414603F008F92846F1
:1035780003F0EBF820680130206002B05DF8048B9E
:10358800F0BD40F24040C2F2200005F0B5FBFEDE7F
:1035980070477047084640F2F861C2F220011222D3
:1035A80006F047BAF0B503AF2DE9000FB3B045F206
:1035B800EC01044648F23410C2F20001C2F20000E5
:1035C800016001208DF8100005F06EFB46F2000541
:1035D80041F23810C2F200052918BFF35F8F51E895
:1035E800000F40F0004241E80023002BF7D1B0F172
:1035F800FF3FBFF35F8F40F3138245F21C50012257
:10360800C2F20000BFF35F8F00F5C070D0E84F1F13
:10361800C0E8432F002BF9D103940029BFF35F8F33
:1036280040F00A8245F21C504FF4C071C2F200000B
:1036380002F05FFFCDE9300149F20000C4F20D004D
:1036480005F586512F900020C4F22E000DF19C0B39
:103658002E9041F2381028442D9006204FF0000A91
:10366800CDE92A0105F58051299101212C904FF0CF
:103678000109CDE927505846ADF8C8A003F0D5F8A0
:10368800BBE87E000DF1140808F104007EC09BE839
:103698007E007EC040469DF810108DF84890CDF809
:1036A80014A004F0BEF803999DF848002A9104A9D3
:1036B800299126A9CDF898A0CDE9278118B127A886
:1036C800FFF727FF0DE005F0E3FA044605F0D6FA08
:1036D80005F0EAFA27A8FFF71CFFE00708BF05F086
:1036E800CFFA48F2000AB8E85C00C2F2000A0AF110
:1036F8000C0B40F2014158465CC0B8E87C007CC025
:1037080098E87C007CC000200322AAF804104FF03F
:10371800FF31CAF808100821CAF844008023CAF803
:103728000000FF20CDE900218021029058460022A8
:1037380004F08CFA0D46DAF80810C00701F101010F
:10374800CAF8081040F08481DAF80000002840F038
:1037580086819AF8046000200029CAF8000006F162
:1037680001028AF8042040F054814FF0FF31022210
:10377800CAF808104021CDE90021002102905846DE
:103788000022002304F062FA0C46DAF80810C00799
:1037980001F10101CAF8081040F06881002940F0E1
:1037A80038814FF0FF304FF04009CAF80800022076
:1037B8004FF00008CDE900095846802100228023F7
:1037C800CDF8088004F042FADAF80820C00702F1C0
:1037D8000102CAF8082040F04C8148F238104FF432
:1037E8000073C2F20000002A80F8261040F2FF3170
:1037F80080F82D600AF14406A0F80F104FF0080178
:10380800818181804FF4FA51A0F82E8080F82C80B5
:10381800A0F82730A0F824900662A0F81B30847620
:10382800A0F8189046618573866080F8068001606C
:1038380040F0EF804FF0FF304021CAF80800002028
:10384800CDE900010021029058460122002304F02E
:10385800FDF98946DAF80810C00701F10101CAF834
:10386800081040F01A81002940F0D3804FF0FF3053
:103878004021CAF808000020CDE90001802102900B
:1038880058460122802304F0E1F98846DAF8081046
:10389800C00701F10101CAF8081040F00581DAF803
:1038A8000000002840F014814FF0FF300029CAF8CA
:1038B800000040F01481CAF80800584604F04AFA9B
:1038C800DAF808000130CAF80800C0F00F814FF09C
:1038D800FF3005ADCAF80800E81CBFF35F8FCAF8CF
:1038E80044B08021BFF35F8F06F06BFE58468121FC
:1038F80003F0EBFF5846012103F0E7FF5846822109
:1039080003F0E3FF5846022103F0DFFF5846832106
:1039180003F0DBFF5846032103F0D7FF5846842104
:1039280003F0D3FF5846042103F0CFFF5846852102
:1039380003F0CBFF5846052103F0C7FF5846862100
:1039480003F0C3FF5846062103F0BFFF58468721FE
:1039580003F0BBFF5846072103F0B7FF48F24804BD
:10396800DDE92701C2F20004BDF8A4206281BDF898
:103978009820C4F806109DF89A10C4F8020004F1C3
:103988002100A4F815208322E175294606F017FEC8
:103998004FF0806140F20A72C4E937B13221C4F8AD
:1039A800D6100221C4F20001C2F22002C4F8D210DB
:1039B8001021A4F8D01045F62401C2F2DD710020D0
:1039C800C4F8CC100921C4E92F21402117F8D52CBF
:1039D80037F8D73C84F8E400C4F8C400C4E92B00E5
:1039E800C4F8B400C4F8A400A4F81F0084F81E802A
:1039F800A183A661A4F8130084F812902182E660DE
:103A08002080A4F8E53084F8E72033B0BDE8000F43
:103A1800F0BD40F2E850C2F2200005F06DF9FEDE7C
:103A280040F2504040F2CC42C2F22000C2F22002E2
:103A38001F2105F097F9FEDE40F21C5040F27C523F
:103A4800C2F22000C2F22002202105F08BF9FEDE2E
:103A580040F2E8608DF81450C2F220000FE040F206
:103A68002860C2F2200005F047F9FEDE8DF8144008
:103A780001E08DF8141040F2D860C2F2200040F244
:103A88003863009040F2C86005AAC2F22000C2F272
:103A980020030F2105F06CFAFEDE40F2B8608DF8C5
:103AA8001490C2F2200005E040F2A8608DF814805E
:103AB800C2F2200040F23863009040F2DC4005AAD0
:103AC800C2F22000C2F22003202105F051FAFEDEE6
:103AD80040F21860C2F2200005F00EF9FEDE40F256
:103AE8000860C2F2200005F007F9FEDE40F2F85047
:103AF800C2F2200005F000F9FEDEF0B503AF2DE9B3
:103B0800000F81B045F2E4014FF0010CC2F2000150
:103B1800BFF35F8FD1E84F2FC1E843CF002BF9D116
:103B2800BFF35F8F002A01BF48F20001C4F20D0104
:103B38000022C4F22F0201BF02F5542C02F5502EC8
:103B480002F54C28A1F5004401BFA1F5003501F5A7
:103B5800F61601F5F413C0E9683601BFC0E96A54E6
:103B6800C0E96C8EC0E96EC101F5005E01BF01F5C8
:103B7800805640F2040CC4F22E0C01F5021401BF69
:103B88000CF5FE7501F5004300F5C07888E83800AB
:103B980001BF00F5C67383E81210C0E9666EA1F58F
:103BA800404C01BF01F5881E01F5861801F5841403
:103BB80001F5821301BF01F5003602F51025C0E9B1
:103BC800585600F5B47501BF85E81A41C0F87CC1A4
:103BD800A1F5804C02F51C2E01BF02F5182802F54C
:103BE8001424A1F5E03301F5282601BF01F5EE15EF
:103BF800C0E9505600F5A47585E8184101BFC0E931
:103C0800562C02F5782802F5742902F5702401BFB4
:103C180002F56C234CF2000CC4F2070C0CF50046BC
:103C280001BF01F5E03E01F58E15C0E9485EC0E927
:103C38004A6101BF00F5987585E81802C0F83C8113
:103C480001F5482801BF01F5442901F5402A01F58D
:103C58003C2B01F5382301BF01F5342401F530254B
:103C680001F52C26C0E9406501BFC0E94243C0E91F
:103C780044BAC0E9469802F5302801BF02F52C295C
:103C880002F5282A02F5242B02F5861301BF02F556
:103C9800841402F5821502F58016C0E9386501BF63
:103CA800C0E93A43C0E93CBAC0E93E9801F5F018CA
:103CB80001BF01F59219A1F5503AA1F5403BA1F5D4
:103CC800303301BF01F5901401F58C1501F58A1602
:103CD800C0E9306501BFC0E93243C0E934BAC0E980
:103CE800369844F2000B01BFC4F2002B0BF50049D3
:103CF8000BF5804A4FF0844801BF01F56C2601F5A9
:103D0800682401F56425A1F5C03301BFC0E9283551
:103D180000F1A80383E85009C0E92EA901BF01F505
:103D2800602801F5E61901F5E81AA1F5203601BF6A
:103D38000BF5E03301F5582401F55425C0E920546A
:103D480001BF00F1880484E84804C0E9259EC0F852
:103D58009C8001BFA1F5103E01F5FE1801F5001980
:103D680002F5642A01BF02F5602302F55C2602F51C
:103D7800582501F5A03401BF00F1600B8BE87000F5
:103D8800C0E91B3AC0E91D9801BFC0F87CE001F505
:103D9800803E02F540480CF5804901BF01F5804A94
:103DA80001F5F21344F20806C4F2090601BF06F150
:103DB800100506F10804C0E91064C0E9125301BFF8
:103DC800C0E914A9C0E9168E0CF5C03E01F51038FB
:103DD80001BF01F5801901F57C2401F5782302F56E
:103DE8007C2601BF02F54825C0E9085600F12805E0
:103DF80085E8180201BFC0E90D81C0F83CE002F572
:103E0800442E02F50C2601BF01F5D21501F5242434
:103E180002F54022A1F5803301BFA1F5A031C0E928
:103E28000013C0E9022C103001BF80E8704001B0D7
:103E3800BDE8000FF0BD40F2137040F2A872C2F264
:103E48002000C2F22002352105F05BF8FEDEF0B555
:103E580003AF4DF804BD0E4600211546044602F096
:103E680021FA284640F2E24102F04AF9304602F0CF
:103E780059F840F25C552146C2F220050022284636
:103E8800366802F075F8A81C2146002202F070F886
:103E9800281D2146002202F06BF8A81D21460022A9
:103EA80002F066F805F108002146002202F060F8E9
:103EB80005F10A002146002202F05AF805F10C002B
:103EC8002146002202F054F805F10E002146002296
:103ED80002F04EF805F110002146002202F048F8E1
:103EE80005F112002146002202F042F805F1140003
:103EF8002146002202F03CF805F116002146002276
:103F080002F036F805F118002146002202F030F8D8
:103F180005F11A002146002202F02AF805F11C00DA
:103F28002146002202F024F805F11E002146002255
:103F380002F01EF820684169890107D5416921F01E
:103F480000714161204602F09EF920684169012212
:103F580021F0605141612068816962F30D3181610E
:103F6800204602F090F92068416941F000714161F2
:103F7800204602F088F94FF48050306064203060A9
:103F88004FF4005070603068002809D43068002869
:103F98005CBF3068002803D43068B0F1FF3FF2DC22
:103FA80020680122016962F302010161204602F0E2
:103FB8006AF92068416921F4E0514161204602F024
:103FC80062F92068816941F4402181612068416972
:103FD80021F000714161204602F055F9206840F255
:103FE8001825C2F220050022416941F4407141615F
:103FF8002846214601F0BCFFA81C2146002201F0FA
:10400800B7FF281D2146002201F0B2FFA81D214656
:10401800002201F0ADFF2068022640F22825002288
:10402800C2F22005816B66F3D84181632068816BF9
:1040380041F4802181632846214601F099FFA81C9C
:104048002146002201F094FF281D2146002201F09C
:104058008FFFA81D2146002201F08AFF206840F248
:10406800B8750322C2F22005816966F305118161E2
:104078002068816962F39C6181612846214600229B
:1040880001F076FFA81C2146002201F071FF281DCF
:104098002146002201F06CFFA81D2146002201F0F4
:1040A80067FF05F108002146002201F061FF206842
:1040B800172240F2E475C2F22005C16962F30501D6
:1040C800C16120680022C16941F04001C1612846F0
:1040D800214601F04DFFA81C2146002201F048FFAF
:1040E800281D2146002201F043FFA81D2146002279
:1040F80001F03EFF05F108002146002201F038FFDB
:1041080005F10A002146002201F032FF05F10C00FA
:104118002146002201F02CFF05F10E002146002265
:1041280001F026FF206840F2F475C2F22005032250
:10413800416A41F0400141622068416A66F3050125
:1041480041622846214601F013FFA81C214603229C
:1041580001F00EFF281D2146032201F009FFA81DCA
:104168002146032201F004FF05F10800214603223D
:1041780001F0FEFE05F10A002146032201F0F8FED7
:1041880005F10C002146032201F0F2FE05F10E00B4
:104198002146032201F0ECFE05F11000214603221E
:1041A80001F0E6FE05F112002146032201F0E0FECF
:1041B80005F114002146032201F0DAFE05F116008C
:1041C8002146032201F0D4FE05F1180021460322FE
:1041D80001F0CEFE05F11A002146032201F0C8FEC7
:1041E80005F11C002146032201F0C2FE05F11E0064
:1041F8002146032201F0BCFE05F1200021460322DE
:1042080001F0B6FE05F122002146032201F0B0FEBE
:1042180005F124002146032201F0AAFE05F126003B
:104228002146032201F0A4FE05F1280021460322BD
:1042380001F09EFE05F12A002146032201F098FEB6
:1042480005F12C002146032201F092FE05F12E0013
:104258002146032201F08CFE05F13000214603229D
:1042680001F086FE05F132002146032201F080FEAE
:1042780005F134002146032201F07AFE05F13600EB
:104288002146032201F074FE05F13800214603227D
:1042980001F06EFE05F13A00214603225DF804BBE9
:1042A800BDE8F04001F064BE80B56F4601F0C0FB88
:1042B80080BD80B56F464EF20C1C4FF4003ECEF226
:1042C800000C44F2BC22CCF880E0C2F20002BFF33A
:1042D8005F8FD0E900318068C2E900319060BFF398
:1042E8005F8FCCF800E1CCF800E080BDF0B503AFFB
:1042F8004DF8048D86B045F2E808C2F20008D8F8F7
:10430800000028B106B05DF8048BBDE8F040004716
:1043180044F2BC20C2F200000068062832D101F045
:104328003EFD01F03BFD039045F2EC00C2F20000B7
:10433800012200F21240BFF35F8FD0E84F1FC0E8A0
:10434800432F002BF9D10029BFF35F8F58D145F2D5
:10435800EC044FF48061C2F20004204605F05DFFD2
:1043680004F07CFC0646204600F098FA03A8FFF704
:1043780019F943F29570C0F2000000F084FB05467D
:10438800304635E001F00BFD01F008FD029045F2E2
:10439800EC00C2F20000012200F21240BFF35F8F6E
:1043A800D0E84F1FC0E8432F002BF9D1BFF35F8F30
:1043B800C1BB45F2EC054FF48061C2F20005284606
:1043C80005F02BFF04F04AFC44F2BC210446C2F27B
:1043D8000001284601F0B6FA08BB02A8FFF7E2F888
:1043E80043F29570C0F2000000F04DFB05462046F0
:1043F80004F03FFCC8F8005006B05DF8048BF0BD2F
:1044080049F20000C4F20D0005900020C4F22E000D
:10441800CDE9030040F6D800C2F2200010E02046A3
:1044280004F027FC49F20000C4F20D0005900020BA
:10443800C4F22E00CDE9030040F6C800C2F2200005
:1044480040F65C03009040F6300003AAC2F2200058
:10445800C2F220032B2104F08BFDFEDEFEE7F0B54F
:1044680003AF4DF8048D8C46816881B3C3684169F8
:104478008B4249D20269D0F818E0D45C0134D45494
:104488000EF102038B421ED80EF58074A14238BF8C
:104498000C469C4248D3E41A052C14D39CF80640D9
:1044A800BCF80450D45413440EF107049CF8086077
:1044B8008C429CF807805E704FEA15269D7083F841
:1044C8000480DE7007D902205DF8048BF0BD072058
:1044D8005DF8048BF0BD8E451ED2072302F80E301E
:1044E8000EF101038B423FBF0521D154846108209E
:1044F8003CBF5DF8048BF0BD40F66C12C2F220029E
:10450800184604F015FDFEDE40F67C12C2F22002C9
:10451800184604F00DFDFEDE40F65C127046C2F24D
:10452800200204F005FDFEDE40F64C121846C2F2E9
:104538002002214605F01BFBFEDE00207047704775
:10454800082070477047F0B503AF4DF8048D054655
:10455800507A012802BF1646107A012802D05DF869
:10456800048BF0BD95F82C008846748803F03EFF54
:10457800C0B28442F3D1B079212804BFB08807289B
:1045880030D0B8F8000000F00D000428E7D1D8F8C2
:104598000C000921A8F800100068BFF35F8FA8B1CC
:1045A80098F81210012203F00BFED8F818000068E2
:1045B800BFF35F8F00281FBF98F81E1001225DF817
:1045C800048BBDE8F04018BF03F0FABD40F65C402C
:1045D80040F6E042C2F22000C2F22002222104F09A
:1045E80090FCFEDEB8F800000428B8D1B8F8060040
:1045F800002329796A790728C8F8AC30AB792E6886
:104608004FF00105A8F80050C8F8246088F8283051
:1046180088F8292088F82A1028BF0720C8F8B00091
:1046280040465DF8048BBDE8F04000F0C5BAF0B52F
:1046380003AF4DF8048D84B00546507A012802BFB7
:104648001646107A012803D004B05DF8048BF0BD3B
:1046580095F82C008846748803F0C8FEC0B28442DE
:10466800F2D1B07988B1202814D0222845D13078E9
:10467800B8F8001000F0010285F82E20C0F34000C1
:1046880085F82F000629DFD11FE0B8F800000628BA
:10469800DAD11AE0D8F8B000812860D206282CD9DF
:1046A80098F82800D8F82410296001F07BFB98F8C6
:1046B8002910A871084601F07AFB98F82A20B8F862
:1046C800001068712A710629BED1D8F8180001684F
:1046D800BFF35F8FB9B398F81E20002040F605237A
:1046E800009002A8C2F2200303F0FCFB0820A8F8FF
:1046F800000004B05DF8048BF0BDB8F8000000F0CD
:104708000D000428A0D1D8F80C000921A8F8001041
:104718000068BFF35F8FB0B198F81210012203F060
:104728004FFDD8F818000068BFF35F8F00281FBF3F
:1047380098F81E10012204B05DF8048B1CBFBDE878
:10474800F04003F03DBD40F65C4040F6E042C2F266
:104758002000C2F22002222104F0D3FBFEDE40F644
:10476800F0128021C2F2200205F0E1F9FEDEF0B578
:1047780003AF2DE9000B84B090F82C60814600252A
:104788000220CDE900050C460846314602220223E4
:1047980003F09BFFC1B208296DD1204631460222A1
:1047A8000223009503F0E7FFC1B2082963D140F660
:1047B80000222046C2F220022421032303F022FE15
:1047C800C1B2082957D140F603222046C2F220027E
:1047D8002421022303F016FEC1B208294BD130462A
:1047E80003F004FE99F82D800646404603F0FEFDCE
:1047F80007F81C0C0620A7F11E0207F81E0C20461D
:104808002421032307F81D6C03F0FCFDC1B208291D
:1048180031D1404603F0EAFD07F8190C0120A7F151
:104828001B0227F81B0C20462421032303F0EAFD72
:10483800C1B208291FD109F108012046FFF70FFE70
:10484800C1B2082917D100204146009020460A220B
:10485800002303F090FFC1B208290CD109F120010F
:104868002046FFF7FCFDC1B2082904D109F1140163
:104878002046FFF7F4FD04B0BDE8000BF0BDD0B54D
:1048880002AF82B00446684601F096FADDE90001FD
:10489800C4E900010020E08502B0D0BD45F2005116
:1048A800C2F2000188600120BFF35F8F0870704773
:1048B800F0B503AF2DE9000716688946144680460F
:1048C80006F211450121BFF35F8FD5E84F0FC5E808
:1048D800421F002AF9D1BFF35F8F18B10120BDE84C
:1048E8000007F0BDD6F80004BFF35F8FD6F80414B4
:1048F800BFF35F8F884204D2C24311EB020A0BD187
:1049080078E0B0F5806F05D1012973D9A1F1010ACA
:10491800002001E0C0F5806A4D46CA4538BF5546BB
:1049280029183044BFF35F8FC6F80C1441462A4655
:1049380005F045FE96F81104BFF35F8F68B3D6F80B
:10494800000406F20C41BFF35F8FBFF35F8F51E89D
:10495800002F41E80023002BF9D1BFF35F8FB0F59A
:10496800806FD6F80824BFF35F8FD6F80C14BFF316
:104978005F8F01D0814203D3914205D94FF4806003
:10498800BFF35F8FC6F80804BFF35F8FC6F8001443
:104998000020BFF35F8F86F81104CA456FD22468E0
:1049A80008EB0501A9EB0502012304F21145BFF349
:1049B8005F8FD5E84F0FC5E8463F002EF9D1002894
:1049C800BFF35F8F7FF48AAFD4F80004BFF35F8F23
:1049D800D4F80434BFF35F8F984203D2C6439B19BF
:1049E80012D107E0B0F5806F0CD1012B02D9013B41
:1049F800002009E000200021BFF35F8F2970BDE887
:104A08000007F0BDC0F58063934238BF1A461318FB
:104A18002044BFF35F8FC4F80C3405F0D0FD94F840
:104A28001104BFF35F8F50B3D4F8000404F20C41B3
:104A3800BFF35F8FBFF35F8F51E8002F41E800237A
:104A4800002BF9D1BFF35F8FB0F5806FD4F808243D
:104A5800BFF35F8FD4F80C14BFF35F8F01D081428E
:104A680003D3914205D94FF48060BFF35F8FC4F838
:104A780008040320BFF35F8FC4F80014BBE70320CA
:104A8800BDE80007F0BD7047F0B503AF4DF804BDB1
:104A980086B0044608880D46411E032928D30528F8
:104AA80026D0072836D1D5F8AC00D5F80630698964
:104AB8008128D5F80220ADF80C10CDE9012373D276
:104AC800E9680968BFF35F8F002961D0C0F18003EE
:104AD800AA7C2844009300F1240304A803F0B9FA3F
:104AE8009DF8100000283ED09DF8110008BB34E066
:104AF800E8680168BFF35F8F002949D0AA7C40F6B7
:104B0800052304A80026C2F22003009603F0A1FAA8
:104B18002E8022E0E8680168BFF35F8FC1B30020F0
:104B2800AA7C40F60523009004A8C2F2200303F0F3
:104B380090FAE868092129800068BFF35F8F38B3CD
:104B4800A97C012203F03CFBA8690068BFF35F8FD2
:104B5800F0B1A97F012203F033FB0420607206B094
:104B68005DF804BBF0BD0598D5E92B120844C5F8DB
:104B7800AC009042F1D3DDE901010623BDF80C2019
:104B88002B8020606160228106B05DF804BBF0BD17
:104B980040F65C4040F6E042C2F22000C2F2200239
:104BA800222104F0AEF9FEDE40F668228021C2F22E
:104BB800200204F09CFFFEDEB0B502AF84B00446CC
:104BC800D0E92951D0F8AC00D4F8B0C0002DA38B9F
:104BD800AE46ACEB000208BF04F1240E9A4238BF7F
:104BE8001346002D03EB000C08BF80219C4525D3FC
:104BF8008C452BD8A1690968BFF35F8F71B3A27F79
:104C080000930EEB000302A803F06CF99DF808006E
:104C180008B104B0B0BD0398D4E92B120144C4F81C
:104C2800AC109142F5D30021A28BC4F8A410032143
:104C3800904208BF0221218004B0B0BD40F688220E
:104C48006146C2F2200204F092FFFEDE40F688229E
:104C58006046C2F2200204F06AFFFEDE40F65C40C5
:104C680040F6E042C2F22000C2F22002222104F003
:104C780048F9FEDED0B502AF0446008800F00D000A
:104C8800042815D1E068092121800068BFF35F8FEF
:104C980080B1A17C012203F093FAA0690068BFF3F8
:104CA8005F8F38B1A17F012203F08AFA0820D0BDB6
:104CB8000720D0BD40F65C4040F6E042C2F220003A
:104CC800C2F22002222104F01CF9FEDEF0B503AF87
:104CD8002DE9000782B01D46904689468246D600D7
:104CE8000C466EB1F4E802012A464B6A51469847D1
:104CF800BAF80000083E00F00D000428F1D033E0B7
:104D0800687AA8B3BAF8000000F00D0004282BD187
:104D1800DAF80C000921AAF800100068BFF35F8FC9
:104D2800B0B19AF81210012203F04AFADAF8180022
:104D38000068BFF35F8F00281FBF9AF81E1001227A
:104D480002B0BDE800071CBFBDE8F04003F038BA68
:104D580040F65C4040F6E042C2F22000C2F2200277
:104D6800222104F0CEF8FEDE02B0BDE80007F0BD57
:104D7800297AA879A1B1012930D0022908BF0028D1
:104D8800C0D16988DAF8DC0001F08F0103F08DFAF0
:104D9800BAF800100429B5D1AAF8240000203BE095
:104DA800002844D006285ED0082804BFBAF80000BE
:104DB8000428A7D1BAF8061001229AF8E230002098
:104DC800AAF80020002918BF0121CAE92B01981E62
:104DD800B0FA80F040098AF8240040E0A0B10A281F
:104DE80004BFBAF8000004287FF48CAFBAF80610A4
:104DF800002001228AF82400AAF80020002918BF00
:104E08000121CAE92B012AE0BAF8000004287FF43E
:104E180079AF0020AAF82400BAF806200121AAF8E0
:104E28000010022A28BF0222CAE92B0217E0BAF8AA
:104E3800000004287FF466AF9AF8E00001239AF88E
:104E4800E1100022BAF80660AAF8003041EA4000F2
:104E5800022E28BF0226CAE92B26AAF824005046AB
:104E6800FFF7AAFE4EE70AF1B40049464246534608
:104E7800009500F0BFF845E7F0B503AF4DF8048D95
:104E880082B01D460E468046D4006CB1F6E8020199
:104E98002A460B6A41469847B8F80000083C00F0DB
:104EA8000D000428F1D033E0687AA8B3B8F8000000
:104EB80000F00D0004282BD1D8F80C000921A8F81F
:104EC80000100068BFF35F8FB0B198F8121001228C
:104ED80003F076F9D8F818000068BFF35F8F002850
:104EE8001FBF98F81E10012202B05DF8048B1CBF8A
:104EF800BDE8F04003F064B940F65C4040F6E0429B
:104F0800C2F22000C2F22002222103F0FAFFFEDEE4
:104F180002B05DF8048BF0BD2A7AA879298862B1BD
:104F2800012A1BD0022AC1D101281ED0032808BF9C
:104F38000029BBD1698801221CE001380828B5D8AE
:104F4800DFE800F0060521052A0505053400ADE770
:104F58000129ABD1B8F8000000211AE00B2808BFDE
:104F68000029A3D1B8F800002EE000297FF49EAFF5
:104F780069880022D8F8DC0001F08F0103F020F9DD
:104F8800B8F8000020E001297FF490AFB8F80000DD
:104F9800012188F8E01017E0481E80B27F28BFF48E
:104FA80085AFD8F8DC0002F090FE08E021B10129B5
:104FB8007FF47CAF022103E098F8E200A8B1012158
:104FC800B8F8000088F8E21006287FF46FAF40F6C2
:104FD800052208F11801C2F220026846002300F0F9
:104FE80001FD0820A8F8000060E74046FFF742FEF0
:104FF8005CE7D4D4F0B503AF2DE9000F8FB00446B9
:10500800B86816460D469846018902684068ADF8AA
:105018000C10CDE9012001A803F0E5F94FF0FF32AB
:1050280052FA80F00E2800F20581DFE810F00F0038
:1050380032006500030103010301030103010301B9
:10504800030103010301030103019300B8F8000001
:10505800042840F0A58007AD08F124018022B8F8A3
:105068000660284603F0C3F92846214603F017FADC
:10507800C0B2082840F0948007A803F0C1F980283E
:1050880000F2DE800021B04238BF0646C8E92B1680
:1050980010E1B8F80000042840F082800DF11C09E6
:1050A80008F124018022B8F806A0484603F09FF9C9
:1050B8004846214603F08DFAC0B2082870D186B15F
:1050C80005EBC60607ACD5E90001CA68214690473A
:1050D800C0B2082864D1204603F0E3FA0835B54287
:1050E800F1D107AC204603F0DFFA204603F088F937
:1050F800802800F2CA80D7E0C8B2032854D8DFE875
:1051080000F002676B93B8F80000042848D107AC98
:1051180008F124018022B8F80650204603F067F908
:1051280040F2094004AAADF81000204603210223EA
:1051380003F068F9C0B2082832D107A803F060F973
:10514800802800F2A2800021A84238BF0546C8E99D
:105158002B15AFE0B8F80000042821D10DF11C0987
:1051680008F124018022B8F806A0484603F03FF968
:1051780004AC4946204603F049FC204603F04AFCAB
:10518800C0B208280CD104ACF600002E75D0F5E8A2
:1051980002010A6921469047083EC0B20828F4D0A7
:1051A8000FB0BDE8000FF0BD084603F01FF9BDF8C9
:1051B80006A08146F600EEB3F5E8020152464B69B7
:1051C80049469847083E0028F5D004468B460AE031
:1051D800201D24682CB92DE004F10C000834246843
:1051E80044B3D0F800B0B8F800000428D8D107AD0F
:1051F80008F124018022B8F80690284603F0F7F851
:10520800284621465A4603F040FBC0B20828C7D1B9
:1052180007A803F0F5F8802837D80021484538BF9B
:105228008146C8E92B1945E004F1140010342468BC
:10523800002CD6D1B8F8000000F00D000428AFD13A
:10524800D8F80C000921A8F800100068BFF35F8F98
:10525800D0B398F81210012202F0B2FFD8F8180063
:105268000068BFF35F8F78B398F81E10012202F030
:10527800A7FF0FB0BDE8000FF0BD04A803F0A2FC23
:1052880007A803F0BDF880280ED90920444624F861
:10529800180B08F10C0000F073FB204600F070FBBF
:1052A8000FB0BDE8000FF0BD0021504538BF824661
:1052B800C8E92B1A0120A8F800004046FFF77CFC3B
:1052C8000FB0BDE8000FF0BD40F65C4040F6E0428C
:1052D800C2F22000C2F22002222103F012FEFEDEFA
:1052E800F0B503AF2DE9000F8DB0D0F8DC400646CD
:1052F80008A889469046214603F017F896F8E20078
:10530800BDF82050032816D1002D4FF0000018BF1B
:10531800032D03D10DB0BDE8000FF0BD204603F00A
:1053280003F896F8E300042800F08981042186F840
:10533800E20086F8E310DFE805F0210326492100A2
:10534800D6F8DC0002F03BFD00204FF48061B8F194
:10535800000F86F8E40086F8E000A6F8E210308036
:105368000CD009EBC804A9F1080555F8080F6968BD
:105378008969884705F10800A042F6D100200DB0E0
:10538800BDE8000FF0BDBDF82200BDF82410BDF83F
:1053980026200590084340EA020B079106925FEA2F
:1053A800CB70CDF8108000F0C1800798C00740D0BE
:1053B8003088013807282ED8DFE800F00418272D98
:1053C8002D2D2D393046FFF7F7FB32E0D6F8DC00FB
:1053D80002F0AAFF96F8E20086F8E300032086F8B8
:1053E800E20000200DB0BDE8000FF0BD40F6052238
:1053F80006F118010AA8C2F22002002300F0F2FA0E
:105408009DF82800A8B9032012E006F10C0000F06E
:10541800D0FA05200CE00920344624F8180B06F1D0
:105428000C0000F0ADFA204600F0AAFA01E00020D6
:1054380030800698C00709D10598C00774D00AA81B
:105448003146FFF721FB9DF8310059E0354655F804
:105458000C0F0168BFF35F8F002900F0FC8005F195
:1054680018048020B27C00900AA8234602F0F1FDBF
:105478009DF8280018B19DF8290060B954E00B9AEE
:10548800812A80F0F4800AA8214602F08EFF9DF858
:105498003100042809D1092026F8180B284600F005
:1054A8006FFA304600F06CFA3EE09DF82E0002904C
:1054B800BDF82C0003902846BDF830A09DF82F8039
:1054C8000A9C00F076FAB8F1000F00F08F80029A7B
:1054D80004200399A6F80AA086F809803272F180A0
:1054E800C6F802403080ADF830A08DF82F808DF8D6
:1054F8002E20ADF82C100A944FEA1A20DDF81080FF
:10550800042811D09DF82F0040B180280CD10AAB97
:10551800304649464246FFF7D9FB05E00AAB30461C
:1055280049464246FFF7A8FC2BF0010BBBF1000FE0
:10553800CDF80C9045D00499002952D00398012643
:105548004FF0020800EBC10AA0F1080906984C4682
:1055580018EA000F0AD054F8080F61688A6A3146C1
:10556800904704F108005045F5D10EE005984C46E7
:1055780018EA000F09D054F8080F6168CA6A314662
:10558800904704F108005045F5D1079818EA000F34
:105598000CD066F07F044D4655F8080F69680A6B11
:1055A8002146904705F108005045F5D12BEA080B34
:1055B8005FEA0B4005D0701C0F2E4FEA48080646DC
:1055C800C4D3049969B1039800EBC104A0F108059C
:1055D80055F8080F6968C969884705F10800A042AD
:1055E800F6D101200DB0BDE8000FF0BDDDE90212D3
:1055F800BAB1802A3FF64FAF0020A6F80AA0C6E944
:105608002B022BF0010B707207203172F280C6F862
:1056180002403080BBF1000FCDF80C907FF48BAFC7
:10562800CFE70620ADF830A030800020C6F8B000E3
:105638008DF82F008DF82E10ADF82C005BE740F6A2
:10564800982040F61432C2F22000C2F220021C2137
:1056580003F088FBFEDE40F65C4040F6E042C2F212
:105668002000C2F22002222103F04BFCFEDE40F6AD
:1056780078231046C2F2200380211A4604F057FA14
:10568800FEDEF0B503AF4DF804BD82B000228029DC
:10569800019203D28DF80410012434E0B1F5006FB3
:1056A80009D202240A4664F39F128DF80520C0220D
:1056B80042EA911125E002220B4662F39F13B1F5ED
:1056C800803F0DD28DF806308B0962F39F13E022DC
:1056D80042EA11318DF805308DF80410032412E0E8
:1056E8008DF807308B0962F39F138DF806300B0B8A
:1056F800042462F39F13890C1E228DF8053062F38F
:10570800DF018DF80410066803F0A8FA0546B068B2
:10571800B8B94FF0FF3006F10C02B06001A821467D
:10572800FFF7C6F80446B0680130B060284603F0B9
:10573800A0FAE0B2033818BF012002B05DF804BB3C
:10574800F0BD40F6C830C2F2200003F0D5FAFEDE04
:105758000A4640F62431C2F2200103F0EABD704740
:10576800F0B503AF2DE9000748F26C12D1F80080BC
:10577800C2F200021368B8EB030218BF0122984571
:1057880038BF4FF0FF32531C1CBFD2B2002A29D1B8
:1057980042685AB300680024D1E9019A02EB420139
:1057A800061D8D0005E00C3D06F10C0604F1010410
:1057B80018D030688245F6D156F8040C494652464E
:1057C80004F001FF0028EED1706800218045A0F1A7
:1057D8000600B0FA80F098BF012140090843BDE8EF
:1057E8000007F0BD0020BDE80007F0BD0120BDE8BE
:1057F8000007F0BDF0B503AF2DE9000F93B001909D
:1058080048F26C10C2F200008A46D1F82090016874
:10581800B9EB010018BF0120894538BF4FF0FF30B0
:10582800411C1CBFC0B2002824D10199DAF82850C5
:10583800486818B3096800EB4000DAF824B04FF064
:1058480000080C1D860005E00C3E04F10C0408F16C
:1058580001080FD020688542F6D154F8040C594647
:105868002A4604F0B0FE0028EED16068062818BF6A
:10587800814505D913B0BDE8000FF0BDDAF824B0B2
:10588800019840F6243102900020079004200490EB
:1058980040F64430C2F2200003AA03900320069089
:1058A80009A8059043F27970C0F20000C2F2200105
:1058B8000E9012A80D9043F26F70C0F20000CDF860
:1058C8003C900C9010A80B9043F61B30C0F20000DF
:1058D800CDE910B50A900FA809900AF12C00129092
:1058E80002A803F026FD13B0BDE8000FF0BD704715
:1058F800F0B503AF4DF8048D15460E46046803F065
:10590800ADF98046A068B0B94FF0FF3004F10C0241
:10591800A06030462946FEF7CBFF0546A068013057
:10592800A060404603F0A5F9E8B2033818BF01208B
:105938005DF8048BF0BD40F6C830C2F2200003F0D9
:10594800DBF9FEDED0B502AF45F20C520C46D1E9C8
:105958000113C2F200024FF0000CD06082E80A1076
:1059680040F6D831C2F22001104600F040FA002873
:1059780001BF216848F26C12C2F200021160D0BD6A
:1059880001680A68BFF35F8F002A1FBF817910463C
:10599800012202F015BC80B56F4640F65C4040F627
:1059A800E042C2F22000C2F22002222103F0A9FA4A
:1059B800FEDE01680A68BFF35F8F002A1FBF817986
:1059C8001046002202F0FCBB80B56F4640F65C40F2
:1059D80040F6E042C2F22000C2F22002222103F087
:1059E80090FAFEDE80B56F4682B094460A46096892
:1059F8000968BFF35F8F31B192790093634602F073
:105A080071FA02B080BD40F65C4040F6E042C2F256
:105A18002000C2F22002222103F073FAFEDE0A46B9
:105A2800D0E9000104F05DB8006803F07DBC704760
:105A380040F6F0420021C2F220020523C0E90032FC
:105A480081607047F0B503AF2DE9000784B040F6D8
:105A5800F04048F2301948F2480AC2F22000039098
:105A6800C2F2000909F10800C2F2000A02A9029074
:105A780050460122FFF734FCDAF8DC50804695F8EE
:105A88003400E0B12868002840F075814FF0FF31FC
:105A9800284640F8201B002100F031FECDE9020124
:105AA80002A800F07EFE78B302AE304600F089FE10
:105AB800304600F076FE0028F7D1012429E003F0F3
:105AC800E7F8064603F0DAF803F0EEF8286800284D
:105AD80040F051814FF0FF31284640F8201B00214B
:105AE80000F00DFECDE9020102A800F05AFE0028E0
:105AF8003FD002AC204600F064FE204600F051FE84
:105B08000028F7D1012439E002A800F008FE80F04F
:105B180001042868013028609AF8E21099F800001A
:105B2800022938D100287CD1DAF8DC0002F05CF8D0
:105B3800DAF8DC6096F8340000284AD0306800288B
:105B480040F019814FF0FF31304640F8201B00210A
:105B580000F0D5FDCDE9020102A800F056FE0028AC
:105B68001CBF0DF1080000F0CEFD30680130306038
:105B780054E002A800F0D3FD80F001042868013049
:105B88002860F00708BF03F07BF89AF8E21099F84C
:105B980000000229C6D0002800F08B80DAF8DC501B
:105BA80095F83400002866D02868002840F0E38083
:105BB8004FF0FF300021286005F1200000F09FFD24
:105BC800CDE9020102A800F0B4FD28680130286080
:105BD8006FE003F05DF8054603F050F803F064F851
:105BE8003068002840F0C7804FF0FF31304640F859
:105BF800201B002100F083FDCDE9020102A800F07E
:105C080004FE00281CBF0DF1080000F07CFD306880
:105C180001303060E80708BF03F032F8012089F846
:105C28000000D9F81C000168BFF35F8F002900F05D
:105C3800A980002099F8222040F6F043009002A89D
:105C4800C2F2200344EA080402F003FA7CB1D9F84E
:105C580004000122BFF35F8F00F58264D4E84F1F70
:105C6800C4E8432F002BF9D1BFF35F8F41B304B0D1
:105C7800BDE80007F0BD03F00BF8044602F0FEFF94
:105C880003F012F82868002875D14FF0FF30002182
:105C9800286005F1200000F032FDCDE9020102A8DC
:105CA80000F047FD286801302860E00708BF02F0CF
:105CB800E7FF002089F8000004B0BDE80007F0BD48
:105CC800D0F80014BFF35F8FD0F80824BFF35F8FBC
:105CD800D0F8043400F20445BFF35F8F934205D136
:105CE80099423EBFBFF35F8F00232B60994228BFC4
:105CF8000A469A4237D0D9F828100968BFF35F8F4F
:105D080000293FD0A2EB030899F82E20034402A8EB
:105D18004646B8F1400F28BF4026009602F0E2F848
:105D28009DF8080068B12078BFF35F8F00289ED0E7
:105D3800BFF35F8F55E8000F45E800010029F9D14E
:105D480011E003982178BFF35F8F00298FD0804539
:105D580038BF4046BFF35F8F55E8001F014445E850
:105D68000012002AF8D10020BFF35F8F207004B022
:105D7800BDE80007F0BD40F64C40C2F2200002F03A
:105D8800BBFFFEDE40F65C4040F6E042C2F2200077
:105D9800C2F22002222103F0B4F8FEDE70474FF46D
:105DA8007A607047C1B2032928BF00207047C1B28A
:105DB800052928BF002070470821818000218171B2
:105DC8004FF4FA51016070477047006840F6685216
:105DD800C2F220020B4652F8301002EBC0004268B3
:105DE800184603F0EFBC002070477047704780B535
:105DF8006F4648F2681EC2F2000E5EE8003F53B9D3
:105E08004FF0010CBFF35F8F4EE800C22AB15EE885
:105E1800003F002BF8D0BFF32F8FBFF35F8F13B174
:105E2800012B1ED02AE044F2C822C2F20002C2E9C5
:105E380000010220BFF35F8FCEF800000020BFF3FF
:105E48005F8F80BD10BFDEF80000BFF35F8F0128B1
:105E580001BF10BFDEF80000BFF35F8F01280DD12E
:105E680010BFDEF80000BFF35F8F012801BF10BF2D
:105E7800DEF80000BFF35F8F0128E3D0012080BD6A
:105E8800F0B503AF2DE9000F91B0002B3ED102F120
:105E9800100BD2E9009AD2E9026348F26812C2F202
:105EA80000029BE83008D2F800E044F2C822BFF3B1
:105EB8005F8FC2F20002D2E900C808AACDE90363E5
:105EC8000026CDE90645BEF1020F82E8020690E8F9
:105ED8003E00406910900BA83EC04FF00100694693
:105EE800009040F63C50C2F220000596CDE901B67C
:105EF80008BF4046026940F62450C2F2200008BF9D
:105F08006046904711B0BDE8000FF0BD40F6EC5078
:105F180040F64462C2F22000C2F22002552102F08B
:105F2800F0FFFEDE80B56F4600684FF400514FF475
:105F380080524FF0400C4FF4803E00E0416103690D
:105F48009B04FBD50369DB0401D44261F7E70369CD
:105F5800B3F1FF3FF3DC0369DB0306D403695B0697
:105F680048BF80BDC0F814C0E9E7C0F818E0E6E70C
:105F78000378D1F800C0DFE803F004070A0D101316
:105F880016190CF1680C13E00CF16C0C10E00CF114
:105F9800700C0DE00CF1740C0AE00CF1780C07E0C1
:105FA8000CF17C0C04E00CF1800C01E00CF1840C89
:105FB80040780321DCF800304000C0B2824001FA8A
:105FC80000F023EA00001043CCF800007047F0B559
:105FD80003AF2DE9000B44F2E043C4F21F031B6832
:105FE800C3F30B2E4FEA135CE6451FBF0124C1F82B
:105FF8008841DBB24FF47A781FBF03FB08F9ACEB9A
:106008000E04D1F8906149F658651FBFCFF6FF75A9
:1060180013FB085393FBF4F3C2EA06021FBFC1F84F
:10602800902180E80A40C0F80C90BDE8000B18BF2A
:10603800F0BD40F6D06040F6C062C2F22000C2F265
:106048002002192102F05DFFFEDE00680A4640F6D4
:106058008E7140F68C73C2F22001C2F220030078E0
:10606800002810464FF0020208BF194603F0E1BCB1
:106078007047A1F1080240F6F87392B29A4221BF24
:10608800022202710260704700220139C0F806201E
:10609800818082720260704780B56F46C1B18142CB
:1060A80022D8B0FBF1F3B0FBF3F0884288BF01338C
:1060B800981E38BF0020FF2828BFFF2000F0FE01EF
:1060C80040EAC11040F0F85040F4F810106480BD68
:1060D80040F6607040F64C72C2F22000C2F2200214
:1060E800192102F00EFFFEDE40F6607040F67C7269
:1060F800C2F22000C2F22002192102F002FFFEDEE5
:1061080040F22762914238BF0A46B2F5487F98BFED
:106118004FF44872A2F5487144F2AF7300688AB22E
:106128005A43C368A1EB124189B2490801EB1241F5
:1061380023F01F0242EA1111C16004E00168B1F1C5
:10614800FF3FD8BF70470168002905D401680029BE
:106158005CBF01680029F1D57047D4D40278023AAF
:10616800D3B2042B28BF0122D2B2DFE802F0021D0D
:106178000B1440F690720846C2F22002114609221A
:1061880003F057BC40F62C520846C2F220021146D2
:10619800042203F04EBC40F6AC720846C2F220025C
:1061A8001146062203F045BC80B56F4682B040F622
:1061B8003052019040F69C70C2F22002C2F22000D8
:1061C80001AB009008461146042203F036FC02B0E9
:1061D80080BD022070470F207047B0B502AF05465A
:1061E80008680C4640F480300860086840F04000B9
:1061F8000860222063F31340486040F26850C0F200
:106208000C10086240F29510C0F2B2004862DC201F
:10621800C0F27A0088627D20C0F25800C8624B2024
:10622800C0F2400008632F20C0F22E004863886344
:1062380046F62010C86040F6A31088604FF4C840A6
:10624800C8614FF4C860886140F6C410C0F6804049
:1062580008613F204861086820F003001043086087
:10626800086820F480300860C86F4021281D03F0BA
:10627800D4FF10202C606864B0BD00F1340200F136
:10628800500110467047006803E0816C002908BF80
:106298007047816C29B1816C00291CBF816C002971
:1062A800F3D170470068426D22F003021143416543
:1062B8007047F0B503AF2DE90007ADF5047D6D46D5
:1062C800804628464FF4007103F0A7FF44F2D02916
:1062D800A5F11006C2F200090DF5007A00244D461A
:1062E800D9E96001CDE9820150468194809502F098
:1062F8008EFC80AB01340C35202C0FCB46F8100FE8
:1063080006F104000EC0EBD1694640464FF4007216
:1063180004F05BF90DF5047DBDE80007F0BD70479A
:10632800F0B503AF2DE9000F85B0C16800291CBF87
:10633800D0E904138B4271D102AE84464ACE4CF8A0
:10634800101F0168C0E90536002950D0D0E9019135
:10635800894501914BD200F118044FF0010E4FF01E
:10636800000B02E001998A4541D0022109F1010A96
:10637800416149F080015FFA89F3D14643EA01217E
:1063880001830021C0F80CE0C0F804A005E0C2E9D0
:1063980000EBD0E904138B42E4D04B1C0361615C31
:1063A800C56A4B0043EAD111D5F80480CBB29845B1
:1063B800EDD9AE6901F00F013668BFF35F8FB6B251
:1063C80026FA01F1C907E2D06969994240F2898049
:1063D800296903EB8303C2E900EB01EB83010B7C22
:1063E8005B06D6D0084605B0BDE8000FF0BD02AE8A
:1063F8000025C5604ACE8CE84A00C16900291CBF47
:10640800D0E908138B423BD102AE00211C304CCEA0
:106418004EC0084605B0BDE8000FF0BD00F11806F3
:106428004FF0000C4FF0010E06E0C2E900ECD0E995
:1064380004138B423FF480AF4B1C0361715CC56A47
:106448004B0043EAD1116C68CBB29C42EDD9AC69E0
:1064580001F00F012468BFF35F8FA4B224FA01F1A1
:10646800C907E2D0696999423BD9296903EB8303DB
:10647800C2E900EC01EB83010B7C5B06D7D0B1E7E6
:1064880000F128064FF0000C4FF0010E05E0C2E9BC
:1064980000ECD0E908138B42B6D04B1C0362715C48
:1064A800C56A4B0043EAD1116C68CBB29C42EED965
:1064B800AC6901F00F012468BFF35F8FA4B224FA1E
:1064C80001F1C907E3D0696999420AD9296903EB3F
:1064D8008303C2E900EC01EB83010B7C5B06D8D097
:1064E80080E741F2E8021846C2F2200202F020FDDD
:1064F800FEDE01447047F0B503AF4DF8048D82B05D
:1065080005468846EE680121006831607168F261CD
:1065180062F31E417160CAB1B06040F6FF71B068A5
:10652800884300F58050F060F0686FF30B0000F5C9
:106538008050306130696FF30B0000F58050706156
:1065480070696FF30B0000F5805004E00020B06024
:10655800F06030617061B0618021706840F4004083
:106568007060706861F307007060009602F08AFB43
:106578004EF670746846CEF2000420F01C002060CD
:1065880002F080FB02F081FBA8688660C16821F0F8
:10659800FF01C160019002F075FB01A820F01C000A
:1065A80020602030206002F06DFB02F06EFB95F950
:1065B80010204FF47F01D8F800004FF48033B2F177
:1065C800FF3F02F01F02C8BFFF21C8BF012303FA23
:1065D80002F21140C0F8B011D0F8B01159B1D0F89A
:1065E800B01100291CBFD0F8B011002903D0D0F891
:1065F800B0110029F0D102B05DF8048BF0BDF0B500
:1066080003AF2DE9000B84464668C8B24D0045EA41
:10661800D014E0B2864217D9DCF8189004F00F04C1
:10662800D7F80880012606FA04FEBFF35F8F59E801
:10663800006F46EA0E0449E80045002DF7D116EA36
:106648000E0FBFF35F8F03D00020BDE8000BF0BD35
:10665800DCF80CE0864542D9DCF814E0864546D9DA
:10666800DCF800601D46B3F5806F06EB80142668E1
:1066780046F000562660266828BF4FF480656FF301
:106688001A4646EA0546266026685FEA0865DCF889
:1066980008E026F40049DCF810C04EB24D4608BFA9
:1066A80005F50045B6F1FF3FD8BF4D4625604501C9
:1066B80001264EF805600EEB401600EB8000756869
:1066C80025F0FF0575604CF820200CEB8000017464
:1066D800011D80F8118058C1BDE8000BF0BD41F2E2
:1066E800F802C2F22002714602F022FCFEDE41F2FC
:1066F8000812C2F22002714602F01AFCFEDE0246BF
:10670800084611467047D0E900018C220968002824
:1067180008BF8422885840F0004088507047D0E96C
:1067280000018C220968002808BF84228858C00FFD
:106738007047D0E900018C220968002808BF84222C
:10674800885820F0004088507047D0E900018C221A
:106758000968002808BF8422885840F08040885083
:106768007047D0E900028C231268002808BF8423F0
:10677800D05820F0807040EA0160D0507047D0E9CE
:1067880000028823002808BF80236FF07F4012682A
:10679800814238BF0846012898BF01200138D050EF
:1067A8007047D0E900014FF0007209680028D1F85D
:1067B800441108BF4FF0807211EA020018BF01208F
:1067C8007047D0E900014FF000720968002808BF3F
:1067D8004FF08072C1F844217047D0E900024FF0B1
:1067E80000731268002808BF4FF080736FF00070C4
:1067F800D2F848C108BF6FF08070002900EA0C0089
:1068080018BF1843C2F848017047D0E900014FF09B
:10681800007209680028D1F8481108BF4FF080724B
:1068280011EA020018BF0120704780B56F46D0E911
:10683800072E4FF0004C4FF08043CEF834C0CEF80E
:1068480038C0CEF838300023CEF800300223C2F822
:106858004031D2F840319B070CD5D2F840319B0724
:1068680044BFD2F840315FEA837303D5D2F8403190
:106878009B07EED44FF0000C0A23C2F840C1002950
:10688800C2F8A831D2F8843123F0807308BF03F12D
:106898008073C2F88431D2F844110068C2F84411F8
:1068A800C2F848C1C2F8580180BD02464368C8B260
:1068B800490041EAD011C8B2834218D9936901F05E
:1068C8000F011B68BFF35F8F9BB223FA01F1C90761
:1068D8000DD05169814284BF0120704780B56F4651
:1068E80041F2D802C2F2200202F022FBFEDE0020B2
:1068F8007047F0B503AF2DE9000F83B080464868B4
:1069080000281FBF88690068BFF35F8F5FEAC07007
:106918000BD141F2181041F2A012C2F22000C2F2CB
:1069280020022B2102F0EDFAFEDE4869002800F073
:1069380015819A4651F81C3F0125BAF1080F51F804
:106948000C0CD3F8AC6190F9104004F01F0C05FA58
:106958000CF56ED32E406CD0D0F808C0C3F8AC51FB
:10696800D3F8405145F40055C3F84051DCE90A45D5
:10697800D3F84061B60425D4D3F8406146F40056F4
:10698800C3F84061DCE90A45D3F84061B6045FBF4B
:10699800D3F8406146F40056C3F84061DCE90A4583
:1069A8005CBFD3F840615FEA86460BD4D3F84061F8
:1069B80046F40056C3F84061DCE90A45D3F8406163
:1069C800B604CDD5D3F8406126F40056C3F840612B
:1069D80090F910C0D3F8B8615560BCF1000F14608D
:1069E8000CF01F024FF0010548BF360C95402E40B1
:1069F800360614D14FF48036BCF1FF3FC8BF0126DC
:106A08004FF47F0506FA02F2C8BFFF252A40C3F8F3
:106A1800782182681268C2F30A42FFF76CFD0820E9
:106A2800C8F80400002088F8000003B0BDE8000F93
:106A3800F0BDC668766816F0680F01D0072008E038
:106A4800D3F8B861002C48BF360C2E40360609D062
:106A5800002088F80100012088F8000003B0BDE894
:106A6800000FF0BD4FF480354FF47F06B4F1FF3FBF
:106A7800C8BF0125C8BFFF2605FA0CF52E40C3F88C
:106A8800BC6190F910604FF4803E4FF47F04B6F17A
:106A9800FF3F06F01F06C4BFFF244FF0010E0EFA99
:106AA80006F62640C3F87861C668D0E9013CDCF8F0
:106AB80000507468F669C5F30A45554538BFAA46BB
:106AC800C4F30E45761BB24528BFB2469A4528BF87
:106AD8009A46BAF1000F38D0D0F800B00AF0030691
:106AE800BAF1040F01D2002420E0CDE9016C40F294
:106AF800FC740AEA040902F1010C00240BEB0403FC
:106B08001BF804500CEB040693F801E00CF804E0C1
:106B18000434A14593F802E006F8015C86F801E028
:106B2800DB78B370EAD1DDE9016CA3446EB19BF860
:106B38000030012E135508D022449BF80130022E54
:106B480053701CBF9BF802309370DCF80020C2F32E
:106B58000A42FFF7D0FCC8F804A063E741F2E80254
:106B68000020C2F22002002102F0E2F9FEDEF0B5B8
:106B780003AF2DE9000F83B0834648680228C0F0B0
:106B88002C81886988460068BFF35F8F800740F1D1
:106B98002481D8F81410012940F20E81D8F8106029
:106BA800316A496811F0680F01D0072014E09A464D
:106BB80096F824304046012150F81CCF5DB203F00E
:106BC8001F03002DDCF8B84101FA03F148BF240C7B
:106BD8002140090609D000208BF8010001208BF81C
:106BE800000003B0BDE8000FF0BD4FF48031029003
:106BF800B5F1FF3FC8BF01214FF47F0501FA03F14A
:106C0800C8BFFF252940CCF8781106F11400F369B4
:106C1800D6E905911B68C3F30A43534538BF9A4622
:106C28008A4528BF8A46BAF1000F5CD00AF0030CE7
:106C3800BAF1040F019002D200214B4617E040F24E
:106C4800FC700AEA000E501C00214618445C16F835
:106C5800015C7378B67809F8015009EB0105043135
:106C68008E456C70AB70EE70EFD109EB0103BCF18F
:106C7800000F0CD0505CBCF1010F187007D08818B9
:106C8800BCF1020F417859701CBF80789870AAF146
:106C98000100012101EB501505F0030401F0F2FF9A
:106CA8004EF6707029F01F01CEF20000BAF1610FA4
:106CB8000FD325F0030201F120030160036001F105
:106CC8004003036001F16003043A01F180010360AD
:106CD800F1D1002C1CBF0160012C65D101F0D2FF5D
:106CE80001F0D3FF0198029C52462146FFF703FCAE
:106CF800D8F8040000281FBFD8F818000068BFF3B0
:106D08005F8F5FEAC0700BD141F2181041F2C012D8
:106D1800C2F22000C2F220022B2102F0F2F8FEDEBD
:106D2800D8F8140000284FD0D8F810000125D8F85A
:106D38001CC0027CDCF8B86153B202F01F02002BC1
:106D480048BF360C95402E40360624D1B3F1FF3F9C
:106D58004FF480332146C8BF01234FF47F0403FA60
:106D680002F2C8BFFF242240CCF8BC214FF4803681
:106D780090F910204FF47F05B2F1FF3F02F01F0297
:106D8800C4BFFF25012606FA02F22A40CCF8782172
:106D98000022FFF7B0FB0020CBF804A08BF800001E
:106DA80003B0BDE8000FF0BD01F120020260022C23
:106DB8001CBF4031016091E741F2E8020120C2F2B4
:106DC800200202F0B5F8FEDE41F2E8020020C2F22D
:106DD8002002002102F0ACF8FEDE41F2181041F268
:106DE800B012C2F22000C2F220022B2102F089F870
:106DF800FEDEF0B503AF2DE9000F83B08146387A87
:106E080098460B464E68410041EAD011C8B2864206
:106E180040F2C5809E6901F00F013668BFF35F8FAD
:106E2800B6B226FA01F1C90700F0B9805969814262
:106E380040F2AE80196900EB800001EB8000C16868
:106E4800496811F0680F01D0072012E01946057C47
:106E580051F81CCF05F01F0E6CB20125DCF8B861A3
:106E680005FA0EF5002C48BF360C35402D0609D022
:106E7800002089F80100012089F8000003B0BDE86E
:106E8800000FF0BD9B8D04F00F05EB40DB07EFD042
:106E9800B4F1FF3F4FF480344FF47F06C8BF01249C
:106EA800C8BFFF2604FA0EF42640CCF8BC6190F95E
:106EB80010604FF480334FF47F05B6F1FF3F06F0C2
:106EC8001F06C4BFFF250123B3402B40CCF87831FF
:106ED800C668D0E9013CDCF800507468F669C5F36F
:106EE8000A45454538BFA846C4F30E45761BB0454C
:106EF80028BFB046984528BF9846B8F1000F38D04B
:106F0800D0F800B008F00305B8F1040F01D200264C
:106F180020E0CDE9015C40F2FC7408EA040A02F1C1
:106F2800010C00260BEB06031BF806500CEB0604BD
:106F380093F801E00CF806E00436B24593F802E055
:106F480004F8015C84F801E0DB78A370EAD1DDE99C
:106F5800015CB3446DB19BF80030012D935508D006
:106F680032449BF80130022D53701CBF9BF802304D
:106F78009370DCF80020C2F30A42FFF7BCFA002045
:106F8800C9F8048089F8000003B0BDE8000FF0BD1F
:106F980041F2E802C2F2200201F0CAFFFEDE41F22D
:106FA800181041F2D012C2F22000C2F220022B21A6
:106FB80001F0A7FFFEDEF0B503AF2DE9000F81B0A9
:106FC8008146387A1E468B464B68410041EAD0110B
:106FD800C8B2834240F2D380DBF8183001F00F01C9
:106FE8001B68BFF35F8F9BB223FA01F1C90700F05A
:106FF800C680DBF81410814240F2BA80DBF810102A
:1070080000EB800001EB800ADAF80C00406810F011
:10701800680F01D0072012E09AF8101001255BF8DC
:107028001C0F4BB201F01F01D0F8B841002B05FA34
:1070380001F548BF240C25402D0609D0002089F809
:107048000100012089F8000001B0BDE8000FF0BD83
:107058004FF48035B3F1FF3FC8BF01254FF47F03DC
:1070680005FA01F1C8BFFF231940C0F87811DAF812
:107078000810DAE900800968C1F30A41B14238BF53
:107088000E46864228BF0646002E5BD006F0030C4B
:10709800042E009602D20021434618E040F2FC700C
:1070A80006EA000E501C00214618455C16F8014CF3
:1070B8007378B67808F8014008EB010404318E456E
:1070C8006570A370E670EFD1009E08EB0103BCF178
:1070D800000F0CD0505CBCF1010F187007D0881855
:1070E800BCF1020F417859701CBF80789870701EEF
:1070F8000121344601EB501606F0030501F0C2FDEC
:107108004EF6707028F01F01CEF20000612C0FD3EC
:1071180026F0030201F120030160036001F140033E
:10712800036001F16003043A01F180010360F1D1C9
:10713800009E002D1CBF0160012D11D101F0A2FDA0
:1071480001F0A3FD504659463246FFF7D4F9C9F875
:107158000460002089F8000001B0BDE8000FF0BD10
:1071680001F120020260022D1CBF40310160E5E7F9
:1071780041F2E802C2F2200201F0DAFEFEDE41F23C
:10718800181041F2E012C2F22000C2F220022B21B4
:1071980001F0B7FEFEDED4D4B0B502AF8AB0034624
:1071A8004468D0B2550045EAD015E8B2844240F2AE
:1071B800A1809C6905F00F052468BFF35F8FA4B216
:1071C80024FA05F5ED0700F09580D3F814C084453E
:1071D80040F288801D6900EB800005EB8000057C8B
:1071E80005F07F040194072C00F2908003F11C0C39
:1071F8004FFA85FEDFE804F004280D161F313A4BDC
:10720800DCF8005005F5E0742368BEF1000F46D5A0
:1072180034E0DCF8005005F5E4742368BEF1000F93
:107228003DD52BE0DCF8005005F5E6742368BEF187
:10723800000F34D522E0DCF8005005F5E874236827
:10724800BEF1000F2BD519E0DCF8005005F5E2740B
:107258002368BEF1000F22D510E0DCF8005005F5D8
:10726800EA742368BEF1000F19D507E0DCF8005076
:1072780005F5EC742368BEF1000F10D523F48033B4
:1072880061F3104352B2002A23600FD51EE0DCF8E8
:10729800005005F5EE742368BEF1000FEED423F01C
:1072A80001030B4452B2002A23600FD471B9D5F8F8
:1072B800B811012390F91020002A02F01F0248BFDC
:1072C800090C03FA02F21140090601D00AB0B0BD58
:1072D80081680968C1F30A4261460AB0BDE8B04056
:1072E800FFF709B941F2E8026146C2F2200201F053
:1072F8001FFEFEDE41F2181041F2F012C2F2200029
:10730800C2F220022B2101F0FCFDFEDE002041F23A
:107318006C0106900220039041F20000C2F22000A6
:10732800C2F2200102900120059008A8049047F6B7
:107338006360C0F20000099001A8089002A801F05B
:10734800CAFDFEDE80B56F468AB0CBB2490041EA7D
:10735800D3114268CBB29A4252D9826901F00F0127
:107368001268BFF35F8F92B222FA01F1C90747D0C2
:10737800416999423CD9016903EB830201EB82011F
:10738800097C01F07F020192072A45D849B2DFE85B
:1073980002F00414080C10181C20C06900F5E070F5
:1073A8001AE0C06900F5E47016E0C06900F5E670FF
:1073B80012E0C06900F5E8700EE0C06900F5E270FF
:1073C8000AE0C06900F5EA7006E0C06900F5EC70F3
:1073D80002E0C06900F5EE7000684FF48032B1F148
:1073E800FF3FC8BF0122104018BF01200AB080BD6E
:1073F80041F2D8021846C2F2200201F099FDFEDEE1
:1074080041F2181041F20022C2F22000C2F220021A
:107418002B2101F076FDFEDE002041F26C01069082
:107428000220039041F20000C2F22000C2F22001C3
:1074380002900120059008A8049047F66360C0F206
:107448000000099001A8089002A801F044FDFEDEA2
:10745800F0B503AF2DE9000F99B0002680460F90D4
:107468000820EA46CDE90560012008F11C040AF16C
:1074780040050AF1100B0DF14409049000200B9609
:1074880007960296009645E0017C11F07F0204D130
:107498005FE0017C11F07F0243D01092013A062A86
:1074A80000F2CF80DFE802F004080C1014181C006A
:1074B800226802F5E27216E0226802F5E47212E030
:1074C800226802F5E6720EE0226802F5E8720AE028
:1074D800226802F5EA7206E0226802F5EC7202E020
:1074E800226802F5EE72407C49B21368B1F1FF3FA1
:1074F80008DD00F00F0023F00C0141EA800040F0A5
:10750800C00005E023F44C0141EA804040F440000B
:1075180010600098119500281EBF01980196002858
:10752800B7D10498009602280AD0584649465246D0
:10753800FEF7F6FE20B1017C11F07F02ADD1E8E73D
:107548000298009600281EBF0398039600287FF42F
:107558009BAF00260820CDF83C800DF14408CDE90A
:1075680005600120049000200B960796029600966D
:1075780000E00098119500281EBF01980196002888
:107588001BD10498009602280AD058464146524614
:10759800FEF7C6FE20B1017C11F07F0211D13FE059
:1075A8000298009600281EBF03980396002844D02E
:1075B800017C11F07F0204D13FE0017C11F07F02D1
:1075C800DFD01092013A062A3BD8DFE802F004081F
:1075D8000C1014181C00226802F5E27216E02268EA
:1075E80002F5E47212E0226802F5E6720EE0226803
:1075F80002F5E8720AE0226802F5EA7206E02268FB
:1076080002F5EC7202E0226802F5EE724BB21268E3
:10761800B3F1FF3F4FF40003C8BF80231A42A8D03C
:1076280049B2B1F1FF3FA4DD81680968C1F30A429C
:107638002146FEF760FF00989CE719B0BDE8000FEF
:10764800F0BD002041F26C0115900220129041F229
:107658000000C2F22000C2F2200111900120149013
:1076680017A8139047F66360C0F20000189010A89E
:10767800179011A801F02FFCFEDED4D4F0B503AFAB
:107688002DE9000F99B08246C8690D46D0F84441EB
:10769800610617D4610740F17E8004210026C0F8F6
:1076A80044110820E846CDE90560012008F14009A9
:1076B80008F1100B049000200F950B960796029680
:1076C800009649E04021C0F844110120AAF80000C2
:1076D80019B0BDE8000FF0BD007C10F07F0104D1A7
:1076E80059E0007C10F07F013ED010910139062945
:1076F80000F27B80DFE801F004080C1014181C006D
:10770800E96901F5E27116E0E96901F5E47112E051
:10771800E96901F5E6710EE0E96901F5E8710AE049
