:0200000460009A
:100000004643464200000156000000000101020084
:1000100000000000000000000000000000000000E0
:1000200000000000000000000000000000000000D0
:1000300000000000000000000000000000000000C0
:1000400000000000010403000000000000000000A8
:100050000000200000000000000000000000000080
:100060000000000000000000000000000000000090
:100070000000000000000000000000000000000080
:10008000EB04180A063204260000000000000000FD
:10009000050404240000000000000000000000002F
:1000A0000000000000000000000000000000000050
:1000B0000604000000000000000000000000000036
:1000C0000000000000000000000000000000000030
:1000D00020041808000000000000000000000000DC
:1000E0000000000000000000000000000000000010
:1000F0000000000000000000000000000000000000
:1001000000000000000000000000000000000000EF
:100110000204180804200000000000000000000095
:1001200000000000000000000000000000000000CF
:10013000600400000000000000000000000000005B
:1001400000000000000000000000000000000000AF
:10015000000000000000000000000000000000009F
:10016000000000000000000000000000000000008F
:10017000000000000000000000000000000000007F
:10018000000000000000000000000000000000006F
:10019000000000000000000000000000000000005F
:1001A000000000000000000000000000000000004F
:1001B000000000000000000000000000000000003F
:1001C000000100000010000001000000000000001D
:1001D000000000000000000000000000000000001F
:1001E000000000000000000000000000000000000F
:1001F00000000000000000000000000000000000FF
:10020000D4D4D4D4D4D4D4D4D4D4D4D4D4D4D4D4AE
:10100000D10020400020006000000000000000002F
:1010100020100060001000600000000000000000D0
:101020000000006080C4000000000000EFBEADDEE4
:10103000124880F3088812481249016000F036F81F
:10104000114812490022814201D004C0FBE7104838
:101050001049114A814202D008CA08C0FAE70F4875
:101060004FF47001026842EA01020260BFF34F8F41
:10107000BFF36F8F00F014F800DE00000040002086
:1010800008ED00E000400020005000209485002082
:10109000B84200205844002084C4006088ED00E07D
:1010A00040F6F55CC0F2000C6047D4D41C4840F216
:1010B000924188420CBF1B4A1B4A1C4B5360136869
:1010C00023F0800313601A481A4901BF1A480A0C1A
:1010D0008264C1F30F014164016C41F004010164B9
:1010E0001648174A824205D01649814202D008CAE2
:1010F00008C0FAE71448154A824205D014498142D3
:1011000002D008CA08C0FAE71248134A824205D042
:101110001249814202D008CA08C0FAE770470000AD
:10112000240400000080034000C00B4020C528D9E3
:1011300000C00A40AAAAFAFF00400E4000000000CA
:10114000B8220060D4890000004000200020006028
:10115000B84200200000202090AC0060F41720204E
:10116000D4D4D4D4D4D4D4D4D4D4D4D4D4D4D4D43F
:10117000D4D4D4D4D4D4D4D4D4D4D4D4D4D4D4D42F
:10118000D4D4D4D4D4D4D4D4D4D4D4D4D4D4D4D41F
:10119000D4D4D4D4D4D4D4D4D4D4D4D4D4D4D4D40F
:102000000040002031100060E1210000B98900008B
:10201000E1210000E1210000E121000000000000BA
:10202000000000000000000000000000E1210000AE
:10203000E121000000000000E12100006710000025
:10204000E1210000E1210000E1210000E121000088
:10205000E1210000E1210000E1210000E121000078
:10206000E1210000E1210000E1210000E121000068
:10207000E1210000E1210000E1210000E121000058
:10208000E12100000000000000000000000000004E
:10209000E1210000E1210000E1210000E121000038
:1020A000E1210000E1210000E1210000E121000028
:1020B000E1210000E1210000E1210000E121000018
:1020C000E1210000E1210000E1210000E121000008
:1020D000E1210000E1210000E1210000E1210000F8
:1020E000E1210000E1210000E1210000E1210000E8
:1020F000E1210000E1210000E1210000E1210000D8
:10210000E1210000E1210000E1210000E1210000C7
:1021100000000000E121000000000000E1210000BB
:10212000E1210000E1210000E1210000E1210000A7
:10213000E1210000E121000000000000E121000099
:10214000E1210000E1210000E1210000E121000087
:10215000E1210000E121000000000000000000007B
:10216000E1210000E1210000E1210000E121000067
:10217000E1210000E1210000E1210000E121000057
:10218000E1210000E1210000E1210000E121000047
:10219000E1210000E1210000E1210000E121000037
:1021A000E1210000E1210000E1210000E121000027
:1021B000E1210000E1210000E1210000E121000017
:1021C000E1210000E1210000E12100000000000009
:1021D0001B0A0000E1210000E1210000E1210000D4
:1021E000E1210000E1210000E1210000E1210000E7
:1021F000E1210000E1210000E1210000E1210000D7
:10220000E121000071200000E1210000E121000037
:10221000E1210000E1210000E1210000E1210000B6
:10222000E1210000E1210000E1210000E1210000A6
:10223000E1210000E1210000E12100000000000098
:1022400000000000E1210000E1210000E121000088
:10225000E1210000E1210000E1210000E121000076
:10226000E1210000E1210000E1210000E121000066
:10227000E1210000E1210000E1210000E121000056
:10228000E1210000E1210000E1210000E121000046
:10229000E1210000E1210000E1210000E121000036
:1022A000E1210000E1210000E12100000000000028
:0822B000E1210000E121000022
:1022B800F0B503AF2DE9000FADF5317D0D460446AD
:1022C80001F13400383105F1540201F0DAFDD5F896
:1022D800C80004F053FAD5F82801016841F001015B
:1022E8000160D5F82811086820F002000860002075
:1022F800C1F80801C1F81801C1F828011A91C1F8FC
:102308003801D5F8C090D9F8000020F00100C9F8CC
:102318000000D9F8000040F40040C9F80000D9F8DE
:10232800000000040CD5D9F80000000444BFD9F817
:1023380000005FEA004003D5D9F800000004EED49D
:102348003F20C9F80800D9F8000020F00100C9F8BA
:102358000000D5F8C4A0DAF8000020F00100CAF89F
:102368000000DAF8000040F40040CAF80000DAF88B
:10237800000000040CD5DAF80000000444BFDAF8C5
:1023880000005FEA004003D5DAF800000004EED44C
:102398003F20CAF80800DAF8000020F00100CAF867
:1023A8000000D5F85C0104F0A0F9D5F80080CDE96B
:1023B800181040F26341D8F8480040F00100C8F80E
:1023C8004800D8F844000843C8F84400D8F8440046
:1023D800012161F38300C8F84400D8F8440020F0D4
:1023E8008000C8F84400D8F8480040F02000C8F839
:1023F8004800D8F8440040F44040C8F84400D8F8F1
:10240800440040F44470C8F84400D8F8480040F04C
:102418008000C8F84800D8F8580000070CD0D8F851
:10242800580000071CBFD8F858005FEA007003D0B6
:10243800D8F858000007EED1D8F8480040F26341B8
:1024480040F02000C8F84800D8F8440020F4404084
:10245800C8F84400D8F8440020F4447000F58870A7
:10246800C8F84400D5F804B0DBF8480040F0010093
:10247800CBF84800DBF844000843CBF84400DBF80D
:102488004400012161F38300CBF84400DBF84400E9
:1024980020F08000CBF84400DBF8480040F0200032
:1024A800CBF84800DBF8440040F44040CBF8440047
:1024B800DBF8440040F44470CBF84400DBF84800F3
:1024C80040F08000CBF84800DBF8580000070CD03B
:1024D800DBF8580000071CBFDBF858005FEA007003
:1024E80003D0DBF858000007EED1DBF8480040F0D5
:1024F8002000CBF84800DBF8440020F44040CBF83B
:102508004400DBF8440020F4447000F58870CBF8F0
:102518004400D5F87C01179004F093F8064604F0BF
:1025280092F8179903469BA8324604F08EF8D5F81E
:102538006811ADA84FF4805204F045F8D5F89C0016
:102548000A90D5F8A4000990D5F8A8000690D5F807
:10255800AC000590D5F884010490D5F8900103905B
:10256800D5F89801D5E9171202901BA803F0F5FFDA
:10257800D5E90D10D5F830211790686D1690D5F86B
:1025880080000C90D5F884000890D5F88800079052
:10259800D5F8E0001490D5F8E8001390D5F8FC00C1
:1025A8001290D5F814011190D5F804010F90D5F8C0
:1025B80008010E90D5F80C011090D5F81C01159162
:1025C8000F210D904FF470400B92A2F88C01A2F8E5
:1025D8008E11D5F83461A6F88C01A6F88E11D5F8BD
:1025E80038210192A2F88C01A2F88E114FF40072E2
:1025F800D5F83C51A5F88C01A5F88E111BA90698B1
:102608002062059860620498A0620398E0620298CC
:1026180020631A98C4E9049AC4E90000C4E90200D6
:102628000A98A0610998E06104F58E7008F012FB21
:10263800DDE9181005F16002C4E9C71004F1B8011A
:10264800089805F5907CC4F8B40005F1C00E079809
:10265800C4E9285206F1C00281E8010904F194088E
:102668000199C4E91D6601F5907301F1C00088E87D
:10267800290006F1600306F590750C98C4F8B000BF
:1026880001F16000C4E91F320B9BC4E9231003F574
:102698009070C4E9215103F1C00103F16002C4E95B
:1026A8001B109BA9159860631798A0631698E063A0
:1026B80014982064139860641298A06411980F9E6F
:1026C800E064109866650E9E206504F1C400A66556
:1026D8000D9EC4E919324822C4E92AECC4E91763FB
:1026E80008F0B8FAADAB04F5867C0FCB8CE80F0088
:1026F8000DF5317DBDE8000FF0BDF0B503AF2DE954
:10270800000F81B080460C6800F012FED8F8006017
:102718003168451AB5F1FF3F04DDE80F01B0BDE8A7
:10272800000FF0BDD8F80400D0F800B0DBF80000C6
:102738000028F2D1D4E90010096888470446DBF87C
:1027480000008946366800281EBFC168DBF804000F
:1027580088470020D8F808A0CBF810008BF80C00A8
:10276800CBE90049CBF8086006F025FDBFF35F8F81
:10277800DAF8001091B38A68DBF808C0BCEB0202F3
:102788002AD4D1F810E0BEF1000F41D0DEF80820BD
:10279800BCEB02023AD47346196971B38A68BCEB80
:1027A80002022CD4D1F810E0BEF1000F30D0DEF8D0
:1027B8000820BCEB020229D4DEF8102012B391687D
:1027C800BCEB010120D413697BB39968BCEB010110
:1027D800E2D59E46114619E0CBF81010CAF800B0B1
:1027E80006F0F4FCD8F80C00C0F800B000F0B9FD11
:1027F800E80F01B0BDE8000FF0BD194608E08E46AD
:10280800194603E0714603E071469646CBF810E09E
:10281800C1F810B006F0DAFCD8F80C00C0F800B027
:10282800E80F01B0BDE8000FF0BD1146F0E7F0B5C4
:1028380003AF2DE9000B804600F0B3FD00F099FDD1
:1028480010E02069C8F80000D4E90010096888473A
:102858000646207B05F00100894606F0B7FC716842
:102868004846884706F0A7FCBFF35F8F0546D8F8AF
:102878000040ECB1A66800F05BFD801B0021B0F1C0
:10288800FF3FC8BF012100282173DAD505F00100F8
:1028980006F09CFC00F085FD304600F061FD00F07C
:1028A80047FD801BB0F1FF3FDCDCBDE8000BF0BD4D
:1028B800284606F08BFCBDE8000BBDE8F04000F0B0
:1028C80070BDF0B503AF2DE9000F85B04D68044623
:1028D8006869C00111D499468BB128690E46082150
:1028E800904640F44070286102A803F05EFD02980B
:1028F800022806D19DF80C0097E0042095E00520F9
:1029080093E09DF810104FF0000B9DF80C004FF06D
:10291800010A9DF80DC09DF80EE089049DF80F305E
:102928006CF30B20366840EA8E509DF8122041EA7D
:10293800C341019241EA00034FEAC65E012000222A
:1029480001210BE0CB454FF0000038BF01204A457C
:102958004FF0000134BF0121CB456DD2C90750D0DB
:1029680018F802600132B2EB090C08BFE246696947
:10297800090559D4E96DC90611D56969090553D402
:10298800E96DC9060BD5696909054DD4E96DC90614
:1029980005D56969090547D4E96DC906E7D40199E0
:1029A800F4460093B6465FFA8AF643EA01512B6E65
:1029B80041EA46514FF20006CFF603763340764699
:1029C800E64643EA0C0319432966696909052BD4CD
:1029D800E96DC90611D56969090525D4E96DC906E6
:1029E8000BD5696909051FD4E96DC90605D569695B
:1029F800090519D4E96DC906E7D46E66012101916C
:102A0800009BC0079ED06869C0041BD4286F80074C
:102A180098D4686FB0F5807F28BF4FF0FF3008F872
:102A28000B000BF1010B8DE70020002120712160C4
:102A380005B0BDE8000FF0BDC4E9008905B0BDE8E8
:102A4800000FF0BD0120F0E7F0B503AF2DE9000756
:102A580086B0824690F858008846D8B1032840F0DE
:102A6800ED809AF8540000B3032840F0F3809AF8F8
:102A780051100AF10C0031B3032944D040F2800010
:102A880040F2A812C2F22000C2F22002232106F06E
:102A9800B0FCFEDE002045F2DC018AF85400C2F2E8
:102AA8000001DAF80000CAE90110DAE9016500F06E
:102AB8003FFC2844CAF824000AF10C0000218AF8D7
:102AC8005110CAF84C60DAF82410524642F8281F10
:102AD8000023516A82F828300E79002E00F0988081
:102AE800544644F8483F264644E90D1446F81C3D30
:102AF80001232372234643F8046D44F8086C44E923
:102B08000F2344E90B144146FFF7F7FD814608B14E
:102B1800032072E0DAF84000016849B1007B002820
:102B28001CBF00208AF850009AF8500080BB58E07B
:102B38000021DAE907608AF85010D0F8008006F022
:102B48003AFBBFF35F8F3268EAB11169424501D1A0
:102B5800316018E0B9B1414513D00B699BB14345C9
:102B68000DD0196979B1414507D00B695BB143456F
:102B780005D0196939B14145EFD11A4601E00A4635
:102B880019460969116106F021FB9AF8500040B313
:102B9800DAE90750066806F00EFBBFF35F8F2A6874
:102BA800EAB11169B24201D1296018E0B9B1B14264
:102BB80013D00B699BB1B3420DD0196979B1B142F9
:102BC80007D00B695BB1B34205D0196939B1B1427D
:102BD800EFD11A4601E00A4619460969116106F063
:102BE800F5FA00208AF85000DAF82C0000281EBFF9
:102BF800C168DAF83000884701208AF858008AF856
:102C080054008AF85100484606B0BDE80007F0BDF8
:102C1800012040F29811019040F23410C2F22000D5
:102C2800C2F22001009040F20000C2F2200004939A
:102C380002906846039306F0C6FBFEDE40F2800071
:102C480040F26802C2F22000C2F22002232106F0FC
:102C5800D0FBFEDE40F2800040F2B812C2F2200043
:102C6800C2F22002232106F0C4FBFEDE084640F231
:102C7800A301C2F22001022207F0F2B845F20000D7
:102C88000121C2F20000BFF35F8F80F869104EF295
:102C98000C20CEF2000010210160704745F26C0054
:102CA8000121C2F20000BFF35F8F80F869104EF275
:102CB8000C20CEF200001021016070477047704769
:102CC80080B56F4606F094FAFCE7F0B503AF2DE93E
:102CD800000B96B045F26C0648F28C59C2F2000619
:102CE800C2F2000996F86800002800F0B98006F1E1
:102CF80069000021D0E84F2F012A22D1C0E8421FE5
:102D0800002AF7D140F6ED10BFF35F8FC0F2000044
:102D180001A9029040F24430C2F2200003910190D0
:102D280096F8640080B1032816D040F2800040F283
:102D38007822C2F22000C2F22002232106F059FBB9
:102D4800FEDEBFF32F8F8BE0002047F2305186F86C
:102D580060003068C6E9010106F1080003A9FFF721
:102D680073FE18B1032086F8640075E096F86000D9
:102D7800032808D196F85C00032804BF96F8590088
:102D8800032800F09A80D9F80000022817D90020FB
:102D98000121109040F2B0220F9040F200000D91F6
:102DA80040F2A821C2F22000C2F220010E900CA825
:102DB8000C91C2F220020321002303F090FA7168FB
:102DC8000CAC4220A7F15E0227F85E0C20460223D5
:102DD800FFF777FD0C98002800F0B0800D99D9F81E
:102DE8000020032A30D30229C0F0A08040F2083125
:102DF8000222C2F220010994059114A90791012128
:102E08000A9100230692407807F8410C48F27D4069
:102E1800C0F2000008911590A7F14100149003201A
:102E28008DF84C000C2020211290002010910421D4
:102E38000C9240F22832CDE90E01119005A8C2F299
:102E48002002032103F04BFA012086F864000020D9
:102E5800BFF35F8F86F86800DDE90110C96888470D
:102E680045F20006C2F2000696F86800002800F055
:102E7800018106F169000021D0E84F2F012A19D1FC
:102E8800C0E8421F002AF7D140F6CD10BFF35F8F8C
:102E9800C0F2000014A9159040F24430C2F220009C
:102EA8000191149096F86400002840F0A7803068DB
:102EB800706059E0BFF32F8FDCE0D6E90940D0F805
:102EC800008006F078F9BFF35F8F2268EAB11169D4
:102ED800424501D1216018E0B9B1414513D00B69D1
:102EE8009BB143450DD0196979B1414507D00B69AC
:102EF8005BB1434505D0196939B14145EFD11A464F
:102F080001E00A4619460969116106F05FF9706B1C
:102F1800002186F8581000281EBFC168B06B88478A
:102F2800D9F8000002283FF632AF48E740F21832DD
:102F38000120C2F2200206F073FAFEDE9DF834008A
:102F480040F2D0038DF8140040F2CC20C2F22000E9
:102F580005AA009040F2A500C2F22000C2F22003A8
:102F68002B2106F07EFAFEDE06F044F90446F02036
:102F780006F044F941F2F470C2F220000168013110
:102F88000160D9F80020D11E18BF0121032A88BF8B
:102F98004FF0FF314A1C1CBFC9B200291BD10021C8
:102FA80040F25C22109102210D9140F23421C2F2CC
:102FB8002001C2F220020C9101210F9105A90E9166
:102FC80048F2FD41C0F200010023CDE905010CA83B
:102FD800032103F084F9204606F010F970680022F6
:102FE800D0E9000186F8602047F2305201F01F0155
:102FF800B260012202FA01F1C0F88C1006F1080053
:1030080001A9FFF721FD70BB96F860000328ABD13A
:1030180096F85C00032804BF96F859000328A3D14A
:10302800D6E90950046806F0C6F8BFF35F8F2A682E
:103038005AB31169A24201D1296026E029B3A142FD
:1030480021D00B690BB3A3421BD01969E9B1A14286
:1030580007D00B69CBB1A34213D01969A9B1A1421A
:10306800EFD11A460FE0DDE91410032286F8642038
:10307800C9688847002006F0C1F816B0BDE8000B03
:10308800F0BD0A4619460969116106F09FF8706B90
:10309800002186F8581000283FF466AFC168B06B6D
:1030A800884761E780B56F4606F095F848F290507A
:1030B8000121C2F2000001704EF20C10CEF20000A5
:1030C800F02180F858131021016000F003F8FFF791
:1030D800F7FDFEDEF0B503AF2DE9000BADF59F6DF2
:1030E800CEAC204600F023FD05A82146FFF7E0F806
:1030F8000FAA05AD02ABDDF8308007CA179C07C3DD
:10310800284601F0EBF802A9284601F0ECF84EF247
:1031180010090126CEF200090522D9F8000020F096
:103128000100C9F80000D9F8000040F00400C9F80F
:10313800000048F69F40C9F80400D9F8000040F0A4
:103148000200C9F80000D9F8000040F00100C9F8F1
:10315800000045F2DC00BFF35F8FC2F20000067189
:1031680048F23C10BFF35F8FC4F21F00016C62F39A
:1031780003010164D8F8041041F48031C8F8041040
:103188008268032161F303028260826842F01002C0
:1031980082600022C0F8EC23436861F303034360B4
:1031A800436843F010034360C0F8E823C36861F341
:1031B8000303C360C36843F01003C360C0F8E4238B
:1031C800036861F303030360036843F010030360BB
:1031D800C0F8E02302202061226122466162206952
:1031E800216921F001012161216E21F04041216610
:1031F800216960F300014FF00F10216144F2402172
:10320800A065C0F20F012661206940F4407020617A
:103218002569206920F00100206142F60010C0F203
:10322800DE7003F0D5F8206945F20001C2F2000112
:1032380065F30000206101F16800D0E84F2F42B922
:10324800BFF35F8FC0E8426F52B1D0E84F2F002A1A
:10325800F8D040F20820BFF32F8FC2F2200029E0F7
:103268000020BFF35F8F81F8640041F60000C2F2CE
:10327800200001220860BFF35F8F81F869201021C8
:10328800C9F8FC1145F26C01C2F2000101F16803B2
:10329800D3E84F6F46B9BFF35F8FC3E8462FBEB17F
:1032A800D3E84F6F002EF8D040F2F810BFF32F8FFD
:1032B800C2F2200040F2C813009040F2A50005AA0F
:1032C800C2F22000C2F220032B2106F0CAF8FEDE6B
:1032D80041F2F8730022C2F22003BFF35F8F81F836
:1032E800642001260B60BFF35F8F81F8696041F2AB
:1032F800F4761021C2F22006C9F8FC113260C3E945
:103308000024C0E900810DF59F6DBDE8000BBDE804
:10331800F04005F062BF80B56F4600F004F8BDE8E4
:103328008040FFF784BA45F2DC00C2F20000704723
:103338004EF21000CEF200000068C00345F2D8003B
:10334800C2F200000AD5BFF35F8F50E8001F0131B9
:1033580040E80012002AF8D1BFF35F8F0068704779
:1033680070474EF604504FF08061CEF200000160C5
:1033780070474EF21000CEF200000068C00358BF3C
:10338800704745F2D800BFF35F8FC2F2000050E8E3
:10339800001F013140E80012002AF8D1BFF35F8F07
:1033A80070477047014640F24430C2F2200070472F
:1033B80000477047006805F06ABF80B56F468AB05D
:1033C800019044F2B820C2F200000021D0E84F2F4B
:1033D800C0E8431F002BF9D162B348F28C50C2F207
:1033E80000000168481E18BF0120012988BF4FF05E
:1033F800FF30411C1CBFC0B200281BD1002040F286
:10340800543106900120039040F2C832059008A874
:10341800049041F20510C0F20000C2F220010990A8
:1034280001A8089002A80291C2F2200201210023FB
:1034380002F055FF00F001F8FEDE80B56F4648F255
:1034480048100521C4F21F004FF2800301603821A3
:10345800C0F8F0114CF26C00C4F20A004DF2801E64
:1034680001684AF2003CC0F2FA23C0F6F00E21F0DF
:10347800080101604CF28400C1F2E11CC4F21B0097
:1034880050F8801C41F0080140F8801C08210160B8
:103498001A46013AFDD141601A46013AFDD1016050
:1034A8001A46013AFDD141601A46013AFDD1016040
:1034B8001A46013AFDD141601A46013AFDD1016030
:1034C8007246013AFDD141607246013AFDD1016070
:1034D8007246013AFDD141607246013AFDD1016060
:1034E8007246013AFDD141607246013AFDD1016050
:1034F8001A46013AFDD141601A46013AFDD10160F0
:103508001A46013AFDD141601A46013AFDD10160DF
:103518001A46013AFDD141601A46013AFDD1624688
:10352800013AFDD1B3E7F0B503AF4DF8048D84B08F
:103538000468216879BBD0E901124FF0FF33C068F5
:1035480023600968D0F8008004F12000167803F0A1
:103558009CF901ADCDE90101284603F0B0F92846F0
:1035680003F0F5F9002E18BF01262846314603F06E
:10357800FAF92846012103F0BAF92846414603F032
:10358800C4F9284603F0A7F920680130206004B088
:103598005DF8048BF0BD40F2904040F22443C2F243
:1035A8002000A7F11102009040F2F430C2F220008E
:1035B800C2F22003102105F054FFFEDE7047704769
:1035C8007047084640F24C71C2F22001122206F000
:1035D8007EBDF0B503AF2DE9000FB3B048F2681116
:1035E800044648F23410C2F20001C2F20000016041
:1035F80001208DF8100005F004FE46F2000541F2A6
:103608003810C2F200052918BFF35F8F51E8000F88
:1036180040F0004241E80023002BF7D1B0F1FF3F12
:10362800BFF35F8F40F3118245F2FC000122C2F222
:103638000000BFF35F8F00F5C070D0E84F1FC0E8EF
:10364800432F002BF9D103940029BFF35F8F40F07B
:10365800088245F2FC004FF4C071C2F2000003F08A
:103668008EF8CDE9300149F20000C4F20D0005F5ED
:1036780086512F900020C4F22E000DF19C0B2E9045
:1036880041F2381028442D9006204FF0000ACDE969
:103698002A0105F58051299101212C904FF001094B
:1036A800CDE927505846ADF8C8A004F047F9BBE863
:1036B8007E000DF1140808F104007EC09BE87E002E
:1036C8007EC040469DF810108DF84890CDF814A0A3
:1036D80003F0D2FA03999DF848002A9104A9299188
:1036E80026A9CDF898A0CDE9278118B127A8FFF71A
:1036F8001AFF0DE005F079FD044605F06CFD05F0B4
:1037080080FD27A8FFF70FFFE00708BF05F065FD5C
:1037180048F2000AB8E85C00C2F2000A0AF10C0B91
:1037280040F2014158465CC0B8E87C007CC098E88B
:103738007C007CC000200322CAF844008023CAF819
:1037480000004FF0FF30AAF804100821CAF808005A
:10375800FF20CDE90021802102905846002203F085
:10376800D1FC0D46DAF80810C00701F10101CAF8CA
:10377800081040F08281DAF80000002840F08481C7
:103788009AF8046000200029CAF8000006F1010236
:103798008AF8042040F054814FF0FF310222CAF821
:1037A80008104021CDE9002100210290584600224E
:1037B800002303F0A7FC0C46DAF80810C00701F153
:1037C8000101CAF8081040F06481002940F03881EE
:1037D8004FF0FF304FF04009CAF8080002204FF0C0
:1037E8000008CDE900095846802100228023CDF841
:1037F800088003F087FCDAF80820C00702F101020C
:10380800CAF8082040F0488148F238104FF4007395
:10381800C2F20000002A80F8261040F2FF3180F83A
:103828002D600AF14406A0F80F104FF008018181BD
:1038380081804FF4FA51A0F82E8080F82C80A0F8EF
:103848002730A0F824900662A0F81B308476A0F8F0
:10385800189046618573866080F80680016040F0A4
:10386800EF804FF0FF304021CAF808000020CDE972
:1038780000010021029058460122002303F042FC77
:103888008946DAF80810C00701F10101CAF80810E2
:1038980040F01681002940F0D3804FF0FF304021DE
:1038A800CAF808000020CDE900018021029058469E
:1038B8000122802303F026FC8846DAF80810C007A6
:1038C80001F10101CAF8081040F00181DAF800009E
:1038D800002840F010814FF0FF300029CAF800009E
:1038E80040F00E81CAF80800584603F098FCDAF850
:1038F80008000130CAF80800C0F007814FF0FF3017
:1039080005ADCAF80800E81CBFF35F8FCAF844B0D9
:103918008021BFF35F8F07F0A5F95846812103F096
:1039280007FA5846012103F003FA5846822103F0AA
:10393800FFF95846022103F0FBF95846832103F0AA
:10394800F7F95846032103F0F3F95846842103F0A8
:10395800EFF95846042103F0EBF95846852103F0A6
:10396800E7F95846052103F0E3F95846862103F0A4
:10397800DFF95846062103F0DBF95846872103F0A2
:10398800D7F95846072103F0D3F948F24804DDE98E
:103998002701C2F20004BDF8A4206281BDF8982076
:1039A800C4F806109DF89A10C4F8020004F121002A
:1039B800A4F815208322E175294607F04DF94FF048
:1039C800806140F25E72C4E937B13221C4F8D61082
:1039D8000221C4F20001C2F22002C4F8D210102160
:1039E800A4F8D01045F62401C2F2DD710020C4F815
:1039F800CC100921C4E92F21402117F8D52C37F81C
:103A0800D73C84F8E400C4F8C400C4E92B00C4F827
:103A1800B400C4F8A400A4F81F0084F81E80A18391
:103A2800A661A4F8130084F812902182E660208031
:103A3800A4F8E53084F8E72033B0BDE8000FF0BD06
:103A480040F23C60C2F2200063E040F2A04040F245
:103A58002052C2F22000C2F220021F2105F0F9FB19
:103A6800FEDE40F2705040F2D052C2F22000C2F2A4
:103A78002002202105F0EDFBFEDE40F23C708DF8BF
:103A88001450C2F220000DE040F27C60C2F2200027
:103A98003FE08DF8144001E08DF8141040F22C70CE
:103AA800C2F2200040F28C63009040F21C7005AA1C
:103AB800C2F22000C2F220030F2105F0D2FCFEDE84
:103AC80040F20C708DF81490C2F2200005E040F22C
:103AD800FC608DF81480C2F2200040F28C630090E4
:103AE80040F2305005AAC2F22000C2F22003202181
:103AF80005F0B7FCFEDE40F26C60C2F2200008E080
:103B080040F25C60C2F2200003E040F24C60C2F276
:103B1800200040F22443009040F2F43005AAC2F29B
:103B28002000C2F22003102105F09BFCFEDEF0B558
:103B380003AF2DE9000F81B045F2E4014FF0010C0D
:103B4800C2F20001BFF35F8FD1E84F2FC1E843CF26
:103B5800002BF9D1BFF35F8F002A01BF48F20001A3
:103B6800C4F20D010022C4F22F0201BF02F5542C49
:103B780002F5502E02F54C28A1F5004401BFA1F52D
:103B8800003501F5F61601F5F413C0E9683601BFF2
:103B9800C0E96A54C0E96C8EC0E96EC101F5005EE7
:103BA80001BF01F5805640F2040CC4F22E0C01F559
:103BB800021401BF0CF5FE7501F5004300F5C0784D
:103BC80088E8380001BF00F5C67383E81210C0E921
:103BD800666EA1F5404C01BF01F5881E01F58618F7
:103BE80001F5841401F5821301BF01F5003602F5D1
:103BF8001025C0E9585600F5B47501BF85E81A418B
:103C0800C0F87CC1A1F5804C02F51C2E01BF02F55D
:103C1800182802F51424A1F5E03301F5282601BF80
:103C280001F5EE15C0E9505600F5A47585E8184170
:103C380001BFC0E9562C02F5782802F5742902F56F
:103C4800702401BF02F56C234CF2000CC4F2070C7F
:103C58000CF5004601BF01F5E03E01F58E15C0E9FF
:103C6800485EC0E94A6101BF00F5987585E8180209
:103C7800C0F83C8101F5482801BF01F5442901F548
:103C8800402A01F53C2B01F5382301BF01F5342406
:103C980001F5302501F52C26C0E9406501BFC0E9D2
:103CA8004243C0E944BAC0E9469802F5302801BF4A
:103CB80002F52C2902F5282A02F5242B02F5861391
:103CC80001BF02F5841402F5821502F58016C0E9D9
:103CD800386501BFC0E93A43C0E93CBAC0E93E983B
:103CE80001F5F01801BF01F59219A1F5503AA1F5B7
:103CF800403BA1F5303301BF01F5901401F58C1557
:103D080001F58A16C0E9306501BFC0E93243C0E950
:103D180034BAC0E9369844F2000B01BFC4F2002B54
:103D28000BF500490BF5804A4FF0844801BF01F5B7
:103D38006C2601F5682401F56425A1F5C03301BF9F
:103D4800C0E9283500F1A80383E85009C0E92EA985
:103D580001BF01F5602801F5E61901F5E81AA1F59A
:103D6800203601BF0BF5E03301F5582401F5542541
:103D7800C0E9205401BF00F1880484E84804C0E980
:103D8800259EC0F89C8001BFA1F5103E01F5FE18E4
:103D980001F5001902F5642A01BF02F5602302F556
:103DA8005C2602F5582501F5A03401BF00F1600B2F
:103DB8008BE87000C0E91B3AC0E91D9801BFC0F844
:103DC8007CE001F5803E02F540480CF5804901BFD2
:103DD80001F5804A01F5F21344F20806C4F2090617
:103DE80001BF06F1100506F10804C0E91064C0E936
:103DF800125301BFC0E914A9C0E9168E0CF5C03EE4
:103E080001F5103801BF01F5801901F57C2401F591
:103E1800782302F57C2601BF02F54825C0E908563B
:103E280000F1280585E8180201BFC0E90D81C0F836
:103E38003CE002F5442E02F50C2601BF01F5D2152F
:103E480001F5242402F54022A1F5803301BFA1F534
:103E5800A031C0E90013C0E9022C103001BF80E88E
:103E6800704001B0BDE8000FF0BD40F2677040F24D
:103E7800FC72C2F22000C2F22002352105F0B9FA24
:103E8800FEDEF0B503AF4DF804BD0E460021154621
:103E9800044602F03FFC284640F2E24102F041FCB1
:103EA800304602F004FB40F2B0552146C2F220052C
:103EB80000222846366802F021FBA81C2146002271
:103EC80002F01CFB281D2146002202F017FBA81D4A
:103ED8002146002202F012FB05F1080021460022CB
:103EE80002F00CFB05F10A002146002202F006FB55
:103EF80005F10C002146002202F000FB05F10E003E
:103F08002146002202F0FAFA05F1100021460022AB
:103F180002F0F4FA05F112002146002202F0EEFA4E
:103F280005F114002146002202F0E8FA05F1160016
:103F38002146002202F0E2FA05F11800214600228B
:103F480002F0DCFA05F11A002146002202F0D6FA46
:103F580005F11C002146002202F0D0FA05F11E00EE
:103F68002146002202F0CAFA20684169890107D572
:103F7800416921F000714161204602F0BCFB2068D4
:103F88004169012221F0605141612068816962F331
:103F98000D318161204602F0AEFB2068416941F095
:103FA80000714161204602F0A6FB4FF4805030605A
:103FB800642030604FF4005070603068002809D4E5
:103FC800306800285CBF3068002803D43068B0F13E
:103FD800FF3FF2DC20680122016962F302010161FE
:103FE800204602F088FB2068416921F4E0514161D4
:103FF800204602F080FB2068816941F440218161FC
:104008002068416921F000714161204602F073FB8C
:10401800206840F21825C2F220050022416941F4C7
:10402800407141612846214602F068FAA81C2146E1
:10403800002202F063FA281D2146002202F05EFAEF
:10404800A81D2146002202F059FA2068022640F2F3
:1040580028250022C2F22005816B66F3D8418163CE
:104068002068816B41F4802181632846214602F053
:1040780045FAA81C2146002202F040FA281D2146D4
:10408800002202F03BFAA81D2146002202F036FA6F
:10409800206840F60C050322C2F22005816966F308
:1040A800051181612068816962F39C6181612846FC
:1040B8002146002202F022FAA81C2146002202F022
:1040C8001DFA281D2146002202F018FAA81D2146D3
:1040D800002202F013FA05F108002146002202F03E
:1040E8000DFA2068172240F21445C2F22005C16972
:1040F80062F30501C16120680022C16941F04001F5
:10410800C1612846214602F0F9F9A81C214600227F
:1041180002F0F4F9281D2146002202F0EFF9A81D4B
:104128002146002202F0EAF905F1080021460022A2
:1041380002F0E4F905F10A002146002202F0DEF956
:1041480005F10C002146002202F0D8F905F10E0015
:104158002146002202F0D2F9206840F61605C2F284
:1041680020050322416A41F0400141622068416A0A
:1041780066F3050141622846214602F0BFF9A81CF2
:104188002146032202F0BAF9281D2146032202F033
:10419800B5F9A81D2146032202F0B0F905F108007F
:1041A8002146032202F0AAF905F10A00214603225A
:1041B80002F0A4F905F10C002146032202F09EF951
:1041C80005F10E002146032202F098F905F11000CE
:1041D8002146032202F092F905F11200214603223A
:1041E80002F08CF905F114002146032202F086F949
:1041F80005F116002146032202F080F905F11800A6
:104208002146032202F07AF905F11A002146032219
:1042180002F074F905F11C002146032202F06EF940
:1042280005F11E002146032202F068F905F120007D
:104238002146032202F062F905F1220021460322F9
:1042480002F05CF905F124002146032202F056F938
:1042580005F126002146032202F050F905F1280055
:104268002146032202F04AF905F12A0021460322D9
:1042780002F044F905F12C002146032202F03EF930
:1042880005F12E002146032202F038F905F130002D
:104298002146032202F032F905F1320021460322B9
:1042A80002F02CF905F134002146032202F026F928
:1042B80005F136002146032202F020F905F1380005
:1042C8002146032202F01AF905F13A002146032299
:1042D8005DF804BBBDE8F04002F010B980B56F4648
:1042E80000F015FF80BD80B56F464EF20C1C4FF4F0
:1042F800003ECEF2000C44F2BC22CCF880E0C2F2C0
:104308000002BFF35F8FD0E900318068C2E9003155
:104318009060BFF35F8FCCF800E1CCF800E080BD7F
:10432800F0B503AF4DF8048D86B045F2E808C2F247
:104338000008D8F8000028B106B05DF8048BBDE885
:10434800F040004744F2BC20C2F200000068062892
:1043580032D100F0BDFF00F0BAFF039048F26810B8
:10436800C2F20000012200F21240BFF35F8FD0E8D2
:104378004F1FC0E8432F002BF9D10029BFF35F8FEF
:1043880058D148F268144FF48061C2F20004204604
:1043980006F066FC04F00FFF0646204601F03BFEDF
:1043A80003A8FFF716F942F67360C0F2000001F0A7
:1043B80027FF0546304635E000F08AFF00F087FF0A
:1043C800029048F26810C2F20000012200F2124086
:1043D800BFF35F8FD0E84F1FC0E8432F002BF9D100
:1043E800BFF35F8FC1BB48F268154FF48061C2F21A
:1043F8000005284606F034FC04F0DDFE44F2BC213A
:104408000446C2F20001284600F063FE08BB02A879
:10441800FFF7DFF842F67360C0F2000001F0F0FE2B
:104428000546204604F0D2FEC8F8005006B05DF8F4
:10443800048BF0BD49F20000C4F20D000590002085
:10444800C4F22E00CDE9030040F60010C2F22000AD
:1044580010E0204604F0BAFE49F20000C4F20D0054
:1044680005900020C4F22E00CDE9030040F6F000CC
:10447800C2F2200040F68003009040F6520003AAE2
:10448800C2F22000C2F220032B2104F0EAFFFEDE74
:10449800FEE7D0B502AF84B004460088062812D1E2
:1044A800A0690168BFF35F8F81B10020A27F40F649
:1044B8001013009002A8C2F2200302F098FF08200F
:1044C800208004B0D0BD072004B0D0BD40F6A810AD
:1044D80040F62C22C2F22000C2F22002222104F06F
:1044E80088FFFEDEF0B503AF4DF804BD86B0044684
:1044F80008880D46411E032928D3052826D00728F9
:1045080036D1D5F8AC00D5F8063069898128D5F8B8
:104518000220ADF80C10CDE9012373D2E9680968CF
:10452800BFF35F8F002961D0C0F18003AA7C2844C3
:10453800009300F1240304A803F01CF89DF8100070
:1045480000283ED09DF8110008BB34E0E8680168F7
:10455800BFF35F8F002949D0AA7C40F6101304A846
:104568000026C2F22003009603F004F82E8022E011
:10457800E8680168BFF35F8FC1B30020AA7C40F6EA
:104588001013009004A8C2F2200302F0F3FFE868B9
:10459800092129800068BFF35F8F38B3A97C012205
:1045A80003F0ABF8A8690068BFF35F8FF0B1A97F8B
:1045B800012203F0A2F80420607206B05DF804BB83
:1045C800F0BD0598D5E92B120844C5F8AC00904217
:1045D800F1D3DDE901010623BDF80C202B80206012
:1045E8006160228106B05DF804BBF0BD40F6A810FA
:1045F80040F62C22C2F22000C2F22002222104F04E
:10460800F8FEFEDE40F678128021C2F2200205F0A4
:10461800BCFDFEDEF0B503AF2DE9000F85B0044602
:10462800C8680D460168BFF35F8F002900F08B80D2
:1046380005F124068020AA7C009002A8334602F0E7
:1046480099FF9DF8080018B19DF8090060B921E0AC
:10465800039A812A80F0838002A8314604F057F932
:104668009DF8110004281BD1E868092129800068F9
:10467800BFF35F8F002866D0A97C012203F03DF8C4
:10468800A8690068BFF35F8F00285CD0A97F01226A
:1046980003F033F80420607205B0BDE8000FF0BDE8
:1046A800E868BDF810A09DF80F609DF80E90BDF861
:1046B8000CB0DDF808800068BFF35F8F002842D097
:1046C800A97C002203F019F8BEB10420A5F80AA0BD
:1046D8006E7285F80890A5F806B0C5F802802880A3
:1046E800A4F808A0E67184F80690A4F804B0C4F809
:1046F800008005B0BDE8000FF0BDBBF1000F11D080
:10470800BBF1800FB0D80020A5F80AA0C5E92B0B93
:104718006872072085F80890A5F806B0C5F80280E9
:104728002880B7E70620A4F808A028800020C5F84C
:10473800B000E07184F80690A080C4F8008005B04D
:10474800BDE8000FF0BD40F6A81040F62C22C2F2DA
:104758002000C2F22002222104F04BFEFEDE40F6C9
:1047680088131046C2F2200380211A4605F02EFD58
:10477800FEDEB0B502AF84B00446D0E92951D0F8C6
:10478800AC00D4F8B0C0002DA38BAE46ACEB000251
:1047980008BF04F1240E9A4238BF1346002D03EBDC
:1047A800000C08BF80219C4525D38C452BD8A169D6
:1047B8000968BFF35F8F71B3A27F00930EEB00030C
:1047C80002A802F014FE9DF8080008B104B0B0BDBC
:1047D8000398D4E92B120144C4F8AC109142F5D3E4
:1047E8000021A28BC4F8A4100321904208BF022123
:1047F800218004B0B0BD40F698126146C2F2200292
:1048080005F005FDFEDE40F698126046C2F2200271
:1048180005F0DCFCFEDE40F6A81040F62C22C2F2C1
:104828002000C2F22002222104F0E3FDFEDED4D4EF
:10483800B0B502AF84B0044600880138072834D8E0
:10484800DFE800F0040B24333333334B2046FFF703
:1048580090FF0025284604B0B0BDA0690168BFF3E9
:104868005F8F00293FD0A27F40F6101302A80025D1
:10487800C2F22003009502F0BAFD9DF80800002856
:1048880004BF03202080284604B0B0BDE06800685B
:10489800BFF35F8F38B3A17C0022002502F02DFF03
:1048A80005202080284604B0B0BDE0680921218099
:1048B8000068BFF35F8FB0B1A17C012202F01DFF39
:1048C800A0690068BFF35F8F68B1A17F012202F081
:1048D80014FF0025284604B0B0BD00200125208023
:1048E800284604B0B0BD40F6A81040F62C22C2F20B
:1048F8002000C2F22002222104F07BFDFEDED0B5AA
:1049080002AF0446008800F00D00042815D1E068C5
:10491800092121800068BFF35F8F80B1A17C01224B
:1049280002F0EBFEA0690068BFF35F8F38B1A17F8A
:10493800012202F0E2FE0820D0BD0720D0BD40F6DB
:10494800A81040F62C22C2F22000C2F22002222136
:1049580004F04FFDFEDEF0B503AF2DE9000788B087
:104968008246008804284CD191E850026D460AF12D
:10497800240128468022BAF8068003F0EAFF21685D
:10498800284604F0D8F8C0B2082836D1B9F1000F8B
:1049980010D006EBC9046D46D6E90001CA6829465D
:1049A8009047C0B2082828D1284604F02CF90836C8
:1049B800A642F1D16D46284604F028F9284603F0AE
:1049C800D1FF802822D9DAF80C000921AAF80010B2
:1049D8000068BFF35F8F50B39AF81210012202F0FB
:1049E8008CFEDAF818000068BFF35F8FF8B19AF808
:1049F8001E10012202F081FE022008B0BDE8000767
:104A0800F0BD072008B0BDE80007F0BD404538BF3D
:104A1800804601200021AAF800005046CAE92B1858
:104A2800FFF7A7FE082008B0BDE80007F0BD40F674
:104A3800A81040F62C22C2F22000C2F22002222145
:104A480004F0D7FCFEDEF0B503AF4DF804BD8AB024
:104A580004460088042833D101AD04F124018022E2
:104A6800E688284603F075FF40F20940A7F11202D4
:104A780027F8120C28460321022303F075FFC0B261
:104A8800082819D101A803F06DFF80281DD9E06816
:104A9800092121800068BFF35F8F30B3A17C012218
:104AA80002F02BFEA0690068BFF35F8FE8B1A17F19
:104AB800012202F022FE02200AB05DF804BBF0BD1C
:104AC80007200AB05DF804BBF0BDB04238BF064607
:104AD8000120002120802046C4E92B16FFF749FE5B
:104AE80008200AB05DF804BBF0BD40F6A81040F6F7
:104AF8002C22C2F22000C2F22002222104F079FC0A
:104B0800FEDEF0B503AF4DF804BD04460088042866
:104B180006D14D68802D07D902205DF804BBF0BD91
:104B280007205DF804BBF0BD096804F124002A469B
:104B3800E68806F091F80020B54238BF2E46C4E951
:104B48002B06012020802046FFF713FE08205DF881
:104B580004BBF0BDF0B503AF2DE9000B88B00446E7
:104B68000088042830D1D1E90056E84604F1240130
:104B780040468022B4F8069003F0EBFE40462946F2
:104B8800324604F035F9C0B2082819D1684603F056
:104B9800E9FE80281DD9E068092121800068BFF35B
:104BA8005F8F30B3A17C012202F0A7FDA0690068E5
:104BB800BFF35F8FE8B1A17F012202F09EFD0220C2
:104BC80008B0BDE8000BF0BD072008B0BDE8000B39
:104BD800F0BD484538BF814601200021208020468D
:104BE800C4E92B19FFF7C5FD082008B0BDE8000B84
:104BF800F0BD40F6A81040F62C22C2F22000C2F206
:104C08002002222104F0F5FBFEDEF0B503AF2DE90A
:104C1800000F8BB083460088042826D10D46E9464C
:104C28000BF12401904648468022BBF806A003F009
:104C380090FE08AE4946304604F09BF9304604F031
:104C48009CF9C0B208280CD108AE4FEAC8048CB150
:104C5800F5E802010A6931469047083CC0B20828C5
:104C6800F5D00BB0BDE8000FF0BD07200BB0BDE8D4
:104C7800000FF0BD08A804F052FA684603F072FE6F
:104C880080281DD9DBF80C000921ABF8001000685A
:104C9800BFF35F8F28B39BF81210012202F02DFD9D
:104CA800DBF818000068BFF35F8FD0B19BF81E10C7
:104CB800012202F022FD02200BB0BDE8000FF0BD7A
:104CC800504538BF824601200021ABF80000584605
:104CD800CBE92B1AFFF74DFD08200BB0BDE8000FFC
:104CE800F0BD40F6A81040F62C22C2F22000C2F215
:104CF8002002222104F07DFBFEDEF0B503AF4DF863
:104D0800048D88B00446008804282ED10D686E46AC
:104D180004F1240130468022B4F8068003F019FE1D
:104D28003046294603F06DFEC0B2082819D16846FE
:104D380003F018FE80281DD9E06809212180006849
:104D4800BFF35F8F30B3A17C012202F0D6FCA069CB
:104D58000068BFF35F8FE8B1A17F012202F0CDFCAC
:104D6800022008B05DF8048BF0BD072008B05DF89C
:104D7800048BF0BD404538BF8046012000212080CB
:104D88002046C4E92B18FFF7F4FC082008B05DF8AA
:104D9800048BF0BD40F6A81040F62C22C2F2200089
:104DA800C2F22002222104F024FBFEDE006804F097
:104DB80009BE0A46D0E9000105F0E1B9704770471D
:104DC800F0B503AF4DF804BD84B0006880290668CB
:104DD8004FF00000029003D28DF80810012434E04F
:104DE800B1F5006F09D20224084664F39F108DF8CC
:104DF8000900C02040EA911025E002200A4660F32D
:104E08009F12B1F5803F0DD28DF80A208A0960F310
:104E18009F12E02040EA11308DF809208DF8080033
:104E2800032412E08DF80B208A0960F39F128DF895
:104E38000A200A0B042460F39F12880C1E218DF8A7
:104E4800092061F3DF008DF8080004F0B4F9054685
:104E5800B068B8B94FF0FF3006F10C02B06002A894
:104E6800214601F0E2F80446B0680130B0602846F7
:104E780004F0ACF9E0B2033818BF012004B05DF8C3
:104E880004BBF0BD40F6F02040F67C23C2F22000BF
:104E9800A7F11102009040F2F430C2F22000C2F2F1
:104EA8002003102104F0DDFAFEDE80B56F4682B0E3
:104EB80000680A4640F63C21019001A8C2F2200190
:104EC80004F085FD02B080BDF0B503AF4DF8048D48
:104ED80082B0006815460E46046804F06CF98046F6
:104EE800A068B8B94FF0FF3004F10C02A06030465A
:104EF800294601F09AF80546A0680130A0604046AE
:104F080004F064F9E8B2033818BF012002B05DF874
:104F1800048BF0BD40F6F02040F67C23C2F220005E
:104F2800A7F11102009040F2F430C2F22000C2F260
:104F38002003102104F095FAFEDEF0B503AF2DE949
:104F4800000748F28C52D1F80080C2F200021368C0
:104F5800B8EB030218BF0122984538BF4FF0FF3263
:104F6800531C1CBFD2B2002A29D142685AB3006828
:104F78000025D1E9019A02EB4201061D8C0005E0EB
:104F88000C3C06F10C0605F1010518D030685045B7
:104F9800F6D156F8040C4946524605F05FFE002843
:104FA800EED1706800218045A0F10600B0FA80F0CB
:104FB80098BF012140090843BDE80007F0BD002063
:104FC800BDE80007F0BD0120BDE80007F0BDF0B561
:104FD80003AF2DE9000F93B08146084648F28C5084
:104FE8000091C2F20000D1F820A00168BAEB0100DC
:104FF80018BF01208A4538BF4FF0FF30411C1CBF45
:10500800C0B2002824D1D9F8040028B3009900EBD5
:1050180040004FF00008D1E909B48600D9F8001023
:105028000D1D05E00C3E05F10C0508F101080FD037
:105038002868A042F6D155F8040C5946224605F0D6
:105048000DFE0028EED16868062818BF824506D9EB
:1050580013B0BDE8000FF0BD0098D0E909B401A86D
:105068000290002040F63C2107900420049040F66E
:105078005C20C2F2200003AA03900320069009A82E
:10508800059042F6FD20C0F20000C2F220010E9009
:1050980012A80D9042F60330C0F20000CDF804903B
:1050A8000C9010A80B9043F67970C0F20000CDF870
:1050B8003CA00A900FA809900098CDE910B42C30B4
:1050C800129002A804F083FC13B0BDE8000FF0BDF5
:1050D8007047D0B502AF45F2EC020C46D1E9011396
:1050E800C2F200024FF0000CD06082E80A1040F6CD
:1050F8000031C2F22001104601F0A8F8002801BFD3
:10510800216848F28C52C2F200021160D0BD40F60C
:1051180010120021C2F220020523C0E9003281608A
:105128007047F0B503AF2DE9000B84B040F6183096
:1051380048F2301848F24805C2F220000390C2F243
:10514800000808F10800C2F2000502A902902846EA
:10515800012200F04BFB04460021D5F8DC00029147
:1051680002A900F02AFD064695F8E21098F800001A
:10517800022937D168B9D5F8DC0001F081FF002198
:10518800D5F8DC00029102A900F05EFC012088F845
:105198000000D8F81C000168BFF35F8F002900F0F9
:1051A8008A80002098F8222040F61013009002A868
:1051B800C2F22003344302F0DDF97CB1D8F80400D0
:1051C8000122BFF35F8F00F58264D4E84F1FC4E863
:1051D800432F002BF9D1BFF35F8F91B104B0BDE825
:1051E800000BF0BD30B10021D5F8DC00029102A916
:1051F80000F08DFC002088F8000004B0BDE8000B2A
:10520800F0BDD0F80014BFF35F8FD0F80824BFF3C7
:105218005F8FD0F8043400F20445BFF35F8F9342E8
:1052280005D199423EBFBFF35F8F00232B6099429F
:1052380028BF0A469A4236D0D8F828100968BFF322
:105248005F8FC1B3A2EB030998F82E20034402A88C
:105258004E46B9F1400F28BF4026009602F0C7F825
:105268009DF8080068B12078BFF35F8F0028B5D09B
:10527800BFF35F8F55E8000F45E800010029F9D119
:1052880011E003982178BFF35F8F0029A6D08145EC
:1052980038BF4846BFF35F8F55E8001F014445E813
:1052A8000012002AF8D10020BFF35F8F207004B0ED
:1052B800BDE8000BF0BD40F6A81040F62C22C2F263
:1052C8002000C2F22002222104F093F8FEDE70478B
:1052D8004FF47A607047F0B503AF4DF8048D8C46F3
:1052E800816881B3C36841698B4249D20269D0F8A9
:1052F80018E0D45C0134D4540EF102038B421ED85A
:105308000EF58074A14238BF0C469C4248D3E41A7B
:10531800052C14D39CF80640BCF80450D45413440C
:105328000EF107049CF808608C429CF807805E70B8
:105338004FEA15269D7083F80480DE7007D9022095
:105348005DF8048BF0BD07205DF8048BF0BD8E4539
:105358001ED2072302F80E300EF101038B423FBF25
:105368000521D154846108203CBF5DF8048BF0BD51
:1053780040F6D032C2F22002184604F051F8FEDEA0
:1053880040F6E032C2F22002184604F049F8FEDE88
:1053980040F6C0327046C2F2200204F041F8FEDE48
:1053A80040F6B0321846C2F22002214604F02FFF20
:1053B800FEDEF0B503AF2DE9000784B01D46904628
:1053C80089468246D6000C4686B1F4E802012A4690
:1053D8004B6A51469847BAF80000083E00F00D00A5
:1053E8000428F1D004B0BDE80007F0BD687A20B306
:1053F800BAF8000000F00D000428F3D1DAF80C0028
:105408000921AAF800100068BFF35F8F00286CD04C
:105418009AF81210012202F070F9DAF81800006800
:10542800BFF35F8F002860D09AF81E10012202F0A7
:1054380064F904B0BDE80007F0BD297AA87902290B
:1054480016D0012923D00029D2D198B3062843D0F9
:105458000828CDD19AF8E20001210391A7F1220191
:1054680002380291B0FA80F0400907F8220C2EE0C9
:105478000028BDD16988DAF8DC0001F08F0102F05C
:10548800BEF902210391A7F1220102911DE050B15A
:105498000A28ADD101200390A7F122000290002034
:1054A80007F8220C13E002200390A7F122000290D3
:1054B80000200AE09AF8E00002229AF8E11003922C
:1054C800A7F12202029241EA400027F8220C02A921
:1054D8005046FFF716FB8BE70AF1B40049464246EF
:1054E8005346009500F0D6F882E740F6A81040F63B
:1054F8002C22C2F22000C2F22002222103F079FFFE
:10550800FEDED4D4F0B503AF4DF8048D84B01D464B
:105518000E468046D4006CB1F6E802012A460B6AB2
:1055280041469847B8F80000083C00F00D000428F0
:10553800F1D09DE0687A38B1B8F8000000F00D00AD
:10554800042840F0958061E02A7AA8792988022AFF
:105558002FD0012A0FD0002A58D10138082855D851
:10556800DFE800F005544054465454544F000129D4
:105578004CD1002039E00B2808BF002946D1B8F8E3
:1055880000000628D8D1D8F818000168BFF35F8F4B
:10559800002961D098F81E20002040F610130090D2
:1055A80002A8C2F2200301F022FF0820A8F8000098
:1055B800C2E701280CD0032808BF002926D1698832
:1055C8000122D8F8DC0001F08F0102F096F859E0CA
:1055D800E1B969880022D8F8DC0001F08F0102F0F7
:1055E8008CF84FE0012911D1012088F8E00049E04A
:1055F800481E80B27F2809D2D8F8DC0001F0C1FD2E
:105608003DE0C9B3012901D1022039E0B8F8000012
:1056180000F00D0004282BD1D8F80C000921A8F8B7
:1056280000100068BFF35F8FB0B198F81210012224
:1056380002F063F8D8F818000068BFF35F8F0028FD
:105648001FBF98F81E10012204B05DF8048B1CBF20
:10565800BDE8F04002F051B840F6A81040F62C2200
:10566800C2F22000C2F22002222103F0C2FEFEDEB6
:1056780004B05DF8048BF0BD98F8E20030B1012069
:1056880088F8E2004046FEF704FF55E74046FFF77A
:1056980036F951E7F0B503AF2DE9000B88B006469F
:1056A800B86814460D469846019601890268406814
:1056B800ADF81010CDE9022002A803F046F94FF02A
:1056C800FF3252FA80F00E2800F26180DFE800F025
:1056D80008101C5F5F5F5F5F5F5F5F5F5F5F2A004F
:1056E80001A94046FFF709FB08B0BDE8000BF0BD73
:1056F80001A805A905904046CDE90654FFF72BF906
:1057080008B0BDE8000BF0BDC8B2032813D8DFE825
:1057180000F0022428384046FFF795F908B0BDE8A4
:10572800000BF0BD404629462246FFF76EFA08B046
:10573800BDE8000BF0BD084603F00AF9BDF80A60A1
:105748008146E4001CB3F5E8020132464B6949463C
:105758009847083C0028F5D009E0311D306828B981
:1057680015E006F10C010836306880B10968CDE90A
:10577800050105A94046FFF7EDF908B0BDE8000BA3
:10578800F0BD06F11401103630680028EED1B8F8E3
:10579800000000F00D000428A6D1D8F80C0009215B
:1057A800A8F800100068BFF35F8F98B198F812103E
:1057B800012201F0A2FFD8F818000068BFF35F8F3C
:1057C80040B198F81E10012201F097FF08B0BDE81B
:1057D800000BF0BD40F6A81040F62C22C2F22000C3
:1057E800C2F22002222103F004FEFEDEF0B503AF70
:1057F8002DE9000F8BB0D0F8DC400646A7F12E004B
:1058080088469246214602F04DF896F8E20037F8AD
:105818002E5C032816D1002D4FF0000018BF032D71
:1058280003D10BB0BDE8000FF0BD204602F039F8F7
:1058380096F8E300042800F0FB80042186F8E200D3
:1058480086F8E310DFE805F00308274A0300002084
:105858000BB0BDE8000FF0BDD6F8DC0001F024FD68
:1058680000204FF48061BAF1000F86F8E40086F852
:10587800E000A6F8E2103080E9D008EBCA04A8F1ED
:10588800080555F8080F69688969884705F108000F
:10589800A042F6D1DBE737F82C0C37F82A1C37F88A
:1058A800282C0390084340EA0209059104925FEA14
:1058B800C9704DD00598C0071CBF3046FEF7B8FF29
:1058C8000498C0071AD10398C00721D1042007F80B
:1058D8001D0C17F81D0C042823D137E0D6F8DC007E
:1058E80001F0DFFF96F8E20086F8E300032086F86F
:1058F800E20000200BB0BDE8000FF0BDA7F12600C4
:105908003146FEF787FE17F81D0C042809D11DE063
:10591800A7F126003146FEF7E5FD17F81D0C04280F
:1059280014D017F81F0C002873D080280ED1A7F1C7
:105938002603304641465246FFF73BFD29F0010950
:10594800B9F1000FCDE9018A07D14DE029F001092D
:10595800B9F1000FCDE9018A46D00299002953D048
:1059680001984FF0020B012600EBC108A0F10805D1
:1059780004982C461BEA000F0AD054F8080F6168F7
:105988008A6A3146904704F108004045F5D10EE097
:1059980003982C461BEA000F09D054F8080F6168D9
:1059A800CA6A3146904704F108004045F5D1059888
:1059B8001BEA000F0DD066F07F04AA465AF8080FBC
:1059C800DAF804100A6B214690470AF108004045AE
:1059D800F4D129EA0B095FEA094005D0701C0F2EA3
:1059E8004FEA4B0B0646C3D3029969B1019800EB05
:1059F800C104A0F1080555F8080F6968C969884706
:105A080005F10800A042F6D101200BB0BDE8000F57
:105A1800F0BDA7F12603304641465246FFF772FD16
:105A280029F00109B9F1000FCDE9018A95D1DBE729
:105A380040F6F03040F66C42C2F22000C2F220027A
:105A48001C2103F006FCFEDEF0B503AF4DF804BDE3
:105A580084B0044690F834000E68C8B12068002865
:105A680042D14FF0FF31204640F8201B314600F06C
:105A78000CFFCDE9010101A800F08DFF00281CBF33
:105A88000DF1040000F005FF20680130206027E0D8
:105A980003F0ABFB054603F09EFB03F0B2FB206866
:105AA80010BB4FF0FF31204640F8201B314600F074
:105AB800ECFECDE9010101A800F06DFF00281CBF34
:105AC8000DF1040000F0E5FE206801302060E807D1
:105AD80006D104B05DF804BBBDE8F04003F07DBB1F
:105AE80004B05DF804BBF0BD40F6E84040F67C43E6
:105AF800C2F22000A7F11102009040F2F430C2F285
:105B08002000C2F22003102103F0ABFCFEDEF0B54A
:105B180003AF4DF804BD84B0044690F834000D6816
:105B280090B12068B0BB4FF0FF302946206004F1E7
:105B3800200000F0AAFECDE9010101A800F0BFFE97
:105B480020680130206021E003F04FFB064603F097
:105B580042FB03F056FB2068E0B94FF0FF302946BE
:105B6800206004F1200000F090FECDE9010101A8B9
:105B780000F0A5FE206801302060F00706D104B0CF
:105B88005DF804BBBDE8F04003F027BB04B05DF846
:105B980004BBF0BD40F6E84040F67C43C2F220006A
:105BA800A7F11102009040F2F430C2F22000C2F2D4
:105BB8002003102103F055FCFEDEF0B503AF4DF8CD
:105BC80004BD84B0044690F834000E68D8B120684B
:105BD800002858D14FF0FF31204640F8201B3146AD
:105BE80000F053FECDE9010101A800F0A0FE60B36A
:105BF80001AD284600F0ABFE284600F098FE0028CC
:105C0800F7D1012626E003F0F0FA054603F0E3FA9F
:105C180003F0F7FA2068B0BB4FF0FF31204640F898
:105C2800201B314600F031FECDE9010101A800F04A
:105C38007EFEB8B101AE304600F089FE304600F075
:105C480076FE0028F7D1012611E001A800F02DFE0C
:105C580080F00106206801302060304604B05DF80D
:105C680004BBF0BD01A800F020FE80F0010620680A
:105C780001302060E80708BF03F0AFFA304604B0EF
:105C88005DF804BBF0BD40F6E84040F67C43C2F244
:105C98002000A7F11102009040F2F430C2F2200077
:105CA800C2F22003102103F0DCFBFEDE0020704767
:105CB80070470820704770477047F0B503AF4DF83C
:105CC800048D0546507A012802BF1646107A01282D
:105CD80002D05DF8048BF0BD95F82C0088467488D6
:105CE80002F036FEC0B28442F3D1B079212804BF55
:105CF800B088072830D0B8F8000000F00D0004285C
:105D0800E7D1D8F80C000921A8F800100068BFF303
:105D18005F8FA8B198F81210012201F0EEFCD8F8B4
:105D280018000068BFF35F8F00281FBF98F81E1087
:105D380001225DF8048BBDE8F04018BF01F0DDBC1E
:105D480040F6A81040F62C22C2F22000C2F220022F
:105D5800222103F04EFBFEDEB8F800000428B8D17B
:105D6800B8F80600002329796A790728C8F8AC3002
:105D7800AB792E684FF00105A8F80050C8F82460E8
:105D880088F8283088F8292088F82A1028BF0720A2
:105D9800C8F8B00040465DF8048BBDE8F040FEF757
:105DA800E8BCF0B503AF4DF8048D84B00546507AD1
:105DB800012802BF1646107A012803D004B05DF806
:105DC800048BF0BD95F82C008846748802F0C0FD5D
:105DD800C0B28442F2D1B07988B1202814D02228E8
:105DE80047D13078B8F8001000F0010285F82E206D
:105DF800C0F3400085F82F000629DFD121E0B8F86C
:105E080000000628DAD11CE0D8F8B000812862D258
:105E180006282ED998F82800D8F82410296000F010
:105E2800F0F998F82910C0B2A871084600F0EEF908
:105E380098F82A20C0B2B8F8001068712A710629AB
:105E4800BCD1D8F818000168BFF35F8FB9B398F8D0
:105E58001E20002040F61013009002A8C2F2200372
:105E680001F0C5FA0820A8F8000004B05DF8048B1A
:105E7800F0BDB8F8000000F00D0004289ED1D8F855
:105E88000C000921A8F800100068BFF35F8FB0B1BB
:105E980098F81210012201F030FCD8F818000068B8
:105EA800BFF35F8F00281FBF98F81E10012204B0AF
:105EB8005DF8048B1CBFBDE8F04001F01EBC40F645
:105EC800A81040F62C22C2F22000C2F220022221A1
:105ED80003F08FFAFEDE40F660528021C2F2200203
:105EE80004F074F9FEDEF0B503AF2DE9000B84B0C1
:105EF80090F82C60814600250220CDE900050C466B
:105F0800084631460222022302F091FEC0B2082858
:105F18006ED12046314602220223009502F0DDFEB2
:105F2800C0B2082864D140F670522046C2F220025E
:105F38002421032302F018FDC0B2082858D140F6E6
:105F480073522046C2F220022421022302F00CFDE3
:105F5800C0B208284CD1304602F0FAFC99F82D80DE
:105F68000646404602F0F4FC07F81C0C0620A7F190
:105F78001E0207F81E0C20462421032307F81D6C77
:105F880002F0F2FCC0B2082832D1404602F0E0FC30
:105F980007F8190C0120A7F11B0227F81B0C204653
:105FA8002421032302F0E0FCC0B2082820D109F123
:105FB80008012046FFF78FF9C0B2082818D1002041
:105FC8004146009020460A22002302F086FEC0B215
:105FD80008280DD109F120012046FFF77CF9C0B24D
:105FE800082805D109F114012046FFF774F9C0B259
:105FF80004B0BDE8000BF0BDD0B502AF82B00446D6
:10600800684600F008F9DDE90001C4E90001002054
:10601800E08502B0D0BD48F27C51C2F20001886030
:106028000120BFF35F8F08707047F0B503AF2DE90B
:10603800000F81B0D2F8008089460446012108F299
:106048001145BFF35F8FD5E84F0FC5E8421F002AFF
:10605800F9D1BFF35F8F20B1012001B0BDE8000F77
:10606800F0BDD8F80004BFF35F8FD8F80414BFF36D
:106078005F8F884204D2C24311EB020B0BD176E04A
:10608800B0F5806F05D1012971D9A1F1010B00206C
:1060980001E0C0F5806BCA46CB4538BFDA460AEB4B
:1060A80000014044BFF35F8FC8F80C1421465246E4
:1060B80004F0D2FD98F8110408F20C46BFF35F8F84
:1060C80058B3D8F80004BFF35F8FBFF35F8F56E86B
:1060D800001F46E80012002AF9D1BFF35F8FB0F520
:1060E800806FD8F80824BFF35F8FD8F80C14BFF37B
:1060F8005F8F01D0814203D3914205D94FF480606C
:10610800BFF35F8FC8F80804BFF35F8FC8F80014A7
:106118000020BFF35F8F88F81104CB456BD204EBE6
:106128000A01A9EB0A020123BFF35F8FD5E84F0FDD
:10613800C5E8443F002CF9D10028BFF35F8F7FF4F6
:106148008BAFD8F80004BFF35F8FD8F80434BFF3DF
:106158005F8F984203D2C4431B1913D107E0B0F5EF
:10616800806F0DD1012B02D9013B00200AE00020ED
:106178000021BFF35F8F297001B0BDE8000FF0BDAB
:10618800C0F58063934238BF1A4613184044BFF3E2
:106198005F8FC8F80C3404F05FFD98F81104BFF362
:1061A8005F8F40B3D8F80004BFF35F8FBFF35F8FF2
:1061B80056E8001F46E80012002AF9D1BFF35F8FA6
:1061C800B0F5806FD8F80824BFF35F8FD8F80C14A7
:1061D800BFF35F8F01D0814203D3914205D94FF4B9
:1061E8008060BFF35F8FC8F808040320BFF35F8F98
:1061F800C8F80014BCE7032001B0BDE8000FF0BDEB
:106208007047C1B2032928BF00207047C1B20529D1
:1062180028BF0020704708218180002181714FF438
:10622800FA51016070477047006840F6BC52C2F2EC
:1062380020020B4652F8301002EBC00042681846A4
:1062480003F00EBE002070477047704780B56F4658
:1062580048F2885EC2F2000E5EE8003F53B94FF084
:10626800010CBFF35F8F4EE800C22AB15EE8003F21
:10627800002BF8D0BFF32F8FBFF35F8F13B1012B23
:106288001ED02AE044F2C822C2F20002C2E900018C
:106298000220BFF35F8FCEF800000020BFF35F8FAE
:1062A80080BD10BFDEF80000BFF35F8F012801BF7B
:1062B80010BFDEF80000BFF35F8F01280DD110BFBB
:1062C800DEF80000BFF35F8F012801BF10BFDEF8C2
:1062D8000000BFF35F8F0128E3D0012080BDF0B537
:1062E80003AF2DE9000F91B0002B3ED102F1100B46
:1062F800D2E9009AD2E9026348F28852C2F2000257
:106308009BE83008D2F800E044F2C822BFF35F8F60
:10631800C2F20002D2E900C808AACDE90363002648
:10632800CDE90645BEF1020F82E8020690E83E007C
:10633800406910900BA83EC04FF0010069460090DC
:1063480040F69050C2F220000596CDE901B608BF8C
:106358004046026940F67850C2F2200008BF604605
:10636800904711B0BDE8000FF0BD40F6426040F61E
:106378009862C2F22000C2F22002552103F039F8D7
:10638800FEDE00680A4640F64E7140F64C73C2F2D3
:106398002001C2F220030078002810464FF00202C4
:1063A80008BF194603F093BE7047A1F1080240F6F2
:1063B800F87392B29A4221BF0222027102607047BA
:1063C80000220139C0F8062081808272026070477D
:1063D80080B56F46C1B1814222D8B0FBF1F3B0FB62
:1063E800F3F0884288BF0133981E38BF0020FF2889
:1063F80028BFFF2000F0FE0140EAC11040F0F8502D
:1064080040F4F810106480BD40F6207040F60C721D
:10641800C2F22000C2F22002192102F0EAFFFEDED9
:1064280040F6207040F63C72C2F22000C2F2200210
:10643800192102F0DEFFFEDE0278023AD3B2042B05
:1064480028BF0122D2B2DFE802F0021D0B1440F689
:1064580050720846C2F220021146092203F037BEE4
:1064680040F680520846C2F220021146042203F088
:106478002EBE40F66C720846C2F220021146062271
:1064880003F025BE80B56F4682B040F68452019075
:1064980040F65C70C2F22002C2F2200001AB00900C
:1064A80008461146042203F016FE02B080BD80B5EE
:1064B8006F4600684FF400514FF480524FF0400C83
:1064C8004FF4803E00E0416103699B04FBD50369FA
:1064D800DB0401D44261F7E70369B3F1FF3FF3DC62
:1064E8000369DB0306D403695B0648BF80BDC0F8B7
:1064F80014C0E9E7C0F818E0E6E7D4D40378D1F887
:1065080000C0DFE803F004070A0D101316190CF198
:10651800680C13E00CF16C0C10E00CF1700C0DE041
:106528000CF1740C0AE00CF1780C07E00CF17C0C0F
:1065380004E00CF1800C01E00CF1840C407803219C
:10654800DCF800304000C0B2824001FA00F023EAD3
:1065580000001043CCF800007047F0B503AF2DE9F8
:106568000007ADF5047D6D46804628464FF400715E
:1065780004F076FB44F2D029A5F11006C2F2000916
:106588000DF5007A00244D46D9E96001CDE9820174
:1065980050468194809502F0E7FD80AB01340C35BC
:1065A800202C0FCB46F8100F06F104000EC0EBD1DB
:1065B800694640464FF4007204F04CFB0DF5047D2B
:1065C800BDE80007F0BDF0B503AF2DE9000B44F2BC
:1065D800E043C4F21F031B68C3F30B2E4FEA135C9E
:1065E800E6451FBF0124C1F88841DBB24FF47A7831
:1065F8001FBF03FB08F9ACEB0E04D1F8906149F614
:1066080058651FBFCFF6FF7513FB085393FBF4F3D0
:10661800C2EA06021FBFC1F8902180E80A40C0F80C
:106628000C90BDE8000B18BFF0BD40F6F07040F6C6
:10663800E072C2F22000C2F22002192102F0D9FE53
:10664800FEDE022070470F207047B0B502AF054646
:1066580008680C4640F480300860086840F0400044
:106668000860222063F31340486040F26850C0F28B
:106678000C10086240F29510C0F2B2004862DC20AB
:10668800C0F27A0088627D20C0F25800C8624B20B0
:10669800C0F2400008632F20C0F22E0048638863D0
:1066A80046F62010C86040F6A31088604FF4C84032
:1066B800C8614FF4C860886140F6C410C0F68040D5
:1066C80008613F204861086820F003001043086013
:1066D800086820F480300860C86F4021281D04F045
:1066E800BFFA10202C606864B0BD00F1340200F1DC
:1066F800500110467047006803E0816C002908BF0C
:106708007047816C29B1816C00291CBF816C0029FC
:10671800F3D170470068426D22F0030211434165CE
:10672800704740F22762914238BF0A46B2F5487F67
:1067380098BF4FF44872A2F5487144F2AF730068ED
:106748008AB25A43C368A1EB124189B2490801EBE6
:10675800124123F01F0242EA1111C16004E00168EE
:10676800B1F1FF3FD8BF70470168002905D401681F
:1067780000295CBF01680029F1D5704770470144C2
:106788007047F0B503AF4DF8048D82B005468846D2
:10679800EE680121006831607168F26162F31E41A0
:1067A8007160CAB1B06040F6FF71B068884300F507
:1067B8008050F060F0686FF30B0000F58050306196
:1067C80030696FF30B0000F58050706170696FF3EA
:1067D8000B0000F5805004E00020B060F0603061EC
:1067E8007061B0618021706840F40040706070682A
:1067F80061F307007060009602F0F1FC4EF67074C9
:106808006846CEF2000420F01C00206002F0E7FC8D
:1068180002F0E8FCA8688660C16821F0FF01C16049
:10682800019002F0DCFC01A820F01C002060203060
:10683800206002F0D4FC02F0D5FC95F910204FF44A
:106848007F01D8F800004FF48033B2F1FF3F02F027
:106858001F02C8BFFF21C8BF012303FA02F211407B
:10686800C0F8B011D0F8B01159B1D0F8B011002962
:106878001CBFD0F8B011002903D0D0F8B0110029FE
:10688800F0D102B05DF8048BF0BD0246084611460F
:106898007047D0E900018C220968002808BF8422CB
:1068A800885840F0004088507047D0E900018C2299
:1068B8000968002808BF84228858C00F7047D0E9AB
:1068C80000018C220968002808BF8422885820F01B
:1068D800004088507047D0E900018C2209680028E0
:1068E80008BF8422885840F0804088507047D0E91B
:1068F80000028C231268002808BF8423D05820F097
:10690800807040EA0160D0507047D0E900028823C7
:10691800002808BF80236FF07F401268814238BF8B
:106928000846012898BF01200138D0507047D0E9A7
:1069380000014FF0007209680028D1F8441108BF1F
:106948004FF0807211EA020018BF01207047D0E9A9
:1069580000014FF000720968002808BF4FF08072EC
:10696800C1F844217047D0E900024FF00073126863
:10697800002808BF4FF080736FF00070D2F848C14C
:1069880008BF6FF08070002900EA0C0018BF184398
:10699800C2F848017047D0E900014FF00072096859
:1069A8000028D1F8481108BF4FF0807211EA0200A0
:1069B80018BF01207047F0B503AF2DE9000BC1687F
:1069C80000291CBFD0E904138B425CD1016800295F
:1069D8004BD0D0E90113994247D200F1180C4FF07F
:1069E800020E01244FF0000803E0D0E90113994298
:1069F8003BD24B1C436041F08003C9B2C0F814E09D
:106A080041EA032101830021C46005E0C2E900488E
:106A1800D0E904138B42E8D04B1C03611CF8011029
:106A2800C66A4B0043EAD1117568CBB29D42EDD9D5
:106A3800B56901F00F012D68BFF35F8FADB225FA7C
:106A480001F1C907E2D07169994240F28480316945
:106A580003EB8303C2E9004801EB8303197C490671
:106A6800D6D01846BDE8000BF0BDC1690023C3604D
:106A780000291CBFD0E908168E4235D1C3611846DB
:106A8800BDE8000BF0BD00F118054FF0000C4FF009
:106A9800010E05E0C2E900ECD0E904138B4295D061
:106AA8004B1C0361695CC46A4B0043EAD1116668F8
:106AB800CBB29E42EED9A66901F00F013668BFF34A
:106AC8005F8FB6B226FA01F1C907E3D0616999422E
:106AD80041D9216903EB8303C2E900EC01EB83038D
:106AE800197C4906D8D0BCE700F128094FF0000E00
:106AF8004FF0010805E0C2E9008ED0E908168E4281
:106B0800BCD04E1C066219F80110C66A4D0045EA51
:106B1800D11174685FFA81FC6445ECD9B46901F05D
:106B28000F012468BFF35F8FA4B224FA01F1C907EB
:106B3800E1D07169614516D931690CEB8C06C2E95F
:106B4800008E01EB86010E7C7606D6D00B461846E1
:106B5800BDE8000BF0BD41F240121846C2F2200217
:106B680002F05EFCFEDE41F240126046C2F22002F4
:106B780002F056FCFEDEF0B503AF2DE9000B8446AB
:106B88004668C8B24D0045EAD014E0B2864217D92B
:106B9800DCF8189004F00F04D7F80880012606FAEC
:106BA80004FEBFF35F8F59E8006F46EA0E0449E818
:106BB8000045002DF7D116EA0E0FBFF35F8F03D003
:106BC8000020BDE8000BF0BDDCF80CE0864542D99A
:106BD800DCF814E0864546D9DCF800601D46B3F5BC
:106BE800806F06EB8014266846F0005626602668FB
:106BF80028BF4FF480656FF31A4646EA05462660BB
:106C080026685FEA0865DCF808E026F40049DCF845
:106C180010C04EB24D4608BF05F50045B6F1FF3F1E
:106C2800D8BF4D462560450101264EF805600EEB9C
:106C3800401600EB8000756825F0FF0575604CF87C
:106C480020200CEB80000174011D80F8118058C1D0
:106C5800BDE8000BF0BD41F25012C2F220027146AD
:106C680002F0DEFBFEDE41F26012C2F22002714643
:106C780002F0D6FBFEDE7047F0B503AF4DF804BD59
:106C880082B0044690F834000D46A8B12068E0BBF5
:106C9800206A4FF0FF312160D0F8481121F04501FA
:106CA80065F3000165F3820165F38611C0F84811A8
:106CB80020680130206024E002F097FA064602F0CE
:106CC8008AFA02F09EFA2068F8B9206A4FF0FF317C
:106CD8002160D0F8481121F0450165F3000165F302
:106CE800820165F38611C0F84811206801302060E0
:106CF800F00706D102B05DF804BBBDE8F04002F031
:106D08006CBA02B05DF804BBF0BD41F2142041F248
:106D18000423C2F22000A7F11102009040F2F430DF
:106D2800C2F22000C2F22003102102F09AFBFEDE1C
:106D3800F0B503AF4DF804BD82B0044690F83400B6
:106D48000E4648B32068002869D14FF0FF30710023
:106D58002060F0B241EAD011A268C8B2824217D9C5
:106D6800E26901F00F011268BFF35F8F92B222FA55
:106D780001F1C9070CD0A169814249D9616900EBC9
:106D8800800001EB80008068016821F000510160FB
:106D980020680130206037E002F027FA054602F04B
:106DA8001AFA02F02EFA2068C8BB4FF0FF307100C3
:106DB8002060F0B241EAD011A268C8B2824217D965
:106DC800E26901F00F011268BFF35F8F92B222FAF5
:106DD80001F1C9070CD0A169814219D9616900EB99
:106DE800800001EB80008068016821F0005101609B
:106DF800206801302060E80706D102B05DF804BBC6
:106E0800BDE8F04002F0E9B902B05DF804BBF0BD9E
:106E180041F24012C2F2200202F002FBFEDE41F211
:106E2800142041F20423C2F22000A7F111020090BD
:106E380040F2F430C2F22000C2F22003102102F026
:106E480010FBFEDEF0B503AF2DE9000F83B0066836
:106E58003168002940F0F580D0E90119B346D0E93E
:106E680003854FF0FF304BF8040B087898B34D7842
:106E7800B268680040EAD511C8B2824211D9F269F5
:106E880001F00F011268BFF35F8F92B222FA01F18D
:106E9800C90706D0B169814240F2CC8001200521A2
:106EA800C1E0F26A0120B9F8003004219A4222BFF9
:106EB800B46AD21AA242C0F0B680F262294698F8A3
:106EC800000000905846FFF756FE002800F0CC80DE
:106ED80000202946A7E02878B26840F0010A4FEA66
:106EE8004A0141EAD011C8B2824240F28680F26972
:106EF80001F00F011268BFF35F8F92B222FA01F11D
:106F0800C9077AD0B169814240F294802878B26882
:106F180040F0020A4FEA4A0141EAD011C8B282425F
:106F28006BD9F26901F00F011268BFF35F8F92B25B
:106F380022FA01F1C90760D0B16981427AD928786B
:106F4800B26840F0030A4FEA4A0141EAD011C8B2D8
:106F5800824252D9F26901F00F011268BFF35F8FC4
:106F680092B222FA01F1C90747D0B169814261D9C9
:106F78002878B26840F0040A4FEA4A0141EAD01181
:106F8800C8B2824239D9F26901F00F011268BFF321
:106F98005F8F92B222FA01F1C9072ED0B1698142FE
:106FA80048D92878B26840F0050A4FEA4A0141EA10
:106FB800D011C8B2824220D9F26901F00F011268DB
:106FC800BFF35F8F92B222FA01F1C90715D0B169F8
:106FD80081422FD9287840F0060A5846514600F0D9
:106FE800EDFC50B1287840F0070A5846514600F0A9
:106FF800E5FC10B10120032115E0F26A0120B9F87F
:10700800003004219A4222BFB56AD21AAA420AD392
:10701800F262514698F8000000905846FFF7ABFD21
:1070280010B30020514632680132326003B0BDE827
:10703800000FF0BD41F23012C2F2200202F0F0F966
:10704800FEDE41F2142041F20423C2F22000A7F12F
:107058001D02009040F2F430C2F22000C2F2200378
:10706800102102F0FEF9FEDE41F2242041F2203226
:10707800C2F22000C2F220022B2102F0BAF9FEDE91
:10708800B0B502AF82B0044690F8340060B1206811
:1070980028BB4FF0FF302060201D01F04FFA206818
:1070A8000130206002B0B0BD02F09FF8054602F042
:1070B80092F802F0A6F8206888B94FF0FF302060F7
:1070C800201D01F03BFA206801302060E80704D158
:1070D80002B0BDE8B04002F080B802B0B0BD41F2E5
:1070E800142041F20423C2F22000A7F10902009003
:1070F80040F2F430C2F22000C2F22003102102F064
:10710800B0F9FEDEF0B503AF4DF804BD88B007F85E
:107118002A1CA7F12A010791A7F127010691A7F1D7
:107128002601059190F83410D7E9025607F8292C62
:10713800A7F1290207F8283C07F8275C27F8266CEE
:10714800CDE9030221B103A8FFF77CFE0C4611E04C
:1071580002F04BF8064602F03EF802F052F803A897
:10716800FFF770FE0546F0070C4608BF02F035F839
:1071780005F0010000F00100214608B05DF804BBED
:10718800F0BDF0B503AF4DF804BD82B0044690F8E9
:1071980034000D4670B1206870BB206A4FF0FF3193
:1071A8002160690601F18071C0F85411206801302E
:1071B80020601DE002F019F8064602F00CF802F013
:1071C80020F82068C0B9206A4FF0FF3121606906B5
:1071D80001F18071C0F85411206801302060F00777
:1071E80006D102B05DF804BBBDE8F04001F0F5BF80
:1071F80002B05DF804BBF0BD41F2142041F2042353
:10720800C2F22000A7F11102009040F2F430C2F25D
:107218002000C2F22003102102F023F9FEDEB0B5EF
:1072280002AF82B0044690F8340078B12068002894
:1072380001BF206AD0F840110022226001BF41F04E
:107248000101C0F8401102B0B0BD18E001F0CDFF57
:10725800054601F0C0FF01F0D4FF206878B9206A24
:107268000022D0F84011226041F00101C0F840111D
:10727800E80717D102B0BDE8B04001F0AEBF41F257
:10728800142041F20423C2F22000A7F10902009061
:1072980040F2F430C2F22000C2F22003102102F0C2
:1072A800E0F8FEDE02B0B0BDB0B502AF82B0044671
:1072B80090F83400E8B32068002840F08580206A00
:1072C8004FF0FF312160D0F8B811C0F8B811D0F8EC
:1072D800BC11C0F8BC11D0F87811C0F878110021A1
:1072E800C0F87C11D0F8B01159B1D0F8B01100290C
:1072F8001CBFD0F8B011002903D0D0F8B011002974
:10730800F0D14FF0FF31C0F8B411D0F8B41159B131
:10731800D0F8B41100291CBFD0F8B411002903D04B
:10732800D0F8B4110029F0D120680130206002B0F3
:10733800B0BD01F05AFF054601F04DFF01F061FFB5
:107348002068002840D1206A4FF0FF312160D0F832
:10735800B811C0F8B811D0F8BC11C0F8BC11D0F8F9
:107368007811C0F878110021C0F87C11D0F8B0115C
:1073780059B1D0F8B01100291CBFD0F8B0110029BC
:1073880003D0D0F8B0110029F0D14FF0FF31C0F888
:10739800B411D0F8B41159B1D0F8B41100291CBFF8
:1073A800D0F8B411002903D0D0F8B4110029F0D1D5
:1073B800206801302060E80704D102B0BDE8B04081
:1073C80001F00BBF02B0B0BD41F2142041F204231A
:1073D800C2F22000A7F10902009040F2F430C2F294
:1073E8002000C2F22003102102F03BF8FEDEF0B5C7
:1073F80003AF2DE9000784B0044691F83400D7F8AC
:1074080008809A4616460D46B8B32868002840F00A
:107418009E804FF0FF3071002860F0B241EAD01131
:10742800AA68C8B282421DD9EA6901F00F01126840
:10743800BFF35F8F92B222FA01F1C90712D0A9698E
:1074480081427DD9291D70065FD001A85246434666
:10745800009600F028FE9DF8040000285ED09DF8F4
:10746800050000E005206070012029682070481C94
:10747800286004B0BDE80007F0BD01F0B6FE814603
:1074880001F0A9FE01F0BDFE286800285FD14FF089
:10749800FF3071002860F0B241EAD011AA68C8B282
:1074A80082421ED9EA6901F00F011268BFF35F8FAB
:1074B80092B222FA01F1C90713D0A96981423FD9D2
:1074C800291D70062ED001A852464346009600F0AA
:1074D800EAFD9DF8040070B39DF805604FF00108BF
:1074E80002E04FF0010805262868013028605FEAAD
:1074F800C97008BF01F071FEF0B248EA0020C4E983
:10750800000A04B0BDE80007F0BD01A85246434692
:1075180000F0B2FB9DF804000028A0D1029860603A
:107528000020A2E701A85246434600F0A5FB9DF8BB
:1075380004000028D0D1DDF808A04FF00008D3E7F8
:1075480041F23012C2F2200201F06AFFFEDE41F27F
:10755800142041F20423C2F22000A7F1190200907E
:1075680040F2F430C2F22000C2F22003102101F0F0
:1075780078FFFEDEF0B503AF2DE9000784B00446BE
:1075880091F83400D7F808809A4616460D46B8B3E5
:107598002868002840F09E804FF0FF307100286076
:1075A800F0B241EAD011AA68C8B282421DD9EA698C
:1075B80001F00F011268BFF35F8F92B222FA01F156
:1075C800C90712D0A96981427DD9291D70065FD0EB
:1075D80001A852464346009600F088FC9DF8040036
:1075E80000285ED09DF8050000E0052060700120AD
:1075F80029682070481C286004B0BDE80007F0BD69
:1076080001F0F3FD814601F0E6FD01F0FAFD28687E
:1076180000285FD14FF0FF3071002860F0B241EAD6
:10762800D011AA68C8B282421ED9EA6901F00F01D6
:107638001268BFF35F8F92B222FA01F1C90713D023
:10764800A96981423FD9291D70062ED001A852464A
:107658004346009600F04AFC9DF8040070B39DF87C
:1076680005604FF0010802E04FF001080526286880
:10767800013028605FEAC97008BF01F0AEFDF0B2C2
:1076880048EA0020C4E9000A04B0BDE80007F0BDDC
:1076980001A85246434600F0B5F99DF804000028B9
:1076A800A0D1029860600020A2E701A85246434694
:1076B80000F0A8F99DF804000028D0D1DDF808A052
:1076C8004FF00008D3E741F23012C2F2200201F075
:1076D800A7FEFEDE41F2142041F20423C2F220008C
:1076E800A7F11902009040F2F430C2F22000C2F271
:1076F8002003102101F0B5FEFEDEF0B503AF4DF812
:10770800048D82B0044690F8340016460D4620B326
:107718002068002860D14FF0FF3069002060E8B28F
