:0200000460009A
:100000004643464200000156000000000101020084
:1000100000000000000000000000000000000000E0
:1000200000000000000000000000000000000000D0
:1000300000000000000000000000000000000000C0
:1000400000000000010403000000000000000000A8
:100050000000200000000000000000000000000080
:100060000000000000000000000000000000000090
:100070000000000000000000000000000000000080
:10008000EB04180A063204260000000000000000FD
:10009000050404240000000000000000000000002F
:1000A0000000000000000000000000000000000050
:1000B0000604000000000000000000000000000036
:1000C0000000000000000000000000000000000030
:1000D00020041808000000000000000000000000DC
:1000E0000000000000000000000000000000000010
:1000F0000000000000000000000000000000000000
:1001000000000000000000000000000000000000EF
:100110000204180804200000000000000000000095
:1001200000000000000000000000000000000000CF
:10013000600400000000000000000000000000005B
:1001400000000000000000000000000000000000AF
:10015000000000000000000000000000000000009F
:10016000000000000000000000000000000000008F
:10017000000000000000000000000000000000007F
:10018000000000000000000000000000000000006F
:10019000000000000000000000000000000000005F
:1001A000000000000000000000000000000000004F
:1001B000000000000000000000000000000000003F
:1001C000000100000010000001000000000000001D
:1001D000000000000000000000000000000000001F
:1001E000000000000000000000000000000000000F
:1001F00000000000000000000000000000000000FF
:10020000D4D4D4D4D4D4D4D4D4D4D4D4D4D4D4D4AE
:10100000D10020400020006000000000000000002F
:1010100020100060001000600000000000000000D0
:101020000000006074E3000000000000EFBEADDED1
:10103000124880F3088812481249016000F036F81F
:10104000114812490022814201D004C0FBE7104838
:101050001049114A814202D008CA08C0FAE70F4875
:101060004FF47001026842EA01020260BFF34F8F41
:10107000BFF36F8F00F014F800DE00000040002086
:1010800008ED00E000400020005000209485002082
:10109000B84200205844002074E3006088ED00E06E
:1010A00040F6F73CC0F2000C6047D4D41C4840F234
:1010B000924188420CBF1B4A1B4A1C4B5360136869
:1010C00023F0800313601A481A4901BF1A480A0C1A
:1010D0008264C1F30F014164016C41F004010164B9
:1010E0001648174A824205D01649814202D008CAE2
:1010F00008C0FAE71448154A824205D014498142D3
:1011000002D008CA08C0FAE71248134A824205D042
:101110001249814202D008CA08C0FAE770470000AD
:10112000240400000080034000C00B4020C528D9E3
:1011300000C00A40AAAAFAFF00400E4000000000CA
:10114000B8220060D8A50000004000200020006008
:10115000B84200200000202090C80060E41A20203F
:10116000D4D4D4D4D4D4D4D4D4D4D4D4D4D4D4D43F
:10117000D4D4D4D4D4D4D4D4D4D4D4D4D4D4D4D42F
:10118000D4D4D4D4D4D4D4D4D4D4D4D4D4D4D4D41F
:10119000D4D4D4D4D4D4D4D4D4D4D4D4D4D4D4D40F
:1020000000400020311000602D3C0000BDA5000004
:102010002D3C00002D3C00002D3C00000000000085
:102020000000000000000000000000002D3C000047
:102030002D3C0000000000002D3C00009910000025
:102040002D3C00002D3C00002D3C00002D3C0000EC
:102050002D3C00002D3C00002D3C00002D3C0000DC
:102060002D3C00002D3C00002D3C00002D3C0000CC
:102070002D3C00002D3C00002D3C00002D3C0000BC
:102080002D3C0000000000000000000000000000E7
:102090002D3C00002D3C00002D3C00002D3C00009C
:1020A0002D3C00002D3C00002D3C00002D3C00008C
:1020B0002D3C00002D3C00002D3C00002D3C00007C
:1020C0002D3C00002D3C00002D3C00002D3C00006C
:1020D0002D3C00002D3C00002D3C00002D3C00005C
:1020E0002D3C00002D3C00002D3C00002D3C00004C
:1020F0002D3C00002D3C00002D3C00002D3C00003C
:102100002D3C00002D3C00002D3C00002D3C00002B
:10211000000000002D3C0000000000002D3C0000ED
:102120002D3C00002D3C00002D3C00002D3C00000B
:102130002D3C00002D3C0000000000002D3C000064
:102140002D3C00002D3C00002D3C00002D3C0000EB
:102150002D3C00002D3C00000000000000000000AD
:102160002D3C00002D3C00002D3C00002D3C0000CB
:102170002D3C00002D3C00002D3C00002D3C0000BB
:10218000DF0200002D3C00002D3C00002D3C000033
:102190002D3C00002D3C00002D3C00002D3C00009B
:1021A0002D3C00002D3C00002D3C00002D3C00008B
:1021B0002D3C00002D3C00002D3C00002D3C00007B
:1021C0002D3C00002D3C00002D3C000000000000D4
:1021D0002D3C0000510400002D3C00002D3C00006F
:1021E0002D3C00002D3C00002D3C00002D3C00004B
:1021F0002D3C00002D3C00002D3C00002D3C00003B
:102200002D3C0000BD3A00002D3C00002D3C00009C
:102210002D3C00002D3C00002D3C00002D3C00001A
:102220002D3C00002D3C00002D3C00002D3C00000A
:102230002D3C00002D3C00002D3C00000000000063
:10224000000000002D3C00002D3C00002D3C000053
:102250002D3C00002D3C00002D3C00002D3C0000DA
:102260002D3C00002D3C00002D3C00002D3C0000CA
:102270002D3C00002D3C00002D3C00002D3C0000BA
:102280002D3C00002D3C00002D3C00002D3C0000AA
:102290002D3C00002D3C00002D3C00002D3C00009A
:1022A0002D3C00002D3C00002D3C000000000000F3
:0822B0002D3C00002D3C000054
:1022B800F0B503AF2DE9000786B0824690F85800C4
:1022C8008846D8B1032840F0ED809AF8540000B34E
:1022D800032840F0F3809AF851100AF10C0031B34A
:1022E800032944D040F2800040F2A812C2F2200034
:1022F800C2F22002232108F0A3FDFEDE002045F2F1
:102308003C218AF85400C2F20001DAF80000CAE958
:102318000110DAE9016502F031FD2844CAF8240009
:102328000AF10C0000218AF85110CAF84C60DAF85A
:102338002410524642F8281F0023516A82F8283098
:102348000E79002E00F09880544644F8483F2646FF
:1023580044E90D1446F81C3D01232372234643F833
:10236800046D44F8086C44E90F2344E90B14414612
:1023780001F0A4FB814608B1032072E0DAF84000BE
:10238800016849B1007B00281CBF00208AF8500072
:102398009AF8500080BB58E00021DAE907608AF813
:1023A8005010D0F8008008F02CFCBFF35F8F326823
:1023B800EAB11169424501D1316018E0B9B141452E
:1023C80013D00B699BB143450DD0196979B14145CB
:1023D80007D00B695BB1434505D0196939B141454F
:1023E800EFD11A4601E00A4619460969116108F059
:1023F80013FC9AF8500040B3DAE90750066808F071
:1024080000FCBFF35F8F2A68EAB11169B24201D1BB
:10241800296018E0B9B1B14213D00B699BB1B3423E
:102428000DD0196979B1B14207D00B695BB1B342DC
:1024380005D0196939B1B142EFD11A4601E00A460F
:1024480019460969116108F0E7FB00208AF8500075
:10245800DAF82C0000281EBFC168DAF83000884777
:1024680001208AF858008AF854008AF85100484632
:1024780006B0BDE80007F0BD012040F298110190B8
:1024880040F23410C2F22000C2F22001009040F263
:102498000000C2F22000049302906846039308F0FB
:1024A800B9FCFEDE40F2800040F26802C2F2200071
:1024B800C2F22002232108F0C3FCFEDE40F28000B5
:1024C80040F2B812C2F22000C2F22002232108F022
:1024D800B7FCFEDE084640F2A301C2F22001022248
:1024E80009F0E6B9B0B502AF054608460C4609F052
:1024F8001AFB28B128462146BDE8B04009F09CBE29
:10250800204609F014FB28B128462146BDE8B04012
:1025180009F0D2BE28462146BDE8B04009F00CBFFC
:1025280045F2D0000121C2F20000BFF35F8F80F8AE
:1025380065114EF20C20CEF2000020210160704798
:1025480045F26C000121C2F20000BFF35F8F80F8F2
:1025580061104EF20C20CEF200002021016070477D
:1025680045F200000121C2F20000BFF35F8F80F83E
:1025780069104EF20C20CEF2000020210160704755
:102588007047704780B56F4608F058FBFCE7F0B518
:1025980003AF2DE9000FADF50D7D48F28C50C2F266
:1025A80000000168C81E18BF0120032988BF4FF02A
:1025B800FF30411C1CBFC0B2002817D100200121E8
:1025C800469040F2E022459040F20000439140F2EC
:1025D800CC21C2F22000C2F22001449042A84291CC
:1025E800C2F220020321002305F09FFB08F028FB1C
:1025F8000190F02008F028FB02AD41F6F021C2F26C
:102608002001284601F047FB9DF80800002860D10A
:1026180042AC691C04F10800FF22FF250AF01EF9EC
:1026280049F63B1A40F20C3B0DF50C7884AE439505
:102638000125C0F2000AC2F2200B0020002107E0A9
:10264800B9F1FF004946B0FA80F04FEA50102ED099
:1026580001F10109C007CDF8089128D16018007A66
:1026680028B348F28C51C2F200010A68D11E18BF83
:102678000121032A88BF4FF0FF314A1C1CBFC9B291
:102688000029DDD100218C90889140F20431C2F2FA
:102698002001304684918AA9869103215A46002355
:1026A80085958795CDE98A8A05F03FFBC8E70198AB
:1026B80008F0CAFA41F620300421C2F2200000686E
:1026C8008161002008F0C0FA0DF50D7DBDE8000F0E
:1026D800F0BD00200121439140F240314690C2F202
:1026E8002001459040F20000C2F22000429140F2E1
:1026F8004831449042A8C2F2200108F08BFBFEDE6C
:10270800F0B503AF2DE9000BCEB045F26C0045F2F1
:10271800D009C2F2000048F28C5890F86010C2F25A
:102728000009C2F2000859B300F161010022D1E8A2
:102738004F3F012B22D1C1E8432F002BF7D140F2A4
:102748009121BFF35F8FC0F2000108AA099140F2FE
:102758003061C2F220014B92089190F85C10A9B147
:10276800032919D040F2800040F2A032C2F22000C2
:10277800C2F22002232108F063FBFEDEBFF32F8F95
:1027880099F86401002840F0418197E2002180F81F
:10279800581044F62061016045F26C044BA9C2F25E
:1027A80000042046FFF784FD18B1032084F85C007C
:1027B80023E194F85800032839D194F854000328E9
:1027C80004BF94F85100032831D1D4E907600568A3
:1027D80008F017FABFF35F8F3268EAB11169AA42AD
:1027E80001D1316018E0B9B1A94213D00B699BB18E
:1027F800AB420DD0196979B1A94207D00B695BB119
:10280800AB4205D0196939B1A942EFD11A4601E0A6
:102818000A4619460969116108F0FEF9E06A0021C3
:1028280084F8501000281EBFC168206B884708F044
:1028380007FA0546F02008F007FAD8F80010C81E75
:1028480018BF0120032988BF4FF0FF30411C1CBF6F
:10285800C0B200283CD1422002F088FA014641F675
:10286800F020C2F2200001F06BFD81B2C2B2090A69
:10287800062A40F0518149F689708DF82810C0F277
:10288800000020214D900AA84C900BA8069040F219
:10289800D430C2F220000F9102904CA8049001207D
:1028A80007900421039040F2DC32059003208DF854
:1028B80048000C2011900020CDE90D01C2F2200241
:1028C800109002200B9002A80321002305F02DFA96
:1028D80041F6F0201121C2F220000122012601F068
:1028E800FCFAC0B2062840F00481D8F80010C81ECF
:1028F80018BF0120032988BF4FF0FF30411C1CBFBF
:10290800C0B2002817D1002001210F9040F21842D0
:102918000E9040F200000C9140F21041C2F22000EB
:10292800C2F220010D900BA80B91C2F220020321E4
:10293800002305F0FAF9D8F80010C81E18BF0120C6
:10294800032988BF4FF0FF30411C1CBFC0B20028CC
:1029580017D1002001210F9040F254420E9040F20E
:1029680000000C9140F24C41C2F22000C2F220015A
:102978000D900BA80B91C2F220020321002305F051
:10298800D4F9284608F060F909F5B270D0E84F1F6D
:1029980049B90121BFF35F8FC0E8421FBAB1D0E83F
:1029A8004F2F002AF8D040F2B03040F2D003C2F2E4
:1029B8002000BFF32F8F009040F2A500C2F2200044
:1029C800C2F220030BAA2B2108F072FAFEDE4EF2A7
:1029D8000C220020BFF35F8F89F863010121CEF23A
:1029E80000022023BFF35F8F89F86511136084F814
:1029F8005C10BFF35F8F84F86000DDE90810C968D8
:102A0800884799F86401002800F0588109F2651098
:102A18000021D0E84F2F012A68D1C0E8421F002AC0
:102A2800F7D140F27120BFF35F8FC0F2000008A910
:102A3800099040F23060C2F220000A91089099F89B
:102A48006301002840F0828040F2C0440A20C2F2AC
:102A58002004FF21C9E9004009F1640009F002FFE0
:102A680000202346214611F9016BB6F1FF3FF2B26F
:102A780022DC597802F01F06DF2A01F03F0118D93D
:102A88009D78F02A05F03F0545EA811503F1030119
:102A98001FD3097806F0070201F03F0141EA8511CA
:102AA80041EA8242B2F5881F64D0191DFF2805D17A
:102AB80013E041EA8612991CFF280ED009EB0003A7
:102AC800013083F8642004F10A0291420B46CAD10E
:102AD80050E045EA0632FF28F0D140F2CC42FF2010
:102AE800C2F22002FF2108F0C2F9FEDEBFF32F8FE9
:102AF800E4E040F288410020C2F220010F900B91DF
:102B080040F290410E9040F20000C2F22000C2F262
:102B180020010C960D9015E08DF82C0040F2B04085
:102B2800C2F2200040F2A043009040F2A5008DF8C8
:102B38002D10C2F22000C2F220030BAA2B2108F0AC
:102B4800B7F9FEDE0BA808F065F9FEDE09F108000A
:102B58000AA9FFF7ADFB002840F0A98099F86000AA
:102B6800032807D199F85C00032804BF99F8590095
:102B7800032874D0D8F8000002281AD9002040F29F
:102B8800F0410F9001200C9040F2F8420E9002A8FC
:102B98000D9041F60300C0F20000C2F22001CDE919
:102BA80002900BA80B91C2F220020321002305F02A
:102BB800BCF8D9F8045008F043F80446F02008F0AF
:102BC80043F80BAE09F16401FF22304609F044FED8
:102BD80041F6F0214CA8C2F2200132462B4601F002
:102BE80053FC9DF83001002840F0AB804D984B9085
:102BF800D8F80010C81E18BF0120032988BF4FF05D
:102C0800FF30411C1CBFC0B200281BD1002040F27D
:102C18002C510F9001200C9040F234520E9002A8D3
:102C28000D904AF20110C0F20000C2F22001039098
:102C38004BA802900BA80B91C2F22002032100239B
:102C480005F073F8204607F0FFFF002089F86000C0
:102C580048F2A060C0F20100C9F8080076E7D9E997
:102C68000950046807F0CDFFBFF35F8F2A68002A78
:102C780054D01169A24201D129604FE000294DD0FA
:102C8800A14249D00B69002B48D0A34242D0196910
:102C9800002943D0A14208D00B69002B3ED0A342A3
:102CA80038D01969D1B3A142ECD11A4634E0DDE934
:102CB8000810032289F86321C968884745F200058E
:102CC800C2F2000595F86800002800F0D48005F1EC
:102CD80069000021D0E84F2F012A18D1C0E8421F0F
:102CE800002AF7D140F2B120BFF35F8FC0F2000095
:102CF8004CA94D9040F23060C2F2200008914C90EF
:102D080095F8640000287AD1286868602DE0BFF340
:102D18002F8FB0E00A4619460969116107F07CFF58
:102D2800D9F83400002189F8581000281EBFC1685E
:102D3800D9F838008847D8F8000002283FF61EAFB7
:102D480037E7012100200C9140F26851C2F22001BE
:102D58000F900E9040F200000B9140F27051C2F2B9
:102D68002000C2F220010D90ECE607F069FF04464E
:102D7800F02007F069FF41F6E820C2F22000016860
:102D880001310160D8F80020D11E18BF0121032AA3
:102D980088BF4FF0FF314A1C1CBFC9B200291BD1A4
:102DA800002140F284320F9102210C9140F27431DB
:102DB800C2F22001C2F220020B9101210E9102A958
:102DC8000D914AF20111C0F200010023CDE9020180
:102DD8000BA8032104F0A9FF204607F035FF686817
:102DE8000022D0E9000185F8602044F6206201F055
:102DF8001F01AA60012202FA01F1C0F88C1005F146
:102E0800080008A9FFF754FA70BB95F8600003287A
:102E1800ABD195F85C00032804BF95F85900032846
:102E2800A3D1D5E90960046807F0EBFEBFF35F8F13
:102E380032685AB31169A24201D1316026E029B340
:102E4800A14221D00B690BB3A3421BD01969E9B188
:102E5800A14207D00B69CBB1A34213D01969A9B11C
:102E6800A142EFD11A460FE0DDE94C10032285F8A4
:102E78006420C9688847002007F0E6FE4EB0BDE828
:102E8800000BF0BD0A4619460969116107F0C4FE36
:102E9800686B002185F8581000283FF466AFC168B8
:102EA800A86B884761E780B56F4607F0BAFE48F21D
:102EB80090500121C2F20000202201704EF26540BC
:102EC800CEF20000F02101704EF20810CEF20000A0
:102ED800426080F848134FF48031016000F004F834
:102EE800FFF750FBFEDED4D4F0B503AF2DE9000F99
:102EF800ADF21C5DD6AC204602F03FFB0AA8214685
:102F080000F09AFB14AA0AAC07AB0E9D07CADDE9CC
:102F180010B907C320461C9E02F006FF07A92046E9
:102F280002F007FF4EF210014FF0010CCEF2000143
:102F380040F2E732086848F23C14C4F21F044FF02C
:102F4800000A20F001000860086840F004000860EA
:102F580048F69F404860086840F00200086008682A
:102F680040F00100086045F23C21BFF35F8FC2F2D8
:102F78000001052081F804C0BFF35F8F296821F0A4
:102F880001012960696862F30B016960296821F40D
:102F9800B86180312960296821F001012960A96898
:102FA80041F02001A960E96821F02001E960296861
:102FB80021F400712960296841F002012960A9689B
:102FC80041F00101A960E96821F00101E960A968FF
:102FD80041F00201A960E96821F00201E960A968ED
:102FE80041F00401A960E96821F00401E96054F89E
:102FF800781C60F3030144F8781CDBF8041021F016
:103008000401CBF80410DBF8141021F00401CBF80C
:103018001410DBF81C1021F00401CBF81C10DBF8AD
:103028000C20022161F30512CBF80C20DBF81420E8
:1030380042F00402CBF81420626C60F3030262646D
:10304800D9F8042042F40032C9F80420A368032206
:1030580062F30303A360A36843F01003A36048F27C
:103068002053C4F21F03C3F808A0606862F303008A
:103078006060606840F010006060C3F804A0E06819
:1030880062F30300E060E06840F01000E060C3F81D
:1030980000A0206862F303002060206840F0100060
:1030A8002060C4F8E0A33161C6F810A0726232460D
:1030B8003069316921F001013161316E21F04041FF
:1030C8003166316960F300014FF00F10316144F24D
:1030D8004021B065C0F20F01C6F810C0306940F455
:1030E80040703061D6F81080306920F001003061FE
:1030F80042F60010C0F2DE7004F090FE306905213F
:1031080032464B4668F300003061206C61F30300DF
:103118002064D9F8040040F48030C9F80400E06A5B
:1031280061F30300E062D9F804000B2140F4006069
:10313800C9F8040040F293300695D6ADCDE9040AEB
:1031480010200291CDE900092846002101F024FB56
:10315800D698022800F08C800DF1280E5ECD7046BE
:103168005EC095E85E005EC045F20001C2F2000153
:1031780001F16800D0E84F2F4AB90122BFF35F8FF1
:10318800C0E8432F53B1D0E84F3F002BF8D040F2AE
:10319800E410BFF32F8FC2F220002EE041F6183C56
:1031A8000020C2F2200CBFF35F8F81F864004EF25A
:1031B8001000C1F800C00122BFF35F8F81F86920B9
:1031C8002021CEF20000C0F8FC1145F26C01C2F2D9
:1031D800000101F16003D3E84F6F46B9BFF35F8F79
:1031E800C3E8462FBEB1D3E84F6F002EF8D040F2A7
:1031F800D410BFF32F8FC2F2200040F2D00300900A
:1032080040F2A500D6AAC2F22000C2F220032B2168
:1032180007F04EFEFEDE0022BFF35F8F81F85C20D0
:103228000123BFF35F8F81F861302021C0F8FC11C2
:1032380041F6F021BEE87900C2F2200179C19EE88A
:10324800790079C141F6E820C2F22000026011201D
:10325800CCE9009041F62030C2F22000C0F800B05E
:103268000DF21C5DBDE8000FBDE8F04007F0DBBCC7
:103278009DF85C03DFE800F003316767511A01210C
:1032880000200B9140F20C21C2F220010E900A910D
:1032980040F214210D9040F20000C2F22000C2F268
:1032A80020010C900AA807F0B5FDFEDE01210020E0
:1032B8000B9140F2A021C2F220010E900D9040F235
:1032C80000000A9140F2A821C2F22000C2F22001B7
:1032D8000C900AA807F09EFDFEDE9DF85D0340F203
:1032E80044218DF84F0300200E9001200B90C2F26C
:1032F80020010D90D4A80C9040F235200A9140F29C
:103308004C21C0F20000C2F22001D5900DF24F30DE
:10331800D4900AA807F07EFDFEDE012100200B9163
:1033280040F26821C2F220010E900D9040F2000098
:103338000A9140F27021C2F22000C2F220010C90E2
:103348000AA807F067FDFEDE80B56F4601F011FDA3
:10335800BDE8804000F055BCF0B503AF4DF8048DD2
:1033680084B0446806466069C00113D41546B2B1FA
:1033780020698846082140F44070206101A804F0C3
:103388003AFD019802280FD19DF8080004B05DF8B5
:10339800048BF0BD042004B05DF8048BF0BD05205B
:1033A80004B05DF8048BF0BD9DF8080008EB050C2F
:1033B8009DF809109DF80A209DF80C3061F30B2048
:1033C8009DF80EE0366840EA82504FF2000240EA6B
:1033D80083404FEA0E55CFF60372F105464608F1D1
:1033E800010863691B0553D4E36DDB0611D56369D6
:1033F8001B054DD4E36DDB060BD563691B0547D46C
:10340800E36DDB0605D563691B0541D4E36DDB0677
:10341800E7D4236E13402B430B43034343F4201399
:10342800236663691B0533D4E36DDB0611D5636935
:103438001B052DD4E36DDB060BD563691B0527D46B
:10344800E36DDB0605D563691B0521D4E36DDB0657
:10345800E7D433784FF48015E0456366BED10EE0BB
:10346800E36DDB0619D563691B0511D4E36DDB0633
:1034780013D563691B050BD4E36DDB060DD56369B2
:103488001B0505D4E36DDB0607D563691B05E7D586
:10349800002004B05DF8048BF0BD236E1A40114380
:1034A800084340F400202066062004B05DF8048B31
:1034B800F0BDF0B503AF2DE9000F85B04D680446A7
:1034C8006869C00111D499468BB128690E46082154
:1034D800904640F44070286102A804F08CFC0298E1
:1034E800022806D19DF80C0097E0042095E00520FD
:1034F80093E09DF810104FF0000B9DF80C004FF072
:10350800010A9DF80DC09DF80EE089049DF80F3062
:103518006CF30B20366840EA8E509DF8122041EA81
:10352800C341019241EA00034FEAC65E012000222E
:1035380001210BE0CB454FF0000038BF01204A4580
:103548004FF0000134BF0121CB456DD2C90750D0DF
:1035580018F802600132B2EB090C08BFE24669694B
:10356800090559D4E96DC90611D56969090553D406
:10357800E96DC9060BD5696909054DD4E96DC90618
:1035880005D56969090547D4E96DC906E7D40199E4
:10359800F4460093B6465FFA8AF643EA01512B6E69
:1035A80041EA46514FF20006CFF60376334076469D
:1035B800E64643EA0C0319432966696909052BD4D1
:1035C800E96DC90611D56969090525D4E96DC906EA
:1035D8000BD5696909051FD4E96DC90605D569695F
:1035E800090519D4E96DC906E7D46E660121019170
:1035F800009BC0079ED06869C0041BD4286F800751
:1036080098D4686FB0F5807F28BF4FF0FF3008F876
:103618000B000BF1010B8DE70020002120712160C8
:1036280005B0BDE8000FF0BDC4E9008905B0BDE8EC
:10363800000FF0BD0120F0E7F0B503AF2DE9000F52
:10364800ADB00D46044601F13400383105F154029D
:1036580002F03DF9D5F8C80004F0B6FDD5F8280108
:10366800016841F001010160D5F82811086820F0CF
:10367800020008600020C1F80801C1F81801C1F86B
:1036880028011691C1F83801D5F8C090D9F8000082
:1036980020F00100C9F80000D9F8000040F400400B
:1036A800C9F80000D9F8000000040CD5D9F80000CA
:1036B800000444BFD9F800005FEA004003D5D9F8F8
:1036C80000000004EED43F20C9F80800D9F8000033
:1036D80020F00100C9F80000D5F8C4A0DAF800000D
:1036E80020F00100CAF80000DAF8000040F40040B9
:1036F800CAF80000DAF8000000040CD5DAF8000077
:10370800000444BFDAF800005FEA004003D5DAF8A5
:1037180000000004EED43F20CAF80800DAF80000E0
:1037280020F00100CAF80000D5F85C0104F003FDA0
:10373800D5F80080CDE9141040F26341D8F848006C
:1037480040F00100C8F84800D8F844000843C8F819
:103758004400D8F84400012161F38300C8F844000C
:10376800D8F8440020F08000C8F84400D8F8480091
:1037780040F02000C8F84800D8F8440040F4404021
:10378800C8F84400D8F8440040F44470C8F844002D
:10379800D8F8480040F08000C8F84800D8F8580029
:1037A80000070CD0D8F8580000071CBFD8F85800FC
:1037B8005FEA007003D0D8F858000007EED1D8F8B7
:1037C800480040F2634140F02000C8F84800D8F8AB
:1037D800440020F44040C8F84400D8F8440020F4DD
:1037E800447000F58870C8F84400D5F804B0DBF8D8
:1037F800480040F00100CBF84800DBF844000843DB
:10380800CBF84400DBF84400012161F38300CBF8D6
:103818004400DBF8440020F08000CBF84400DBF8DB
:10382800480040F02000CBF84800DBF8440040F4A2
:103838004040CBF84400DBF8440040F44470CBF837
:103848004400DBF8480040F08000CBF84800DBF883
:10385800580000070CD0DBF8580000071CBFDBF845
:1038680058005FEA007003D0DBF858000007EED17B
:10387800DBF8480040F02000CBF84800DBF84400B3
:1038880020F44040CBF84400DBF8440020F44470B6
:1038980000F58870CBF84400D5F87C01139004F04B
:1038A800F6FB064604F0F5FB1399034617A83246C3
:1038B80004F0F1FBD5F8681129A84FF4805204F000
:1038C800A8FBD5F89C001390D5F8A4001290D5F861
:1038D800A8000E90D5F8AC000D90D5F884010C9096
:1038E800D5F890010B90D5F89801D5E917120790F3
:1038F80004F58E7004F057FBD5F83001D5F8883000
:1039080000F59071216700F1C001E166D5E90D125B
:10391800D5F80CC1C4E91800CDE910210F22696D52
:103928000F91D5F880100A91D5F884100191D5F837
:10393800E0100691D5F8E8100591D5F8FC1004912F
:10394800D5F814110391D5F804110991D5F8081187
:103958000891D5F81C1102914FF47041A0F88C1110
:10396800A0F88E216030A066D5F8340100F5907E6D
:1039780000F1C006C4F884E0C4F88060A0F88C1197
:10398800C4E91D00A0F88E216030E067D5F8380141
:1039980000F59076C4F8986000F1C006C4F8946009
:1039A800A0F88C11C4E92200A0F88E216030C4F878
:1039B8009000D5F83C0100F59076C4F8AC6000F1B1
:1039C800C006C4F8A860A0F88C1100F16001C4F822
:1039D800A410C4E92700A0F88E214822DDE91410BC
:1039E800C4E9C71017A9079820630B98E0620C98E0
:1039F800A0620D9860620E9820621698C4E9049A35
:103A0800C4E90000C4E902001398A0611298E061BB
:103A180004F1B80080E808090198C4F8B4000A98CD
:103A2800C4F8B00006982064059860640498A064FF
:103A38000398C4E9130C099860650898A065029872
:103A4800E0650F98E0631098A0631198606304F133
:103A5800C40008F001FF29AB04F5867C0FCB8CE885
:103A68000F002DB0BDE8000FF0BD006804F00ABAE1
:103A7800006807F0F1B8B0B502AF056808460C4613
:103A880008F051F828B128462146BDE8B04008F0B2
:103A9800D3BB204608F04BF828B128462146BDE89C
:103AA800B04008F009BC28462146BDE8B04008F0FF
:103AB80043BC0A46D0E9000108F091B8F0B503AF5D
:103AC8002DE9000F81B080460C6801F057F9D8F84D
:103AD80000603168451AB5F1FF3F04DDE80F01B019
:103AE800BDE8000FF0BDD8F80400D0F800B0DBF84E
:103AF80000000028F2D1D4E900100968884704467C
:103B0800DBF800008946366800281EBFC168DBF86C
:103B1800040088470020D8F808A0CBF810008BF8DC
:103B28000C00CBE90049CBF8086007F06AF8BFF34E
:103B38005F8FDAF8001049B18A68DBF808C0BCEB7F
:103B4800020212D0002A10D5CBF81010CAF800B023
:103B580007F062F8D8F80C00C0F800B001F027F9B7
:103B6800E80F01B0BDE8000FF0BD0B6943B19A68DA
:103B7800BCEB02022ED0002A2CD59E46CBF810E0D2
:103B8800C1F810B007F048F8D8F80C00C0F800B039
:103B9800E80F01B0BDE8000FF0BDD1F810E0BEF1AC
:103BA800000FEDD0DEF80820BCEB020201D0002A9D
:103BB800E4D4DEF81020D2B19168BCEB010101D049
:103BC800002916D41369BBB199688C4502D0BCEBA7
:103BD800010113D4196941B18A68BCEB0202DCD037
:103BE800002ADAD58E461946C8E71946C8E771464D
:103BF800C6E771469646C1E71146C1E79E4611469B
:103C0800BCE7F0B503AF2DE9000B804601F0EFF8F3
:103C180001F0D5F810E02069C8F80000D4E90010D8
:103C2800096888470646207B05F00100894606F0AA
:103C3800F3FF71684846884706F0E3FFBFF35F8FDC
:103C48000546D8F80040ECB1A66801F097F8801B4B
:103C58000021B0F1FF3FC8BF012100282173DAD548
:103C680005F0010006F0D8FF01F0C1F8304601F078
:103C78009DF801F083F8801BB0F1FF3FDCDCBDE864
:103C8800000BF0BD284606F0C7FFBDE8000BBDE8F5
:103C9800F04001F0ACB8F0B503AF2DE9000BC2B0AD
:103CA80080461320894601F061F80146484600F035
:103CB80047FB81B20E0AC1B2062940F0FF8001A875
:103CC800FF2108F0CFFD102001F050F801464846CA
:103CD80000F036FBC0F30724C0B2062840F0F2809B
:103CE8000D2001F043F8D9E90212012502F01F0264
:103CF80040F0800005FA02F2C1F88820A7F11A0105
:103D080007F81A0C4846022207F8194CFFF724FB5B
:103D1800C4B2062C40F0D580D9E9020101F01F0198
:103D280005FA01F1C0F884100021D9F820000161DA
:103D3800016841F0010101608168C90709D1816802
:103D4800C90704BF81685FEAC17102D18168C907E8
:103D5800F2D0816841F001018160016821F0010120
:103D680001608EB101AD002001F000F8014648461F
:103D780000F0E6FAC0F30724C0B2062840F0A2809B
:103D880005F8014B013EEED1122000F0EFFF01468D
:103D9800484600F0D5FAC0F30724C0B2062840F020
:103DA8009180122000F0E2FFD9E90212012502F009
:103DB8001F0240F0800005FA02F2C1F88820A7F13E
:103DC8001A0107F81A0C4846022207F8194CFFF79F
:103DD800C3FAC4B2062C74D1D9E9020101F01F015B
:103DE80005FA01F1C0F884100021D9F8200001611A
:103DF800016841F0010101608168C90709D1816842
:103E0800C90704BF81685FEAC17102D18168C90727
:103E1800F2D0816841F001018160016821F001015F
:103E280001600D2000F0A2FFD9E90212012502F07D
:103E38001F0240F08000002605FA02F2C1F888202F
:103E4800A7F11A0107F81A0C4846022207F8196C5C
:103E5800FFF782FAC4B2062C33D1D9E9020101F086
:103E68001F0105FA01F1C0F88410D9F82000066195
:103E7800016841F0010101608168C90709D18168C1
:103E8800C90704BF81685FEAC17102D18168C907A7
:103E9800F2D08168FF2241F001018160016821F0C0
:103EA8000101016008F1010001A908F0D7FC002018
:103EB80088F8000042B0BDE8000BF0BD88F8026049
:103EC80002E0042088F8024088F80100012088F800
:103ED800000042B0BDE8000BF0BDF0B503AF4DF8EF
:103EE800048D84B0044600200D46D6B200F03FFF92
:103EF800C0B2B04243D1092000F038FFD4E9021221
:103F0800012602F01F020E2D40F0800006FA02F290
:103F1800C1F888202946A8BF0E21002D41F0700164
:103F28004FF0020248BF70218DF8051001A98DF8E5
:103F380004002046FFF710FAC1B2062940F0738149
:103F4800D4E9020101F01F0106FA01F1C0F884105A
:103F58000021206A0161016841F001010160816866
:103F6800C90740F052818168C90704BF81685FEAC8
:103F7800C17140F04A818168C907F0D045E14D2000
:103F8800112D40F3808000F0F1FED4E902120126E1
:103F980002F01F0240F0800006FA02F2C1F8882001
:103FA80087218DF8091002A98DF808002046022201
:103FB800FFF7D2F9142DC1B2A8BF1425062940F085
:103FC8003281D4E90201A5F1030801F01F0106FAC4
:103FD80001F1C0F884100021206A0161016841F0F4
:103FE800010101608168C90709D18168C90704BF57
:103FF80081685FEAC17102D18168C907F2D081681E
:1040080041F001018160016821F0010101600B208C
:1040180000F0ACFED4E90212012502F01F0240F0C4
:10402800800005FA02F2C1F88820312107F8111C36
:10403800A7F1120107F8120C20460222FFF78CF9AB
:10404800C1B2062940F0EF80D4E9020101F01F0156
:1040580005FA01F1C0F884100021206A01610168A5
:1040680041F0010101608168C90740F089808168D9
:10407800C90704BF81685FEAC17140F08180816827
:10408800C907F0D07CE000F071FED4E902120126E5
:1040980002F01F0240F080004FF0020806FA02F218
:1040A800C1F88820842107F8191CA7F11A0107F81C
:1040B8001A0C20460222FFF74FF9022DC1B2C8BFE1
:1040C800A846062940F0AF80D4E9020101F01F019B
:1040D80006FA01F1C0F884100021206A0161016824
:1040E80041F0010101608168C90709D18168C907E8
:1040F80004BF81685FEAC17102D18168C907F2D043
:10410800816841F001018160016821F001010160CD
:104118000B2000F02BFED4E90212012502F01F0249
:1041280040F0800005FA02F2C1F888202B2107F838
:10413800151CA7F1160107F8160C20460222FFF7F6
:104148000BF9C1B206296ED1D4E9020101F01F01B1
:1041580005FA01F1C0F884100021206A01610168A4
:1041680041F0010101608168C90709D18168C90767
:1041780004BF81685FEAC17102D18168C907F2D0C2
:10418800816841F001018160016821F0010101604D
:10419800092000F0EBFD0546802000F0E8FDD4E999
:1041A8000212012602F01F0206FA02F2C1F8882064
:1041B800A8F1020108438DF80D0045F0800003A91D
:1041C8008DF80C0020460222FFF7C6F8C1B2062976
:1041D80029D1D4E9020101F01F0106FA01F1C0F862
:1041E80084100021206A0161016841F00101016029
:1041F8008168C90709D18168C90704BF81685FEA76
:10420800C17102D18168C907F2D0816841F001010A
:104218008160016821F0010101600621062004B0D7
:104228005DF8048BF0BD042004B05DF8048BF0BD8C
:10423800F0B503AF4DF804BD82B00446012000F08C
:1042480095FD0146204600F07BF8C0F30725C0B273
:1042580006280BD1032000F08AFD0540032000F05A
:1042680086FDC0B2854207D10620012540EA052017
:1042780002B05DF804BBF0BD122000F077FD0146E6
:10428800204600F05DF8C0F30725C0B20628EDD13E
:10429800082000F06DFD2840012842D1122000F0CE
:1042A80065FD0546082000F063FDD4E902120126E9
:1042B80002F01F0206FA02F2C1F88820A7F11201E3
:1042C80007F8110C45F0800007F8120C204602226E
:1042D800FFF742F8C5B2062D2BD1D4E9020101F04F
:1042E8001F0106FA01F1C0F884100021206A01615B
:1042F800016841F0010101608168C90709D181683D
:10430800C90704BF81685FEAC17102D18168C90722
:10431800F2D0816841F001018160016821F001015A
:1043280001600620002540EA052002B05DF804BBC4
:10433800F0BD042040EA052002B05DF804BBF0BDE2
:10434800F0B503AF4DF804BD84B00446D0E90202CD
:1043580002F01F0201250026022305FA02F2C0F826
:10436800882001F07F0007F81A0C02A8A7F11A02AA
:10437800214607F8196CFFF79CF8029868B3D4E94E
:10438800022303F01F03039905FA03F3C2F88430EC
:10439800226A1661136843F0010313609368DB0710
:1043A80009D19368DB0704BF93685FEAC37302D13E
:1043B8009368DB07F2D09368022943F00103936006
:1043C800136823F00103136010D34078062141EAF3
:1043D800002004B05DF804BBF0BD9DF80C0004217A
:1043E80041EA002004B05DF804BBF0BD40F2BC52C5
:1043F8000120C2F2200206F03AFDFEDEB0B502AF9F
:1044080082B00446D0E9020303F01F03012505FA30
:1044180003F3C0F8883041F08000A7F10A0107F8DB
:10442800092C07F80A0C20460222FEF795FFC1B2B4
:10443800062926D1D4E9020202F01F0205FA02F287
:10444800C0F884200022206A0261026842F001025A
:1044580002608268D20709D18268D20704BF8268E5
:104468005FEAC27202D18268D207F2D0826842F053
:1044780001028260026822F001020260062002B096
:10448800B0BD042002B0B0BDF0B503AF2DE9000FF8
:1044980083B004460846994693460E46FFF7C8FE81
:1044A80081B2C2B2090A062A40F06681C80740F004
:1044B800EF803046012100F093FBC2B2062A40F09B
:1044C8006381306A0A210161016841F001010160DC
:1044D8008168C90709D18168C90704BF81685FEA93
:1044E800C17102D18168C907F2D0816841F0010128
:1044F8008160016821F001010160122000F036FCA2
:10450800D6E90212012502F01F0240F080004FF0A8
:10451800000805FA02F2C1F8882001A98DF8040004
:10452800304602228DF80580FEF716FFC0B2062835
:1045380040F0FB80D6E9020101F01F0105FA01F104
:10454800C0F88410306AC0F81080016841F0010199
:1045580001608168C90709D18168C90704BF8168FA
:104568005FEAC17102D18168C907F2D0816841F060
:1045780001018160016821F0010101600D2000F056
:10458800F5FBD6E90212012502F01F0240F0800077
:104598004FF0000805FA02F2C1F88820A7F12201BD
:1045A80007F8220C3046022207F8218CFEF7D4FEC9
:1045B800C0B2062840F0B980D6E9020101F01F0117
:1045C80005FA01F1C0F88410306AC0F8108001685B
:1045D80041F0010101608168C90709D18168C907F3
:1045E80004BF81685FEAC17102D18168C907F2D04E
:1045F800816841F001018160016821F001010160D9
:10460800222000F0B3FBD6E90212012502F01F02B6
:1046180040F080004FF0000805FA02F2C1F8882047
:1046280002A98DF80800304602228DF80980FEF7AD
:1046380093FEC0B2062878D1D6E9020101F01F0125
:1046480005FA01F1C0F88410306AC0F810800168DA
:1046580041F0010101608168C90709D18168C90772
:1046680004BF81685FEAC17102D18168C907F2D0CD
:104678008168B9F1000F41F001018160016821F002
:104688000101016054D001254FF0000AC8460EE030
:10469800052072E081680AF1010AB8F1000F41F0C3
:1046A80001018160016821F00101016040D0BAF187
:1046B800FF0F3DD0002000F059FBD6E9021240F070
:1046C800800002F01F021BF80A3005FA02F2C1F856
:1046D8008820A7F11E0107F81E0C3046022207F8B1
:1046E8001D3CFEF739FEC0B206281ED1D6E90201EC
:1046F800A8F1010801F01F0105FA01F1C0F88410C2
:104708000021306A0161016841F00101016081689E
:10471800C907BFD18168C90704BF81685FEAC17151
:10472800B8D18168C907F2D0B4E7A070042024E0AA
:10473800222000F01BFB014630464A46FFF75EFE8A
:10474800C2B2062A20D13046032100F049FAC2B28B
:10475800062A19D13046FFF76BFD81B2C2B2090AA9
:10476800062A09D1C807F5D10020C4F804902070A2
:1047780003B0BDE8000FF0BDA1706070012020708B
:1047880003B0BDE8000FF0BD60700120A17020707B
:1047980003B0BDE8000FF0BDF0B503AF2DE9000789
:1047A8008CB08046D7E903C6386A06F01F054FF07B
:1047B800010E0A240EFA05F5D7F81CA0CCF888508B
:1047C80004610468D7F8189044F001040460BC68D8
:1047D800CDF81CA0CDF81890089005968DE81E100D
:1047E800ADF824E08168C90709D18168C90704BF09
:1047F80081685FEAC17102D18168C907F2D0816816
:1048080041F001018160016821F0010101600A2184
:10481800CCF884500161016841F0010101608168B0
:10482800C90709D18168C90704BF81685FEAC171F6
:1048380002D18168C907F2D0816841F00101816025
:10484800016821F001010160422000F08FFA014661
:104858006846FFF775FDC0F30721C2B2062A40F08B
:10486800B481122940F0AE816846002100F0B8F901
:10487800C2B2062A40F0A98108980A21016101689C
:1048880041F0010101608168C90709D18168C90740
:1048980004BF81685FEAC17102D18168C907F2D09B
:1048A800816841F001018160016821F00101016026
:1048B8000620CDE9069A00F059FADDE90212012432
:1048C80002F01F0240F0800004FA02F2C1F88820CA
:1048D8004FEA990107F8191CA7F11A0107F81A0CF1
:1048E80068460222FEF738FDC1B2062940F06C8105
:1048F800DDE902124FEA593002F01F02C606089895
:1049080069F39A3604FA02F2C1F8842000210161A1
:10491800016841F0010101608168C90709D1816816
:10492800C90704BF81685FEAC17102D18168C907FC
:10493800F2D0816841F001018160016821F0010134
:104948000160072000F012FADDE90212012402F0EA
:104958001F0240F0800004FA02F2C1F88820310AF0
:1049680007F8191CA7F11A0107F81A0C6846022261
:10497800FEF7F2FCC1B2062940F02681DDE90212F9
:1049880002F01F02089804FA02F2C1F884200021FC
:104998000161016841F0010101608168C90709D11D
:1049A8008168C90704BF81685FEAC17102D1816863
:1049B800C907F2D0816841F001018160016821F0E6
:1049C80001010160082000F0D1F9DDE9021201249B
:1049D80002F01F0240F08000002504FA02F2C1F83C
:1049E8008820A7F11A0107F81A0C6846022207F86E
:1049F800195CFEF7B1FCC1B2062940F0E580DDE99B
:104A0800021202F01F02089804FA02F2C1F8842088
:104A18000561016841F0010101608168C90709D198
:104A28008168C90704BF81685FEAC17102D18168E2
:104A3800C907F2D0816841F001018160016821F065
:104A4800010101601D2000F091F9DDE90212012445
:104A580002F01F0240F0800004FA02F2C1F8882038
:104A6800722107F8191CA7F11A0107F81A0C6846F1
:104A78000222FEF771FCC1B2062940F0A580DDE9EB
:104A8800021202F01F02089804FA02F2C1F8842008
:104A980000210161016841F0010101608168C907D5
:104AA80009D18168C90704BF81685FEAC17102D171
:104AB8008168C907F2D0816841F00101816001680D
:104AC80021F0010101601E2000F050F9DDE9021219
:104AD800012402F01F0240F0800004FA02F2C1F83B
:104AE8008820742107F8191CA7F11A0107F81A0C75
:104AF80068460222FEF730FCC1B2062964D1DDE91E
:104B0800021202F01F02089804FA02F2C1F8842087
:104B180000210161016841F0010101608168C90754
:104B280009D18168C90704BF81685FEAC17102D1F0
:104B38008168C907F2D0816841F00101816001688C
:104B480021F001010160262000F010F901466846B5
:104B58000422FFF753FCC2B2062A36D10E2000F019
:104B680005F9014668460022FFF748FCC2B2062A4A
:104B78002BD10F2000F0FAF8014668460022FFF713
:104B88003DFCC2B2062A20D10C2000F0EFF8014605
:104B980068462022FFF732FCC2B2062A15D16D46BC
:104BA8000121284600F01CF8C2B2062A0DD14FCDCB
:104BB800A8E84F0095E84F0088E84F000CB0BDE822
:104BC8000007F0BD012000E0042088F8040002205E
:104BD80088F80510C8F800000CB0BDE80007F0BD63
:104BE800F0B503AF2DE9000B82B0054601208846D9
:104BF8004FF0010900F0BAF80646802000F0B7F837
:104C08000446404600F0B3F8D5E90212204302F00A
:104C18001F0209FA02F2C1F88820A7F11A0107F861
:104C2800190C46F0800007F81A0C28460222FEF7F5
:104C380093FBC1B206292AD1D5E9020202F01F026C
:104C480009FA02F2C0F884200022286A0261026888
:104C580042F0010202608268D20709D18268D20755
:104C680004BF82685FEAC27202D18268D207F2D0BA
:104C7800826842F001028260026822F0010202604A
:104C8800062085F8258002B0BDE8000BF0BD0420A1
:104C980002B0BDE8000BF0BD7047D4D480B56F46B4
:104CA80082B00A460178DFE801F0030E203244564C
:104CB80040F2CC511046C2F220010D2202B0BDE8EC
:104CC800804006F02CBF0130019040F2E85040F2DD
:104CD800D951C2F2200001AB00901046C2F2200167
:104CE8000F2206F028FF02B080BD0130019040F28B
:104CF800FC5040F2F851C2F22000C2F220010090AC
:104D0800104601AB022206F016FF02B080BD01304A
:104D1800019040F2FC5040F20C61C2F22000C2F255
:104D280020010090104601AB052206F004FF02B0F6
:104D380080BD0130019040F2146040F21161C2F26E
:104D48002000C2F220010090104601AB032206F0B9
:104D5800F2FE02B080BD40F224611046C2F220018A
:104D68000C2202B0BDE8804006F0D9BE70477047FB
:104D7800704745F23C20C2F2000070474EF2100026
:104D8800CEF200000068C00345F23820C2F20000ED
:104D98000AD5BFF35F8F50E8001F013140E80012C9
:104DA800002AF8D1BFF35F8F0068704770474EF64E
:104DB80004504FF08061CEF20000016070474EF25F
:104DC8001000CEF200000068C00358BF704745F2DB
:104DD8003820BFF35F8FC2F2000050E8001F013196
:104DE80040E80012002AF8D1BFF35F8F7047704780
:104DF800014640F23060C2F2200070470047704719
:104E0800006805F06BBF80B56F468AB0019044F228
:104E1800B820C2F200000021D0E84F2FC0E8431F9D
:104E2800002BF9D162B348F28C50C2F2000001683D
:104E3800481E18BF0120012988BF4FF0FF30411CD0
:104E48001CBFC0B200281BD1002040F24061069070
:104E58000120039040F2B462059008A8049042F63D
:104E68005130C0F20000C2F22001099001A8089058
:104E780002A80291C2F220020121002302F055FF8C
:104E880000F001F8FEDE80B56F4648F248100521B3
:104E9800C4F21F004FF2800301603821C0F8F011FE
:104EA8004CF26C00C4F20A004DF2801E01684AF20E
:104EB800003CC0F2FA23C0F6F00E21F008010160B0
:104EC8004CF28400C1F2E11CC4F21B0050F8801CB3
:104ED80041F0080140F8801C082101601A46013A97
:104EE800FDD141601A46013AFDD101601A46013AE6
:104EF800FDD141601A46013AFDD101601A46013AD6
:104F0800FDD141601A46013AFDD101607246013A6D
:104F1800FDD141607246013AFDD101607246013A05
:104F2800FDD141607246013AFDD101607246013AF5
:104F3800FDD141607246013AFDD101601A46013A3D
:104F4800FDD141601A46013AFDD101601A46013A85
:104F5800FDD141601A46013AFDD101601A46013A75
:104F6800FDD141601A46013AFDD16246013AFDD1B0
:104F7800B3E7F0B503AF4DF8048D84B00468216839
:104F880079BBD0E901124FF0FF33C068236009688C
:104F9800D0F8008004F12000167803F09CF901ADE8
:104FA800CDE90101284603F0B0F9284603F0F5F9E8
:104FB800002E18BF01262846314603F0FAF9284684
:104FC800012103F0BAF92846414603F0C4F92846FE
:104FD80003F0A7F920680130206004B05DF8048B65
:104FE800F0BD40F27C7040F21073C2F22000A7F1CD
:104FF8001102009040F2E060C2F22000C2F22003E9
:10500800102105F055FFFEDE7047704770470846CF
:1050180040F63821C2F22001122206F080BDF0B518
:1050280003AF2DE9000FB3B048F26811044648F207
:105038003410C2F20001C2F20000016001208DF8B4
:10504800100005F004FE46F2000541F23810C2F2E5
:1050580000052918BFF35F8F51E8000F40F00042A8
:1050680041E80023002BF7D1B0F1FF3FBFF35F8F7A
:1050780040F3118245F25C200122C2F20000BFF326
:105088005F8F00F5C070D0E84F1FC0E8432F002B9A
:10509800F9D103940029BFF35F8F40F0088245F2ED
:1050A8005C204FF4C071C2F2000003F08EF8CDE925
:1050B800300149F20000C4F20D0005F586512F9029
:1050C8000020C4F22E000DF19C0B2E9041F23810F6
:1050D80028442D9006204FF0000ACDE92A0105F555
:1050E8008051299101212C904FF00109CDE92750D9
:1050F8005846ADF8C8A004F047F9BBE87E000DF1AA
:10510800140808F104007EC09BE87E007EC040467B
:105118009DF810108DF84890CDF814A003F0D2FA3D
:1051280003999DF848002A9104A9299126A9CDF848
:1051380098A0CDE9278118B127A8FFF71AFF0DE03D
:1051480005F079FD044605F06CFD05F080FD27A803
:10515800FFF70FFFE00708BF05F065FD48F2000AFA
:10516800B8E85C00C2F2000A0AF10C0B40F20141F7
:1051780058465CC0B8E87C007CC098E87C007CC0DD
:1051880000200322CAF844008023CAF800004FF028
:10519800FF30AAF804100821CAF80800FF20CDE95A
:1051A8000021802102905846002203F0D1FC0D46D0
:1051B800DAF80810C00701F10101CAF8081040F038
:1051C8008281DAF80000002840F084819AF80460AF
:1051D80000200029CAF8000006F101028AF804201C
:1051E80040F054814FF0FF310222CAF808104021E4
:1051F800CDE900210021029058460022002303F047
:10520800A7FC0C46DAF80810C00701F10101CAF83A
:10521800081040F06481002940F038814FF0FF30D9
:105228004FF04009CAF8080002204FF00008CDE905
:1052380000095846802100228023CDF8088003F019
:1052480087FCDAF80820C00702F10102CAF8082032
:1052580040F0488148F238104FF40073C2F2000061
:10526800002A80F8261040F2FF3180F82D600AF1FC
:105278004406A0F80F104FF00801818181804FF497
:10528800FA51A0F82E8080F82C80A0F82730A0F8DA
:1052980024900662A0F81B308476A0F81890466126
:1052A8008573866080F80680016040F0EF804FF0DB
:1052B800FF304021CAF808000020CDE90001002194
:1052C800029058460122002303F042FC8946DAF88E
:1052D8000810C00701F10101CAF8081040F0168152
:1052E800002940F0D3804FF0FF304021CAF8080071
:1052F8000020CDE900018021029058460122802338
:1053080003F026FC8846DAF80810C00701F101010D
:10531800CAF8081040F00181DAF80000002840F0CF
:1053280010814FF0FF300029CAF8000040F00E81CC
:10533800CAF80800584603F098FCDAF8080001306B
:10534800CAF80800C0F007814FF0FF3005ADCAF871
:105358000800E81CBFF35F8FCAF844B08021BFF390
:105368005F8F07F081FA5846812103F007FA584603
:10537800012103F003FA5846822103F0FFF9584649
:10538800022103F0FBF95846832103F0F7F9584648
:10539800032103F0F3F95846842103F0EFF9584646
:1053A800042103F0EBF95846852103F0E7F9584644
:1053B800052103F0E3F95846862103F0DFF9584642
:1053C800062103F0DBF95846872103F0D7F9584640
:1053D800072103F0D3F948F24804DDE92701C2F2B6
:1053E8000004BDF8A4206281BDF89820C4F8061016
:1053F8009DF89A10C4F8020004F12100A4F81520C1
:105408008322E175294607F029FA4FF0806140F6BA
:105418004A22C4E937B13221C4F8D6100221C4F2B5
:105428000001C2F22002C4F8D2101021A4F8D01052
:1054380045F62401C2F2DD710020C4F8CC10092120
:10544800C4E92F21402117F8D52C37F8D73C84F828
:10545800E400C4F8C400C4E92B00C4F8B400C4F8DC
:10546800A400A4F81F0084F81E80A183A661A4F8F4
:10547800130084F812902182E6602080A4F8E530B9
:1054880084F8E72033B0BDE8000FF0BD40F62810DF
:10549800C2F2200063E040F28C7040F60C02C2F2C7
:1054A8002000C2F220021F2105F0FAFBFEDE40F6C2
:1054B8005C0040F6BC02C2F22000C2F220022021A9
:1054C80005F0EEFBFEDE40F628208DF81450C2F2FF
:1054D80020000DE040F66810C2F220003FE08DF891
:1054E800144001E08DF8141040F61820C2F2200094
:1054F80040F67813009040F6082005AAC2F2200072
:10550800C2F220030F2105F0D3FCFEDE40F6F810AE
:105518008DF81490C2F2200005E040F6E8108DF8EE
:105528001480C2F2200040F67813009040F61C0068
:1055380005AAC2F22000C2F22003202105F0B8FC1F
:10554800FEDE40F65810C2F2200008E040F648108F
:10555800C2F2200003E040F63810C2F2200040F208
:105568001073009040F2E06005AAC2F22000C2F277
:105578002003102105F09CFCFEDEF0B503AF2DE9F9
:10558800000F81B045F244214FF0010CC2F2000136
:10559800BFF35F8FD1E84F2FC1E843CF002BF9D17C
:1055A800BFF35F8F002A01BF48F20001C4F20D016A
:1055B8000022C4F22F0201BF02F5542C02F5502E2E
:1055C80002F54C28A1F5004401BFA1F5003501F50D
:1055D800F61601F5F413C0E9683601BFC0E96A544C
:1055E800C0E96C8EC0E96EC101F5005E01BF01F52E
:1055F800805640F2040CC4F22E0C01F5021401BFCF
:105608000CF5FE7501F5004300F5C07888E8380010
:1056180001BF00F5C67383E81210C0E9666EA1F5F4
:10562800404C01BF01F5881E01F5861801F5841468
:1056380001F5821301BF01F5003602F51025C0E916
:10564800585600F5B47501BF85E81A41C0F87CC109
:10565800A1F5804C02F51C2E01BF02F5182802F5B1
:105668001424A1F5E03301F5282601BF01F5EE1554
:10567800C0E9505600F5A47585E8184101BFC0E996
:10568800562C02F5782802F5742902F5702401BF1A
:1056980002F56C234CF2000CC4F2070C0CF5004622
:1056A80001BF01F5E03E01F58E15C0E9485EC0E98D
:1056B8004A6101BF00F5987585E81802C0F83C8179
:1056C80001F5482801BF01F5442901F5402A01F5F3
:1056D8003C2B01F5382301BF01F5342401F53025B1
:1056E80001F52C26C0E9406501BFC0E94243C0E985
:1056F80044BAC0E9469802F5302801BF02F52C29C2
:1057080002F5282A02F5242B02F5861301BF02F5BB
:10571800841402F5821502F58016C0E9386501BFC8
:10572800C0E93A43C0E93CBAC0E93E9801F5F0182F
:1057380001BF01F59219A1F5503AA1F5403BA1F539
:10574800303301BF01F5901401F58C1501F58A1667
:10575800C0E9306501BFC0E93243C0E934BAC0E9E5
:10576800369844F2000B01BFC4F2002B0BF5004938
:105778000BF5804A4FF0844801BF01F56C2601F50E
:10578800682401F56425A1F5C03301BFC0E92835B7
:1057980000F1A80383E85009C0E92EA901BF01F56B
:1057A800602801F5E61901F5E81AA1F5203601BFD0
:1057B8000BF5E03301F5582401F55425C0E92054D0
:1057C80001BF00F1880484E84804C0E9259EC0F8B8
:1057D8009C8001BFA1F5103E01F5FE1801F50019E6
:1057E80002F5642A01BF02F5602302F55C2602F582
:1057F800582501F5A03401BF00F1600B8BE870005B
:10580800C0E91B3AC0E91D9801BFC0F87CE001F56A
:10581800803E02F540480CF5804901BF01F5804AF9
:1058280001F5F21344F20806C4F2090601BF06F1B5
:10583800100506F10804C0E91064C0E9125301BF5D
:10584800C0E914A9C0E9168E0CF5C03E01F5103860
:1058580001BF01F5801901F57C2401F5782302F5D3
:105868007C2601BF02F54825C0E9085600F1280545
:1058780085E8180201BFC0E90D81C0F83CE002F5D7
:10588800442E02F50C2601BF01F5D21501F524249A
:1058980002F54022A1F5803301BFA1F5A031C0E98E
:1058A8000013C0E9022C103001BF80E8704001B03D
:1058B800BDE8000FF0BD40F6532040F6E822C2F2E2
:1058C8002000C2F22002352105F0BAFAFEDEF0B55A
:1058D80003AF4DF804BD0E4600211546044602F0FC
:1058E8003FFC284640F2E24102F041FC304602F01B
:1058F80004FB40F69C052146C2F2200500222846FA
:10590800366802F021FBA81C2146002202F01CFB8D
:10591800281D2146002202F017FBA81D214600225F
:1059280002F012FB05F108002146002202F00CFBF0
:1059380005F10A002146002202F006FB05F10C00E1
:105948002146002202F000FB05F10E00214600224C
:1059580002F0FAFA05F110002146002202F0F4FAEA
:1059680005F112002146002202F0EEFA05F11400BA
:105978002146002202F0E8FA05F11600214600222D
:1059880002F0E2FA05F118002146002202F0DCFAE2
:1059980005F11A002146002202F0D6FA05F11C0092
:1059A8002146002202F0D0FA05F11E00214600220D
:1059B80002F0CAFA20684169890107D5416921F0D6
:1059C80000714161204602F0BCFB20684169012258
:1059D80021F0605141612068816962F30D31816174
:1059E800204602F0AEFB2068416941F00071416138
:1059F800204602F0A6FB4FF48050306064203060EF
:105A08004FF4005070603068002809D430680028CE
:105A18005CBF3068002803D43068B0F1FF3FF2DC87
:105A280020680122016962F302010161204602F047
:105A380088FB2068416921F4E0514161204602F069
:105A480080FB2068816941F44021816120684169B7
:105A580021F000714161204602F073FB206840F29A
:105A68005835C2F220050022416941F44071416174
:105A78002846214602F068FAA81C2146002202F0B6
:105A880063FA281D2146002202F05EFAA81D21466D
:105A9800002202F059FA2068022640F268350022F6
:105AA800C2F22005816B66F3D84181632068816B5F
:105AB80041F4802181632846214602F045FAA81C5A
:105AC8002146002202F040FA281D2146002202F059
:105AD8003BFAA81D2146002202F036FA206840F65B
:105AE800F8250322C2F22005816966F30511816158
:105AF8002068816962F39C61816128462146002201
:105B080002F022FAA81C2146002202F01DFA281DE4
:105B18002146002202F018FAA81D2146002202F0B0
:105B280013FA05F108002146002202F00DFA206858
:105B3800172240F20075C2F22005C16962F305011F
:105B4800C16120680022C16941F04001C161284655
:105B5800214602F0F9F9A81C2146002202F0F4F9C6
:105B6800281D2146002202F0EFF9A81D2146002237
:105B780002F0EAF905F108002146002202F0E4F9F2
:105B880005F10A002146002202F0DEF905F10C00B9
:105B98002146002202F0D8F905F10E002146002224
:105BA80002F0D2F9206840F60235C2F2200503223D
:105BB800416A41F0400141622068416A66F305018B
:105BC80041622846214602F0BFF9A81C214603225B
:105BD80002F0BAF9281D2146032202F0B5F9A81DE2
:105BE8002146032202F0B0F905F1080021460322FC
:105BF80002F0AAF905F10A002146032202F0A4F9ED
:105C080005F10C002146032202F09EF905F10E0071
:105C18002146032202F098F905F1100021460322DB
:105C280002F092F905F112002146032202F08CF9E4
:105C380005F114002146032202F086F905F1160049
:105C48002146032202F080F905F1180021460322BB
:105C580002F07AF905F11A002146032202F074F9DC
:105C680005F11C002146032202F06EF905F11E0021
:105C78002146032202F068F905F12000214603229B
:105C880002F062F905F122002146032202F05CF9D4
:105C980005F124002146032202F056F905F12600F9
:105CA8002146032202F050F905F12800214603227B
:105CB80002F04AF905F12A002146032202F044F9CC
:105CC80005F12C002146032202F03EF905F12E00D1
:105CD8002146032202F038F905F13000214603225B
:105CE80002F032F905F132002146032202F02CF9C4
:105CF80005F134002146032202F026F905F13600A9
:105D08002146032202F020F905F13800214603223A
:105D180002F01AF905F13A00214603225DF804BBA6
:105D2800BDE8F04002F010B980B56F4600F015FFED
:105D380080BD80B56F464EF20C1C4FF4003ECEF28B
:105D4800000C44F2BC22CCF880E0C2F20002BFF39F
:105D58005F8FD0E900318068C2E900319060BFF3FD
:105D68005F8FCCF800E1CCF800E080BDF0B503AF60
:105D78004DF8048D86B045F24828C2F20008D8F8DC
:105D8800000028B106B05DF8048BBDE8F04000477C
:105D980044F2BC20C2F200000068062832D100F0AC
:105DA800BDFF00F0BAFF039048F26810C2F200008D
:105DB800012200F21240BFF35F8FD0E84F1FC0E806
:105DC800432F002BF9D10029BFF35F8F58D148F238
:105DD80068144FF48061C2F20004204606F042FDC8
:105DE80004F00FFF0646204601F03BFE03A8FFF72C
:105DF80016F944F6BF00C0F2000001F027FF05467F
:105E0800304635E000F08AFF00F087FF029048F244
:105E18006810C2F20000012200F21240BFF35F8F47
:105E2800D0E84F1FC0E8432F002BF9D1BFF35F8F95
:105E3800C1BB48F268154FF48061C2F200052846DC
:105E480006F010FD04F0DDFE44F2BC210446C2F267
:105E58000001284600F063FE08BB02A8FFF7DFF840
:105E680044F6BF00C0F2000001F0F0FE05462046EF
:105E780004F0D2FEC8F8005006B05DF8048BF0BDFF
:105E880049F20000C4F20D0005900020C4F22E0073
:105E9800CDE9030040F6EC30C2F2200010E02046C5
:105EA80004F0BAFE49F20000C4F20D00059000208B
:105EB800C4F22E00CDE9030040F6DC30C2F2200027
:105EC80040F66C33009040F63E3003AAC2F2200040
:105ED800C2F220032B2104F0EBFFFEDEFEE7D0B573
:105EE80002AF84B004460088062812D1A069016870
:105EF800BFF35F8F81B10020A27F40F6FC33009092
:105F080002A8C2F2200302F098FF0820208004B003
:105F1800D0BD072004B0D0BD40F6944040F61852DA
:105F2800C2F22000C2F22002222104F089FFFEDE24
:105F3800F0B503AF4DF804BD86B0044608880D4699
:105F4800411E032928D3052826D0072836D1D5F89D
:105F5800AC00D5F8063069898128D5F80220ADF85B
:105F68000C10CDE9012373D2E9680968BFF35F8F8C
:105F7800002961D0C0F18003AA7C2844009300F175
:105F8800240304A803F01CF89DF8100000283ED054
:105F98009DF8110008BB34E0E8680168BFF35F8F23
:105FA800002949D0AA7C40F6FC3304A80026C2F296
:105FB8002003009603F004F82E8022E0E8680168C8
:105FC800BFF35F8FC1B30020AA7C40F6FC3300907A
:105FD80004A8C2F2200302F0F3FFE868092129802F
:105FE8000068BFF35F8F38B3A97C012203F0ABF8D8
:105FF800A8690068BFF35F8FF0B1A97F012203F0A1
:10600800A2F80420607206B05DF804BBF0BD0598E4
:10601800D5E92B120844C5F8AC009042F1D3DDE96C
:1060280001010623BDF80C202B80206061602281CD
:1060380006B05DF804BBF0BD40F6944040F6185237
:10604800C2F22000C2F22002222104F0F9FEFEDE94
:1060580040F664428021C2F2200205F01CFEFEDEFA
:10606800F0B503AF2DE9000F85B00446C8680D46AA
:106078000168BFF35F8F002900F08B8005F12406CB
:106088008020AA7C009002A8334602F099FF9DF870
:10609800080018B19DF8090060B921E0039A812A27
:1060A80080F0838002A8314604F057F99DF811006A
:1060B80004281BD1E868092129800068BFF35F8F95
:1060C800002866D0A97C012203F03DF8A869006881
:1060D800BFF35F8F00285CD0A97F012203F033F85B
:1060E8000420607205B0BDE8000FF0BDE868BDF897
:1060F80010A09DF80F609DF80E90BDF80CB0DDF86B
:1061080008800068BFF35F8F002842D0A97C002276
:1061180003F019F8BEB10420A5F80AA06E7285F83C
:106128000890A5F806B0C5F802802880A4F808A051
:10613800E67184F80690A4F804B0C4F8008005B0AD
:10614800BDE8000FF0BDBBF1000F11D0BBF1800F0F
:10615800B0D80020A5F80AA0C5E92B0B6872072063
:1061680085F80890A5F806B0C5F802802880B7E73A
:106178000620A4F808A028800020C5F8B000E07127
:1061880084F80690A080C4F8008005B0BDE8000F30
:10619800F0BD40F6944040F61852C2F22000C2F218
:1061A8002002222104F04CFEFEDE40F67443104625
:1061B800C2F2200380211A4605F08EFDFEDEB0B53E
:1061C80002AF84B00446D0E92951D0F8AC00D4F825
:1061D800B0C0002DA38BAE46ACEB000208BF04F1A3
:1061E800240E9A4238BF1346002D03EB000C08BF5B
:1061F80080219C4525D38C452BD8A1690968BFF31C
:106208005F8F71B3A27F00930EEB000302A802F028
:1062180014FE9DF8080008B104B0B0BD0398D4E995
:106228002B120144C4F8AC109142F5D30021A28B83
:10623800C4F8A4100321904208BF0221218004B0B1
:10624800B0BD40F684426146C2F2200205F065FD09
:10625800FEDE40F684426046C2F2200205F03CFDB4
:10626800FEDE40F6944040F61852C2F22000C2F218
:106278002002222104F0E4FDFEDED4D4B0B502AF42
:1062880084B0044600880138072834D8DFE800F0D5
:10629800040B24333333334B2046FFF790FF00259C
:1062A800284604B0B0BDA0690168BFF35F8F00291C
:1062B8003FD0A27F40F6FC3302A80025C2F220039B
:1062C800009502F0BAFD9DF80800002804BF0320DD
:1062D8002080284604B0B0BDE0680068BFF35F8F37
:1062E80038B3A17C0022002502F02DFF0520208074
:1062F800284604B0B0BDE068092121800068BFF3DA
:106308005F8FB0B1A17C012202F01DFFA069006877
:10631800BFF35F8F68B1A17F012202F014FF00254F
:10632800284604B0B0BD002001252080284604B0CE
:10633800B0BD40F6944040F61852C2F22000C2F2B6
:106348002002222104F07CFDFEDED0B502AF044617
:10635800008800F00D00042815D1E068092121808B
:106368000068BFF35F8F80B1A17C012202F0EBFED1
:10637800A0690068BFF35F8F38B1A17F012202F0E6
:10638800E2FE0820D0BD0720D0BD40F6944040F67C
:106398001852C2F22000C2F22002222104F050FD5D
:1063A800FEDEF0B503AF2DE9000788B0824600880D
:1063B80004284CD191E850026D460AF12401284680
:1063C8008022BAF8068003F0EAFF2168284604F024
:1063D800D8F8C0B2082836D1B9F1000F10D006EBB2
:1063E800C9046D46D6E90001CA6829469047C0B27B
:1063F800082828D1284604F02CF90836A642F1D1FD
:106408006D46284604F028F9284603F0D1FF802875
:1064180022D9DAF80C000921AAF800100068BFF3A5
:106428005F8F50B39AF81210012202F08CFEDAF84E
:1064380018000068BFF35F8FF8B19AF81E100122A8
:1064480002F081FE022008B0BDE80007F0BD072079
:1064580008B0BDE80007F0BD404538BF80460120C0
:106468000021AAF800005046CAE92B18FFF7A7FE3A
:10647800082008B0BDE80007F0BD40F6944040F69B
:106488001852C2F22000C2F22002222104F0D8FCE5
:10649800FEDEF0B503AF4DF804BD8AB004460088AF
:1064A800042833D101AD04F124018022E68828466E
:1064B80003F075FF40F20940A7F1120227F8120C09
:1064C80028460321022303F075FFC0B2082819D11A
:1064D80001A803F06DFF80281DD9E06809212180FB
:1064E8000068BFF35F8F30B3A17C012202F02BFE5E
:1064F800A0690068BFF35F8FE8B1A17F012202F0B5
:1065080022FE02200AB05DF804BBF0BD07200AB0E5
:106518005DF804BBF0BDB04238BF0646012000213B
:1065280020802046C4E92B16FFF749FE08200AB050
:106538005DF804BBF0BD40F6944040F61852C2F234
:106548002000C2F22002222104F07AFCFEDEF0B51F
:1065580003AF4DF804BD04460088042806D14D68F1
:10656800802D07D902205DF804BBF0BD07205DF837
:1065780004BBF0BD096804F124002A46E68806F049
:106588006DF90020B54238BF2E46C4E92B0601201C
:1065980020802046FFF713FE08205DF804BBF0BDFD
:1065A800F0B503AF2DE9000B88B004460088042835
:1065B80030D1D1E90056E84604F124014046802252
:1065C800B4F8069003F0EBFE40462946324604F044
:1065D80035F9C0B2082819D1684603F0E9FE8028C9
:1065E8001DD9E068092121800068BFF35F8F30B3AF
:1065F800A17C012202F0A7FDA0690068BFF35F8FAC
:10660800E8B1A17F012202F09EFD022008B0BDE89A
:10661800000BF0BD072008B0BDE8000BF0BD4845F1
:1066280038BF81460120002120802046C4E92B196B
:10663800FFF7C5FD082008B0BDE8000BF0BD40F627
:10664800944040F61852C2F22000C2F220022221E1
:1066580004F0F6FBFEDEF0B503AF2DE9000F8BB0BA
:1066680083460088042826D10D46E9460BF124010B
:10667800904648468022BBF806A003F090FE08AE7C
:106688004946304604F09BF9304604F09CF9C0B204
:1066980008280CD108AE4FEAC8048CB1F5E802010D
:1066A8000A6931469047083CC0B20828F5D00BB0BB
:1066B800BDE8000FF0BD07200BB0BDE8000FF0BD2E
:1066C80008A804F052FA684603F072FE80281DD923
:1066D800DBF80C000921ABF800100068BFF35F8FEE
:1066E80028B39BF81210012202F02DFDDBF81800E8
:1066F8000068BFF35F8FD0B19BF81E10012202F033
:1067080022FD02200BB0BDE8000FF0BD504538BF98
:10671800824601200021ABF800005846CBE92B1A2D
:10672800FFF74DFD08200BB0BDE8000FF0BD40F6A7
:10673800944040F61852C2F22000C2F220022221F0
:1067480004F07EFBFEDEF0B503AF4DF8048D88B093
:106758000446008804282ED10D686E4604F12401F1
:1067680030468022B4F8068003F019FE30462946E8
:1067780003F06DFEC0B2082819D1684603F018FE70
:1067880080281DD9E068092121800068BFF35F8F48
:1067980030B3A17C012202F0D6FCA0690068BFF3E7
:1067A8005F8FE8B1A17F012202F0CDFC022008B082
:1067B8005DF8048BF0BD072008B05DF8048BF0BDD0
:1067C800404538BF80460120002120802046C4E98A
:1067D8002B18FFF7F4FC082008B05DF8048BF0BD17
:1067E80040F6944040F61852C2F22000C2F220024D
:1067F800222104F025FBFEDE006804F00ABE0A46EA
:10680800D0E9000105F0EBB970477047F0B503AF68
:106818004DF804BD84B00068802906684FF0000078
:10682800029003D28DF80810012434E0B1F5006F0E
:1068380009D20224084664F39F108DF80900C0208D
:1068480040EA911025E002200A4660F39F12B1F554
:10685800803F0DD28DF80A208A0960F39F12E0204C
:1068680040EA11308DF809208DF80800032412E061
:106878008DF80B208A0960F39F128DF80A200A0B05
:10688800042460F39F12880C1E218DF8092061F3FF
:10689800DF008DF8080004F0B4F90546B068B8B90F
:1068A8004FF0FF3006F10C02B06002A8214601F05B
:1068B800E2F80446B0680130B060284604F0ACF94C
:1068C800E0B2033818BF012004B05DF804BBF0BD86
:1068D80040F6DC5040F66853C2F22000A7F11102DE
:1068E800009040F2E060C2F22000C2F220031021C2
:1068F80004F0DEFAFEDE80B56F4682B000680A4614
:1069080040F62851019001A8C2F2200104F086FD4A
:1069180002B080BDF0B503AF4DF8048D82B00068B9
:1069280015460E46046804F06CF98046A068B8B9AC
:106938004FF0FF3004F10C02A0603046294601F008
:106948009AF80546A0680130A060404604F064F952
:10695800E8B2033818BF012002B05DF8048BF0BD1F
:1069680040F6DC5040F66853C2F22000A7F111024D
:10697800009040F2E060C2F22000C2F22003102131
:1069880004F096FAFEDEF0B503AF2DE9000748F2F1
:106998008C52D1F80080C2F200021368B8EB0302EF
:1069A80018BF0122984538BF4FF0FF32531C1CBF57
:1069B800D2B2002A29D142685AB300680025D1E929
:1069C800019A02EB4201061D8C0005E00C3C06F121
:1069D8000C0605F1010518D030685045F6D156F877
:1069E800040C4946524605F03BFF0028EED170687A
:1069F80000218045A0F10600B0FA80F098BF01217F
:106A080040090843BDE80007F0BD0020BDE80007C5
:106A1800F0BD0120BDE80007F0BDF0B503AF2DE9DA
:106A2800000F93B08146084648F28C500091C2F29C
:106A38000000D1F820A00168BAEB010018BF0120BE
:106A48008A4538BF4FF0FF30411C1CBFC0B2002838
:106A580024D1D9F8040028B3009900EB40004FF086
:106A68000008D1E909B48600D9F800100D1D05E029
:106A78000C3E05F10C0508F101080FD02868A0426A
:106A8800F6D155F8040C5946224605F0E9FE0028CF
:106A9800EED16868062818BF824506D913B0BDE84C
:106AA800000FF0BD0098D0E909B401A802900020B9
:106AB80040F6285107900420049040F64850C2F24E
:106AC800200003AA03900320069009A8059044F229
:106AD8004950C0F20000C2F220010E9012A80D9099
:106AE80044F24F50C0F20000CDF804900C9010A86A
:106AF8000B9045F6C510C0F20000CDF83CA00A90F6
:106B08000FA809900098CDE910B42C30129002A873
:106B180004F084FC13B0BDE8000FF0BD7047D0B599
:106B280002AF45F24C220C46D1E90113C2F2000231
:106B38004FF0000CD06082E80A1040F6EC51C2F227
:106B48002001104601F0A8F8002801BF216848F28A
:106B58008C52C2F200021160D0BD40F6FC32002116
:106B6800C2F220020523C0E9003281607047F0B507
:106B780003AF2DE9000B84B040F6046048F23018EA
:106B880048F24805C2F220000390C2F2000808F15A
:106B98000800C2F2000502A902902846012200F06E
:106BA8004BFB04460021D5F8DC00029102A900F055
:106BB8002AFD064695F8E21098F80000022937D118
:106BC80068B9D5F8DC0001F081FF0021D5F8DC00B8
:106BD800029102A900F05EFC012088F80000D8F8B4
:106BE8001C000168BFF35F8F002900F08A80002035
:106BF80098F8222040F6FC33009002A8C2F2200345
:106C0800344302F0DDF97CB1D8F804000122BFF367
:106C18005F8F00F58264D4E84F1FC4E8432F002B30
:106C2800F9D1BFF35F8F91B104B0BDE8000BF0BD9F
:106C380030B10021D5F8DC00029102A900F08DFCEA
:106C4800002088F8000004B0BDE8000BF0BDD0F8C3
:106C58000014BFF35F8FD0F80824BFF35F8FD0F81C
:106C6800043400F20445BFF35F8F934205D1994283
:106C78003EBFBFF35F8F00232B60994228BF0A46AF
:106C88009A4236D0D8F828100968BFF35F8FC1B38D
:106C9800A2EB030998F82E20034402A84E46B9F146
:106CA800400F28BF4026009602F0C7F89DF808005C
:106CB80068B12078BFF35F8F0028B5D0BFF35F8F2E
:106CC80055E8000F45E800010029F9D111E00398C3
:106CD8002178BFF35F8F0029A6D0814538BF484689
:106CE800BFF35F8F55E8001F014445E80012002AF2
:106CF800F8D10020BFF35F8F207004B0BDE8000B0F
:106D0800F0BD40F6944040F61852C2F22000C2F29C
:106D18002002222104F094F8FEDE70474FF47A60D6
:106D28007047F0B503AF4DF8048D8C46816881B388
:106D3800C36841698B4249D20269D0F818E0D45C33
:106D48000134D4540EF102038B421ED80EF5807420
:106D5800A14238BF0C469C4248D3E41A052C14D3F0
:106D68009CF80640BCF80450D45413440EF10704B0
:106D78009CF808608C429CF807805E704FEA1526E4
:106D88009D7083F80480DE7007D902205DF8048BBB
:106D9800F0BD07205DF8048BF0BD8E451ED2072399
:106DA80002F80E300EF101038B423FBF0521D1548A
:106DB800846108203CBF5DF8048BF0BD40F6BC62DE
:106DC800C2F22002184604F052F8FEDE40F6CC6209
:106DD800C2F22002184604F04AF8FEDE40F6AC6221
:106DE8007046C2F2200204F042F8FEDE40F69C62D1
:106DF8001846C2F22002214604F08FFFFEDEF0B5ED
:106E080003AF2DE9000784B01D46904689468246A7
:106E1800D6000C4686B1F4E802012A464B6A514670
:106E28009847BAF80000083E00F00D000428F1D099
:106E380004B0BDE80007F0BD687A20B3BAF80000D6
:106E480000F00D000428F3D1DAF80C000921AAF8A3
:106E580000100068BFF35F8F00286CD09AF81210FA
:106E6800012202F070F9DAF818000068BFF35F8FAA
:106E7800002860D09AF81E10012202F064F904B0CC
:106E8800BDE80007F0BD297AA879022916D00129A2
:106E980023D00029D2D198B3062843D00828CDD1D1
:106EA8009AF8E20001210391A7F122010238029128
:106EB800B0FA80F0400907F8220C2EE00028BDD176
:106EC8006988DAF8DC0001F08F0102F0BEF90221CE
:106ED8000391A7F1220102911DE050B10A28ADD11A
:106EE80001200390A7F122000290002007F8220C4D
:106EF80013E002200390A7F12200029000200AE08C
:106F08009AF8E00002229AF8E1100392A7F122020F
:106F1800029241EA400027F8220C02A95046FFF7E6
:106F280016FB8BE70AF1B4004946424653460095E2
:106F380000F0D6F882E740F6944040F61852C2F2C4
:106F48002000C2F22002222103F07AFFFEDED4D410
:106F5800F0B503AF4DF8048D84B01D460E4680464B
:106F6800D4006CB1F6E802012A460B6A41469847FC
:106F7800B8F80000083C00F00D000428F1D09DE0AE
:106F8800687A38B1B8F8000000F00D00042840F025
:106F9800958061E02A7AA8792988022A2FD0012AC7
:106FA8000FD0002A58D10138082855D8DFE800F05A
:106FB80005544054465454544F0001294CD10020E4
:106FC80039E00B2808BF002946D1B8F80000062888
:106FD800D8D1D8F818000168BFF35F8F002961D0B5
:106FE80098F81E20002040F6FC33009002A8C2F258
:106FF800200301F022FF0820A8F80000C2E70128BA
:107008000CD0032808BF002926D169880122D8F8A6
:10701800DC0001F08F0102F096F859E0E1B96988C7
:107028000022D8F8DC0001F08F0102F08CF84FE064
:10703800012911D1012088F8E00049E0481E80B2FA
:107048007F2809D2D8F8DC0001F0C1FD3DE0C9B3C2
:10705800012901D1022039E0B8F8000000F00D0044
:1070680004282BD1D8F80C000921A8F800100068D2
:10707800BFF35F8FB0B198F81210012202F063F8E5
:10708800D8F818000068BFF35F8F00281FBF98F872
:107098001E10012204B05DF8048B1CBFBDE8F0404F
:1070A80002F051B840F6944040F61852C2F220005F
:1070B800C2F22002222103F0C3FEFEDE04B05DF816
:1070C800048BF0BD98F8E20030B1012088F8E200A6
:1070D8004046FEF704FF55E74046FFF736F951E70B
:1070E800F0B503AF2DE9000B88B00646B868144622
:1070F8000D4698460196018902684068ADF810105F
:10710800CDE9022002A803F046F94FF0FF3252FA07
:1071180080F00E2800F26180DFE800F008101C5FA4
:107128005F5F5F5F5F5F5F5F5F5F2A0001A9404647
:10713800FFF709FB08B0BDE8000BF0BD01A805A9E1
:1071480005904046CDE90654FFF72BF908B0BDE895
:10715800000BF0BDC8B2032813D8DFE800F0022402
:1071680028384046FFF795F908B0BDE8000BF0BD98
:10717800404629462246FFF76EFA08B0BDE8000BE4
:10718800F0BD084603F00AF9BDF80A608146E4003C
:107198001CB3F5E8020132464B6949469847083C5A
:1071A8000028F5D009E0311D306828B915E006F14E
:1071B8000C010836306880B10968CDE9050105A9D8
:1071C8004046FFF7EDF908B0BDE8000BF0BD06F149
:1071D8001401103630680028EED1B8F8000000F02D
:1071E8000D000428A6D1D8F80C000921A8F8001031
:1071F8000068BFF35F8F98B198F81210012201F070
:10720800A2FFD8F818000068BFF35F8F40B198F864
:107218001E10012201F097FF08B0BDE8000BF0BD79
:1072280040F6944040F61852C2F22000C2F2200202
:10723800222103F005FEFEDEF0B503AF2DE9000FB5
:107248008BB0D0F8DC400646A7F12E00884692465F
:10725800214602F04DF896F8E20037F82E5C032834
:1072680016D1002D4FF0000018BF032D03D10BB02D
:10727800BDE8000FF0BD204602F039F896F8E300AB
:10728800042800F0FB80042186F8E20086F8E31069
:10729800DFE805F00308274A030000200BB0BDE82B
:1072A800000FF0BDD6F8DC0001F024FD00204FF4FB
:1072B8008061BAF1000F86F8E40086F8E000A6F8CD
:1072C800E2103080E9D008EBCA04A8F1080555F8A7
:1072D800080F69688969884705F10800A042F6D156
:1072E800DBE737F82C0C37F82A1C37F8282C0390E2
:1072F800084340EA0209059104925FEAC9704DD03B
:107308000598C0071CBF3046FEF7B8FF0498C007B1
:107318001AD10398C00721D1042007F81D0C17F8CB
:107328001D0C042823D137E0D6F8DC0001F0DFFF7C
:1073380096F8E20086F8E300032086F8E2000020D1
:107348000BB0BDE8000FF0BDA7F126003146FEF7EF
:1073580087FE17F81D0C042809D11DE0A7F12600A7
:107368003146FEF7E5FD17F81D0C042814D017F870
:107378001F0C002873D080280ED1A7F126033046B1
:1073880041465246FFF73BFD29F00109B9F1000FCC
:10739800CDE9018A07D14DE029F00109B9F1000FC3
:1073A800CDE9018A46D00299002953D001984FF0BF
:1073B800020B012600EBC108A0F1080504982C4631
:1073C8001BEA000F0AD054F8080F61688A6A314630
:1073D800904704F108004045F5D10EE003982C468B
:1073E8001BEA000F09D054F8080F6168CA6A3146D1
:1073F800904704F108004045F5D105981BEA000FB5
:107408000DD066F07F04AA465AF8080FDAF804107F
:107418000A6B214690470AF108004045F4D129EA51
:107428000B095FEA094005D0701C0F2E4FEA4B0B81
:107438000646C3D3029969B1019800EBC104A0F1D3
:10744800080555F8080F6968C969884705F10800F3
:10745800A042F6D101200BB0BDE8000FF0BDA7F1A6
:107468002603304641465246FFF772FD29F00109CE
:10747800B9F1000FCDE9018A95D1DBE740F6DC6070
:1074880040F65872C2F22000C2F220021C2103F01A
:1074980007FCFEDEF0B503AF4DF804BD84B004462A
:1074A80090F834000E68C8B12068002842D14FF027
:1074B800FF31204640F8201B314600F00CFFCDE993
:1074C800010101A800F08DFF00281CBF0DF1040088
:1074D80000F005FF20680130206027E003F0ABFBD7
:1074E800054603F09EFB03F0B2FB206810BB4FF08B
:1074F800FF31204640F8201B314600F0ECFECDE974
:10750800010101A800F06DFF00281CBF0DF1040067
:1075180000F0E5FE206801302060E80706D104B0DD
:107528005DF804BBBDE8F04003F07DBB04B05DF836
:1075380004BBF0BD40F6D47040F66873C2F2200078
:10754800A7F11102009040F2E060C2F22000C2F2FE
:107558002003102103F0ACFCFEDEF0B503AF4DF8BC
:1075680004BD84B0044690F834000D6890B12068DA
:10757800B0BB4FF0FF302946206004F1200000F036
:10758800AAFECDE9010101A800F0BFFE2068013084
:10759800206021E003F04FFB064603F042FB03F0B6
:1075A80056FB2068E0B94FF0FF302946206004F10F
:1075B800200000F090FECDE9010101A800F0A5FE31
:1075C800206801302060F00706D104B05DF804BBE4
:1075D800BDE8F04003F027BB04B05DF804BBF0BD84
:1075E80040F6D47040F66873C2F22000A7F1110289
:1075F800009040F2E060C2F22000C2F220031021A5
:1076080003F056FCFEDEF0B503AF4DF804BD84B0C0
:10761800044690F834000E68D8B12068002858D184
:107628004FF0FF31204640F8201B314600F053FE52
:10763800CDE9010101A800F0A0FE60B301AD284624
:1076480000F0ABFE284600F098FE0028F7D101268E
:1076580026E003F0F0FA054603F0E3FA03F0F7FA40
:107668002068B0BB4FF0FF31204640F8201B314660
:1076780000F031FECDE9010101A800F07EFEB8B1AD
:1076880001AE304600F089FE304600F076FE002854
:10769800F7D1012611E001A800F02DFE80F00106C7
:1076A800206801302060304604B05DF804BBF0BDAE
:1076B80001A800F020FE80F001062068013020605B
:1076C800E80708BF03F0AFFA304604B05DF804BB22
:1076D800F0BD40F6D47040F66873C2F22000A7F1FE
:1076E8001102009040F2E060C2F22000C2F22003D2
:1076F800102103F0DDFBFEDE0020704770470820F4
:10770800704770477047F0B503AF4DF8048D0546D4
:10771800507A012802BF1646107A012802D05DF877
